:020000040800F2
:10000000D814002001010008ED48000881350008DF
:10001000CD420008A5210008FB5F00080000000099
:100020000000000000000000000000004D53000828
:100030006923000800000000F94B0008395400084B
:100040001B0100081B0100081B0100081B01000820
:100050001B0100081B0100081B0100081B01000810
:100060001B0100081B0100081B0100081B01000800
:100070001B0100081B0100081B0100081B010008F0
:100080001B0100081B0100081B0100081B010008E0
:100090001B0100081B0100081B0100081B010008D0
:1000A0001B0100081B0100081B0100081B010008C0
:1000B0001B0100081B0100081B0100081B010008B0
:1000C0001B0100081B0100081B0100081B010008A0
:1000D0001B010008215B0008A95B0008F95C00080F
:1000E0001B0100081B0100081B010008DFF80CD0F1
:1000F00000F04AFC0048004711710008D8140020A5
:100100000648804706480047FEE7FEE7FEE7FEE7B1
:10011000FEE7FEE7FEE7FEE7FEE7FEE7895400089C
:10012000ED00000840EA01039B0703D009E008C97D
:10013000121F08C0042AFAD203E011F8013B00F8AC
:10014000013B521EF9D27047D2B201E000F8012BF8
:10015000491EFBD270470022F6E710B513460A4647
:1001600004461946FFF7F0FF204610BDF0B480EAC0
:100170000102D40F4200B2EB410F02D20246084600
:1001800011464A0042D0C30DDDB2C1F3C752AD1AC9
:10019000202D35DAC1F3160141F4000204B15242B8
:1001A000C5F1200602FA06F12A411044B3EBD05FF4
:1001B00023D0C4B1012DA0EBC35009DCF0BC4FF03B
:1001C000004202EAC352DBB200F5000000F0BEBA02
:1001D000400000F1807000EBC350A0F1807040EA55
:1001E000D170490009E0490841EAC071A0EBC35051
:1001F00000F50000400800EBC350F0BC00F09DBAD1
:100200006142012202EB4101001BF6E7F0BC70479E
:1002100081F00041AAE780F00040A7E780EA0102F0
:1002200010B502F00043400022D04A001FD0010E5A
:1002300001EB1261C0F35600C2F3560240F4000015
:1002400042F40002A0FB022000047F39140400D015
:10025000401C50EA124001D44000491EC2B20C06B4
:1002600004EBD010401C4008802A02D003E000209C
:1002700010BD20F00100002900DA0020184310BD55
:1002800030B480EA010202F0004530F0004221F073
:10029000004013D090B1C30DD40DC2F31601C0F3CA
:1002A0001600E41A41F4000140F400027D3491424A
:1002B00001D3641C00E04900002C02DA30BC0020AD
:1002C00070474FF400000023914201D3891A034381
:1002D00040084FEA4101F7D151B1914202D14FF0AC
:1002E000004105E002D24FF0010101E06FF0010191
:1002F00003EBC450284430BC00F01FBA2DE9FE4F78
:10030000804681EA0300C00F0C46009021F00041B6
:1003100023F00045B8EB0200A94105D24046214632
:1003200090461C460B46024623F00040104347D03F
:10033000270DC7F30A00C3F30A510290401A019037
:1003400040286BDAC3F3130040F4801B00989246F8
:1003500020B10023D2EB030A63EB0B0B0198594643
:10036000C0F14002504600F0B7F906460D4650462F
:100370005946019A00F0CFF910EB080061410024C2
:1003800087EA115284EAE7731A4340D0009A62B3B5
:10039000019A012A4FEA075215DC001B61EB0201AA
:1003A0004FF0004202EA0752CDE90042001C41F53D
:1003B000801132462B4600F012FA03B0BDE8F08FF0
:1003C00040462146F9E7001B61EB0201001C41F5A4
:1003D000801300185B412018A2F5001747EB0301BA
:1003E00040EAD570B6196D4111E06D084FEA360646
:1003F00045EAC0754FEA0752001B61EB0201001C81
:1004000041F5801149084FEA300000195141324648
:100410002B4603B0BDE8F04F00F0D2B9009801229E
:1004200040000023D0EB020263EBE073009821460A
:100430004FEAE074B8EB000061EB0401E9E783F0F8
:1004400000435BE781F0004158E72DE9FE4F81EA68
:10045000030404F0004421F0004100944FF0000B2D
:1004600023F0004350EA01045ED052EA03045BD05B
:10047000C3F30A54C1F30A552C44A4F2F334019493
:10048000A0FB0254C1F3130141F48011C3F3130321
:1004900043F4801301FB024400FB034E840A970AD5
:1004A00044EA815447EA8357A4FB076802958D0A02
:1004B00005FB07854FEA932C04FB0C542705029D8E
:1004C0004FEA065847EA1637B5EB08056EEB070CFE
:1004D000870E920E47EA811742EA8312A7FB0201B8
:1004E000B6EB0B0164EB00042B0D43EA0C335E18F2
:1004F00044EB1C50DA465146E7FB0201C5F31304F6
:100500004FEA0B3343EA14534FEA0432019C43EAA7
:100510000603A4F10C040294009CCDE900B400F0A1
:100520005EF903B0BDE8F08F00200146F9E7C10F86
:1005300080EAE0700844CA079623002100F006B95B
:1005400096230022114600F001B90EB5C10F80EAD2
:10055000E0700844CA07002140F233438DE80E00E2
:100560000A460B4600F03BF903B000BD00F0004224
:1005700020F00040C10DC0F3160040F400007F29B8
:1005800001DA00207047962903DCC1F19601C840CA
:1005900001E096398840002AF4D04042704720F0AC
:1005A0000040C10DC0F3160040F400007F2901DABD
:1005B00000207047962903DCC1F19601C8407047BE
:1005C00096398840704700F0004230F000400AD071
:1005D000C10D01F56071C0F3160042EA0151C20875
:1005E00040071143704700200146704730B5041E94
:1005F00071F1000404DB4FF00044404264EB010160
:10060000141E73F1000405DB1C464FF000435242F8
:1006100063EB04038B4208BF824230BD30B5041E39
:1006200071F1000404DB4FF00044404264EB01012F
:10063000141E73F1000405DB1C464FF000435242C8
:1006400063EB0403994208BF904230BD01F00043C0
:1006500030B421F0004150EA010206D00A0DA2F5A3
:100660006072C1F31301002A02DC30BC0020704725
:10067000440F44EAC104C100E01830BC00EBC25092
:1006800000F05BB8002801DBC0F10040002901DB6D
:10069000C1F1004181427047002801DBC0F10040F8
:1006A000002901DBC1F100418842704730B50B469B
:1006B000014600202022012409E021FA02F59D4292
:1006C00005D303FA02F5491B04FA02F52844151E66
:1006D000A2F10102F1DC30BD202A04DB203A00FA4D
:1006E00002F1002070479140C2F1200320FA03F389
:1006F000194390407047202A04DB203A21FA02F087
:100700000021704721FA02F3D040C2F1200291404B
:10071000084319467047202A06DBCB17203A41FAD6
:1007200002F043EAE07306E041FA02F3D040C2F17E
:10073000200291400843194670470029A8BF70471E
:10074000401C490008BF20F00100704710B4B0FA07
:1007500080FC00FA0CF050EA010404BF10BC7047A2
:1007600049B1CCF1200421FA04F411FA0CF118BFBC
:10077000012121430843A3EB0C01CB1D4FEA00618B
:100780004FEA102042BF002010BC704700EBC3505E
:1007900010440029A4BF10BC7047401C490008BF8A
:1007A00020F0010010BC7047420005D0C0F3C752D2
:1007B0005242914201DC0020704700EBC15070476B
:1007C00010B5141E73F1000408DA401C41F1000159
:1007D00092185B411A4301D120F0010010BD2DE9B0
:1007E000F04D92469B4611B1B1FA81F202E0B0FAA7
:1007F00080F220329046FFF76FFF04460F4640EA32
:100800000A0041EA0B0153465A46084313D01146E9
:1008100053EA010019D0C8F140025046FFF76BFFC0
:1008200005460E46504659464246FFF755FF0843D7
:1008300005D0012004E020463946BDE8F08D0020B7
:10084000054346EAE0762C4337430A986305E40AF9
:10085000A0EB08000022FD0A44EA47540A3002D502
:1008600000200146E9E7010510196941DDE9084565
:1008700000196941BDE8F04DA2E72DE9F04D81EA8C
:10088000030404F0004B21F0004514464FF0000A29
:1008900023F0004150EA050220D054EA01021DD0A5
:1008A000C5F30A570246C5F31303C1F31300C1F39E
:1008B0000A5640F4801543F48013A7EB0608101B7A
:1008C000D64608F2FD3873EB050002D308F10108A3
:1008D00001E092185B41B8F1000F03DA00200146F5
:1008E000BDE8F08D00204FF48011064684460EE0EE
:1008F000171B73EB050705D3121B63EB05030643B8
:100900004CEA010C49084FEA300092185B4150EA6A
:100910000107EDD152EA030012D082EA040083EA13
:100920000501084305D0101BAB4106D2012200236C
:1009300006E000224FF0004302E06FF00102531086
:100940001AEB06004CEB085110EB0A0041EB0B01CF
:10095000BDE8F04DFFF734BF70B521F0004303430D
:100960000CD0C1F30A550024D5EB040564EB040355
:10097000D617AD1AB34102DB0020014670BD201826
:1009800041EB025170BD0000064C074D06E0E068E7
:1009900040F0010394E8070098471034AC42F6D3C6
:1009A000FFF7A8FBC07D0008E07D00082DE9F04DB1
:1009B00000231A461B1A8A4103DB00200146BDE8CA
:1009C000F08DC1F30A52C1F3130141F480154FF0C9
:1009D000000BD10702D100186D41521E00270446BA
:1009E00040F2FF11384601EB620A3E46804602465D
:1009F00000204FF48011FFF77EFEC2197141BB1831
:100A000046EB0100B4EB030C75EB000C04D3E41AC5
:100A100065EB000517460E46241908F101006D41EB
:100A200080463428E3DDF91946EB0600091BA8418E
:100A300003D24FF0FF32134601E0002213461BEBB6
:100A4000070046EB0A51BDE8F04DFFF7B9BE0EB501
:100A500040F2334102910021CDE900110A460B46D4
:100A6000FFF7BDFE03B000BD70B5C1F30A5201F03F
:100A700000450024C1F3130140F2FF3341F480111B
:100A80009A4201DA002070BD40F233439A42A2F24A
:100A9000334203DC5242FFF72EFE00E090402C432D
:100AA000F1D0404270BD70B58C1810F8015B15F0A4
:100AB000070301D110F8013B2A1106D110F8012BD0
:100AC00003E010F8016B01F8016B5B1EF9D12B07F5
:100AD00005D40023521E0DD401F8013BFAE710F8AB
:100AE000013BCB1A921C03E013F8015B01F8015B98
:100AF000521EF9D5A142D8D3002070BD08B50121FE
:100B0000084604F0ADFA01214FF4027004F0C8FA6F
:100B10000120ADF8000000208DF80300694602486E
:100B200002F070F808BD0000000C014010B5FFF79E
:100B3000E5FF00F001F810BD00B591B0334801F0B9
:100B40004FFB33480690334807900020089002205E
:100B5000099000200A9080200B9040000C908000AB
:100B60000D9020200E9000020F900020109006A9FA
:100B7000264801F0DBFB0121244801F024FB002082
:100B8000019001208DF808008DF809004FF46020D5
:100B900003900020049001208DF8140001A91C4846
:100BA0004C3800F063F84FF4004004F04DFA052390
:100BB0000122082116484C3800F080F80121144821
:100BC0004C3800F034F8012111484C3800F024F87A
:100BD0000F484C3800F0CEF800BF0D484C3800F0FC
:100BE0003BF80028F9D10A484C3800F0D3F800BF90
:100BF00007484C3800F026F80028F9D101210448B4
:100C00004C3800F0BCF811B000BD000008000240F4
:100C10004C2401405800002021B1826842F00102BA
:100C2000826003E0826822F001028260704721B195
:100C3000826842F48072826003E0826822F48072EB
:100C400082607047014600208A6802F004020AB1FF
:100C5000012000E000207047014600208A6802F071
:100C600008020AB1012000E00020704730B50246BA
:100C70000020002350680F4C20400D790C6844EA96
:100C800005242043506090680B4C2040D1E9025469
:100C90002C434D7944EA450420439060D06A20F407
:100CA00070000C7C641EE4B2234340EA0350D0621F
:100CB00030BD0000FFFEF0FFFDF7F1FFF0B5044688
:100CC0000D4600200021092D11DDE068A5F10A067E
:100CD00006EB4607072606FA07F18843A5F10A0640
:100CE00006EB460603FA06F10843E0600CE02069D3
:100CF00005EB4507072606FA07F1884305EB45068D
:100D000003FA06F108432061072A0FDA606B561ECA
:100D100006EB86071F2606FA07F18843561E06EBE8
:100D2000860605FA06F10843606322E00D2A0FDA11
:100D3000206BD61F06EB86071F2606FA07F18843AD
:100D4000D61F06EB860605FA06F10843206310E07D
:100D5000E06AA2F10D0606EB86071F2606FA07F1E8
:100D60008843A2F10D0606EB860605FA06F1084354
:100D7000E062F0BD816841F008018160704721B1F7
:100D8000826842F4A002826003E0826822F4A0023A
:100D900082607047816841F0040181607047000003
:100DA00010B503F02FF906F047FB03F037FA03F014
:100DB00049FDFFF7BBFE4FF4964001F045F94FF4B3
:100DC000E13004F049FE4FF4165004F02FFF03F019
:100DD0006FFE00201449087006F0E0FD012818DBC2
:100DE00015E04FF07E512046FFF7C0F904464FF45E
:100DF00000700E4908600E492046FFF74DFC06D8EA
:100E000000200C49087001200B49087000E0E8E759
:100E100005E001200749087000200749087004F028
:100E200063FB04F0D1FB10BDC8010020100C014091
:100E30000050C347300000209200002000B58FB062
:100E4000FE48007838B10020FC4908700721FC48B2
:100E500000F026FCF8E2FB48807900287DD0FA48B3
:100E60000078401CF849087008460078012806D030
:100E700002287ED0032872D0042871D163E1F348A0
:100E80008069F3490490FFF7C9F90590FFF76EFBFD
:100E900000B20E90ED484069ED490490FFF7BEF9AD
:100EA0000590FFF763FB00B20D90E8480069E84940
:100EB0000490FFF7B3F90590FFF758FB00B20C90D0
:100EC000E4488069E2490490FFF7A8F90590FFF72C
:100ED0004DFB00B20B90DF484069DD490490FFF7FD
:100EE0009DF90590FFF742FB00B20A90D9480069CE
:100EF000D7490490FFF792F90590FFF737FB00B24E
:100F00000990D5488069D2490490FFF787F9059088
:100F1000FFF72CFB00B20890CF484069CC49049001
:100F2000FFF77CF90590FFF721FB00B20790CA4854
:100F30000069C7490490FFF771F90590FFF716FBA8
:100F400000B20690DDE90B23DDE90D10CDE90223A7
:100F5000CDE90410DDE9090103E091E109E07DE05C
:100F60006BE1CDE90001012006A90EC900F0A0FB4C
:100F700063E1BA488069B6490490FFF74FF90590DC
:100F8000FFF7F4FA00B20E90B4484069B0490490FB
:100F9000FFF744F90590FFF7E9FA00B20D90AF486A
:100FA0000069AB490490FFF739F90590FFF7DEFAC5
:100FB00000B20C90AA488069A5490490FFF72EF969
:100FC0000590FFF7D3FA00B20B90A5484069A049FD
:100FD0000490FFF723F90590FFF7C8FA00B20A90D2
:100FE0009F4800699A490490FFF718F90590FFF7A8
:100FF000BDFA00B209909B48806995490490FFF7BB
:101000000DF90590FFF7B2FA00B2089095484069D3
:101010008F490490FFF702F90590FFF7A7FA00B295
:101020000790904800698A490490FFF7F7F8059007
:10103000FFF79CFA00B20690DDE90B23DDE90D1005
:10104000CDE90223CDE90410DDE90901CDE9000174
:10105000022006A90EC900F02BFBEEE08248806951
:101060007B490490FFF7DAF80590FFF77FFA00B2AA
:101070000E907D48406976490490FFF7CFF80590BF
:10108000FFF774FA00B20D90774800697049049038
:10109000FFF7C4F80590FFF769FA00B20C907348A7
:1010A00080696B490490FFF7B9F80590FFF75EFA85
:1010B00000B20B906D48406965490490FFF7AEF8A7
:1010C0000590FFF753FA00B20A906848006960493A
:1010D0000490FFF7A3F80590FFF748FA00B20990D3
:1010E000634880695A490490FFF798F80590FFF724
:1010F0003DFA00B208905E48406955490490FFF7F8
:101100008DF80590FFF732FA00B207905848006951
:101110004F490490FFF782F80590FFF727FA00B2D5
:101120000690DDE90B23DDE90D10CDE90223CDE9C1
:101130000410DDE90901CDE90001032006A90EC96B
:1011400000F0B6FA79E04B48806941490490FFF716
:1011500065F80590FFF70AFA00B20E90454840691D
:101160003B490490FFF75AF80590FFF7FFF900B2EA
:101170000D904048006936490490FFF74FF80590FC
:10118000FFF7F4F900B20C903B48806930490490B5
:10119000FFF744F80590FFF7E9F900B20B903648E5
:1011A00040692B490490FFF739F80590FFF7DEF905
:1011B00000B20A903048006925490490FFF72EF8E4
:1011C0000590FFF7D3F900B209902C4880692049B7
:1011D0000490FFF723F80590FFF7C8F900B20890D4
:1011E000264840691A490490FFF718F80590FFF760
:1011F000BDF900B207902148006915490490FFF736
:101200000DF80590FFF7B2F900B20690DDE90B2367
:10121000DDE90D10CDE90223CDE90410DDE9090176
:10122000CDE90001042006A90EC900F041FA002012
:10123000054908700349887100BF05E16A02002072
:101240009610002088100020680200207004002002
:1012500000007A44F003002070030020F005002015
:10126000F00400207005002070080020F006002027
:1012700070060020F0070020F00800207007002012
:101280007248807818B1002070498870DCE070489E
:101290000078401C6E49087008460078072824D260
:1012A000DFE800F0D10424698CA5B4006948C06966
:1012B0000B90FFF75BF90E906748806880F0004064
:1012C0000D906548006880F000400C9063480078FD
:1012D00062494968C9B2CDE900105F4840680B9087
:1012E00001460CA80DC800F0EFFCACE05948C069FD
:1012F0000890FFF73BF900B20E905948806C0890B7
:10130000FFF734F900B20D905548C06C0890FFF714
:101310002DF900B20C90534800680890FFF726F9A9
:1013200000B20B90504800680890FFF71FF900B218
:101330000A904E4800680890FFF718F900B209902B
:10134000DDE90B23DDE90D10CDE90123CDE9031023
:101350000A9800904648B0F9040008904448B0F953
:10136000020007904248B0F90000069007A90EC994
:1013700000F08CFB67E03F48408A3F490B783D49CD
:10138000C9893C4A9289CDE90313029205903948F4
:10139000408938490989CDE90010364840880E90C7
:1013A000344800880D903348C0880C9031488088BC
:1013B0000B900CA90EC900F0B7FA44E02F48B0F921
:1013C00000000A2190FBF1F080B20E902C480088BA
:1013D0002C490988CDE900102648008A0D9026483E
:1013E00003780122DDE90D1000F024FA2BE02648F5
:1013F00040680D90FFF7BAF80E902448008880B23C
:1014000001460D900E9800F00FFC1CE01E4840684D
:101410000B90FFF7C4F880B20E901148C06C0B908F
:10142000FFF7BDF880B20D900D48806C0B90FFF770
:10143000B6F880B20C90DDE90D1200F0E9FC002056
:101440000349087000BF00BF0FB000BD8810002026
:1014500068020020F00D002030030020540300201B
:10146000140E0020F006002070070020F007002076
:10147000240300203C030020930000205C00002097
:10148000C6010020C40100206003002018020020D3
:101490002DE9F04104460D460026002700BF04E078
:1014A000E05D3044C6B2781CC7B2681EB842F7DCB3
:1014B000601910F8010CB04201D0BDE8F08120782D
:1014C000AA2802D16078AF2800D0F6E7A0780128DA
:1014D00000D18EE0A07802281BD1207901280CD100
:1014E0004548007820F04000403043490870012012
:1014F000424988710020424908702079A02802D111
:1015000001203E4988702079A12872D105F094FF0E
:101510006FE0A078032803D101203A49487068E0C1
:10152000A078102810D11222211D3748FEF7FAFDAD
:101530003148007820F00100401C2F490870A07845
:10154000314600F06BF854E0A078112810D1122237
:10155000211D2E48FEF7E6FD2748007820F0020006
:10156000801C25490870A078314600F057F840E00B
:10157000A078122810D11222211D2548FEF7D2FD95
:101580001D48007820F00400001D1B490870A07859
:10159000314600F043F82CE0A078132810D1122235
:1015A000211D1C48FEF7BEFD1348007820F00800FE
:1015B000083011490870A078314600F02FF818E083
:1015C000A078142804D1A078314600F027F810E064
:1015D000A078152804D1A078314600F01FF808E063
:1015E000A078F12805D12079617941EA00200A49E3
:1015F000088000BF61E70000B201002088100020D1
:1016000068020020AC010020E00E0020F20E002055
:10161000040F0020160F0020C60100202DE9F04124
:1016200005460F4600260024AA201A4908701A49C8
:1016300008701849487018494870EF20154988709B
:101640001549887002201349C8701349C87068B2E0
:10165000104908711049087178B20E4948710E4955
:10166000487100BF05E00B48005D3044C6B2601C05
:10167000C4B2062CF7DB70B206498871064988713E
:101680000120064908700721024804F0A1FBBDE8CB
:10169000F0810000B3010020961000206A020020B3
:1016A00070B504460D462946204600F0B9FC70BDD1
:1016B0002DE9F84F06460F4690469946DDF828B0CA
:1016C0000024A246AA222146641C594842542146BD
:1016D000641C425406F10F00C2B22146641C5448F7
:1016E000425400222146641C425400979DF8012078
:1016F0002146641C42549DF800202146641C42543B
:10170000CDF800809DF801202146641C42549DF8CC
:1017100000202046611CCCB245490A54CDF8009007
:101720009DF801202046611CCCB241490A549DF825
:1017300000202046611CCCB23D490A54CDF800B0CF
:101740009DF801202046611CCCB239490A549DF80D
:1017500000202046611CCCB235490A540B980090F9
:101760009DF801202046611CCCB231490A549DF8F5
:1017700000202046611CCCB22D490A540C980090E0
:101780009DF801202046611CCCB229490A549DF8DD
:1017900000202046611CCCB225490A540D980090C7
:1017A0009DF801202046611CCCB221490A549DF8C5
:1017B00000202046611CCCB21D490A540E980090AE
:1017C0009DF801202046611CCCB219490A549DF8AD
:1017D00000202046611CCCB215490A540F98009095
:1017E0009DF801202146601CC4B2114842549DF866
:1017F00000202046611CCCB20D490A54201FC8703D
:10180000002506E00A48405D504400F0FF0A681CCD
:10181000C5B2A542F6DB2046611CCCB2044901F8F2
:1018200000A021460248FFF73BFFBDE8F88F00000B
:10183000961000202DE9F84F06460F46904699462F
:10184000DDF828B00024A246AA222146641C3548AF
:1018500042542146641C425405222146641C4254D1
:1018600000222146641C425400969DF80120214626
:10187000641C42549DF800202146641C4254009789
:101880009DF801202146641C42549DF8002020460A
:10189000611CCCB223490A542046611CCCB22149B8
:1018A00001F800802046611CCCB21E4901F800906E
:1018B000CDF800B09DF801202046611CCCB219493A
:1018C0000A549DF800202046611CCCB215490A54E8
:1018D0000B9800909DF801202046611CCCB2114964
:1018E0000A549DF800202046611CCCB20D490A54D0
:1018F000201FC870002506E00A48405D504400F0F3
:10190000FF0A681CC5B2A542F6DB2046611CCCB2BA
:10191000044901F800A021460248FFF7C1FEBDE8D6
:10192000F88F0000961000207FB500240026AA2220
:101930002146641C544842542146641C42540322EC
:101940002146641C425400222146641C42549DF8E6
:1019500001202146641C42549DF800202146641C4D
:1019600042549DF805202146641C42549DF80420F1
:101970002046611CCCB244490A549DF809202146F6
:10198000601CC4B2404842549DF808202046611CA7
:10199000CCB23D490A549DF80D202046611CCCB2C2
:1019A00039490A549DF80C202046611CCCB23649B6
:1019B0000A549DF821202046611CCCB232490A54B9
:1019C0009DF820202046611CCCB22F490A549DF876
:1019D00025202146601CC4B22B4842549DF8242087
:1019E0002046611CCCB228490A549DF82920204683
:1019F000611CCCB224490A549DF828202146601C61
:101A0000C4B2214842549DF82D202046611CCCB21E
:101A10001D490A549DF82C202046611CCCB21A495D
:101A20000A549DF831202046611CCCB216490A5454
:101A30009DF830202046611CCCB213490A549DF811
:101A400035202046611CCCB20F490A549DF8342041
:101A50002046611CCCB20C490A54201FC8700025D6
:101A600005E00948405D3044C6B2681CC5B2A542D5
:101A7000F7DB2046611CCCB203490E5421460248D4
:101A8000FFF70EFE7FBD0000961000202DE9F84FF5
:101A900006460F4690469946DDF828B00024A24637
:101AA000AA222146641C5F4842542146641C4254C9
:101AB00002222146641C425400222146641C4254E6
:101AC00000969DF801202146641C42549DF8002098
:101AD0002146641C425400979DF801202146641C55
:101AE00042549DF800202046611CCCB24D490A5456
:101AF000CDF800809DF801202046611CCCB24949F8
:101B00000A549DF800202046611CCCB245490A5475
:101B1000CDF800909DF801202046611CCCB24149CF
:101B20000A549DF800202046611CCCB23D490A545D
:101B3000CDF800B09DF801202046611CCCB2394997
:101B40000A549DF800202046611CCCB235490A5445
:101B50000B9800909DF801202046611CCCB23149C1
:101B60000A549DF800202046611CCCB22D490A542D
:101B70000C9800909DF801202046611CCCB22949A8
:101B80000A549DF800202046611CCCB225490A5415
:101B90000D9800909DF801202046611CCCB221498F
:101BA0000A549DF800202046611CCCB21D490A54FD
:101BB0000E9800909DF801202046611CCCB2194976
:101BC0000A549DF800202046611CCCB215490A54E5
:101BD000002000909DF801202046611CCCB21149E4
:101BE0000A549DF800202046611CCCB20D490A54CD
:101BF000201FC870002506E00A48405D504400F0F0
:101C0000FF0A681CC5B2A542F6DB2046611CCCB2B7
:101C1000044901F800A021460248FFF741FDBDE854
:101C2000F88F00009610002073B500240026AA2229
:101C30002146641C234842542146641C4254072216
:101C40002146641C425400222146641C42549DF8E3
:101C500003202146641C42549DF802202146641C46
:101C600042549DF801202146641C42549DF80020F6
:101C70002046611CCCB213490A549DF80520204629
:101C8000611CCCB20F490A549DF804202046611C07
:101C9000CCB20C490A54201FC870002505E0094841
:101CA000405D3044C6B2681CC5B2A542F7DB204691
:101CB000611CCCB203490E5421460248FFF7F0FCE8
:101CC0007CBD0000961000202DE9FE4F82460E4696
:101CD00017469846DDF830B00024CDF80480A146C0
:101CE000AA222146641C484842542146641C42549E
:101CF00001222146641C425400222146641C4254A5
:101D000042495046FEF78AFA0090FEF72FFC00B2D7
:101D100002909DF809202146641C3B4842549DF8DE
:101D200008202146641C425438493046FEF776FAB2
:101D30000090FEF71BFC00B202909DF8092021469E
:101D4000641C314842549DF808202146601CC4B2EE
:101D50002D4842542D493846FEF760FA0090FEF7B0
:101D600005FC00B202909DF809202046611CCCB20F
:101D700025490A549DF808202046611CCCB222490E
:101D80000A549DF807202046611CCCB21E490A5413
:101D90009DF806202046611CCCB21B490A549DF8D0
:101DA00005202046611CCCB217490A549DF8042036
:101DB0002146601CC4B2144842542046611CCCB277
:101DC000114901F800B02146621CD4B20E4A0D98A8
:101DD0005054201F1146C870002506E00A48405D97
:101DE000484400F0FF09681CC5B2A542F6DB204656
:101DF000611CCCB2044901F8009021460248FFF76B
:101E00004FFCBDE8FE8F0000961000200000C84285
:101E10002DE9F84306460F4690460024A146AA2223
:101E20002146641C264842542146641C42540B221D
:101E30002146641C425400222146641C42540096F0
:101E40009DF801202146641C42549DF80020214643
:101E5000641C425400979DF801202146641C4254A2
:101E60009DF800202046611CCCB215490A54CDF8DB
:101E700000809DF801202046611CCCB210490A5414
:101E80009DF800202046611CCCB20D490A54201F49
:101E9000C870002506E00A48405D484400F0FF098C
:101EA000681CC5B2A542F6DB2046611CCCB20449D1
:101EB00001F8009021460248FFF7F2FBBDE8F883E5
:101EC0009610002070B5072002F0A2FD044604F031
:101ED000400098B1602002F09BFD0546212D08DAF4
:101EE0002A460E49612002F071FD00200C4908804D
:101EF00003E0FF21E22002F0C3FD00BF04F0100068
:101F000030B104F0010018B1FF21E12002F0B8FD6A
:101F10002146272002F0B4FD70BD00005C0C0020BB
:101F20009600002070B504460D464FF48070394984
:101F30000860052238492A2002F080FD0522374931
:101F4000302002F07BFD0121212002F099FD0121CA
:101F5000222002F095FD1A21242002F091FD29464D
:101F6000252002F08DFD0F21262002F089FD012C95
:101F700008D12021312002F083FD0F21202002F022
:101F80007FFD41E0022C08D12021312002F078FDB4
:101F90000E21202002F074FD36E0032C1AD1FF211F
:101FA000E12002F06DFDFF21E22002F069FD0F212A
:101FB000202002F065FD502003F0ACF9732003F0FF
:101FC000A9F901213C2002F05BFD06213D2002F031
:101FD00057FD19E00E21202002F052FDFF21E120E3
:101FE00002F04EFDFF21E22002F04AFD502003F0F6
:101FF00091F9732003F08EF901213C2002F040FD9D
:1020000006213D2002F03CFD4FF480700149091F7C
:10201000086070BD14080140297C0008247C000879
:1020200070B504460D464FF48070064908602A4694
:102030002146A82002F002FD4FF480700149091FDB
:10204000086070BD1408014010B588B00446012135
:10205000880303F025F80121084603F021F8012147
:10206000042003F01DF84FF40070ADF804000320C5
:102070008DF8060018208DF8070001A9254800F00A
:10208000C1FD4FF48060ADF8040003208DF8060018
:1020900004208DF8070001A91E4800F0B3FD049448
:1020A0000020ADF81400ADF81600ADF81800ADF83A
:1020B0001C000C20ADF81A000020ADF80800ADF8A7
:1020C0000A004FF40070ADF80C000020ADF80E00CF
:1020D00004A9114803F01CFF02A90F4803F09FFE5A
:1020E000012240F225510C4803F0EDFE01210A487F
:1020F00003F0A6FE25208DF8000005208DF80100D4
:1021000001208DF802008DF80300684602F032FDD0
:1021100008B010BD000801400038014070B5054608
:102120001948007800B970BD1848006880F0004474
:1021300017492046FEF7B0FA1AD31448006880F019
:10214000004414492046FEF79DFA11D30F49486810
:102150000F49FEF7A1FA0BD30C4948680D49FEF769
:1021600091FA05D30C4948680C49FEF795FA08D254
:102170000020054908700220094988704FF49670C4
:10218000088000BFCFE70000540300203003002088
:102190000000F0410000F0C160030020000048444E
:1021A0008000002000BFFEE770B506460C461546CD
:1021B0002946204605F00AF9A06A306029463046D3
:1021C00005F004F970BD21B1026842F0010202601D
:1021D00004E002684FF6FE731A4002607047000088
:1021E00001684FF6FE7211400160002101604160FC
:1021F0008160C1604B49884208D14A490839496821
:1022000041F00F01474A083A51608AE045491431CC
:10221000884208D143490839496841F0F001414AF0
:10222000083A51607DE03F492831884208D13D4954
:102230000839496841F470613A4A083A516070E0DF
:1022400038493C31884208D136490839496841F457
:102250007041344A083A516063E032495031884253
:1022600008D130490839496841F470212D4A083AAB
:10227000516056E02B496431884208D12949083918
:10228000496841F47001274A083A516049E02549FC
:102290007831884208D123490839496841F0706192
:1022A000204A083A51603CE01F49884206D1011F8C
:1022B000096841F00F01021F116032E01A49143120
:1022C000884208D11849091F096841F0F001164AEF
:1022D000121F116025E014492831884208D11249A3
:1022E000091F096841F470610F4A121F116018E05C
:1022F0000D493C31884208D10B49091F096841F456
:102300007041094A121F11600BE0074950318842A1
:1023100007D10549091F096841F47021024A121FBB
:1023200011607047080002400804024010B5002206
:10233000026847F6F0739A430C6A8B6823430C6972
:1023400023434C6923438C692343CC6923434C6A60
:1023500023438C6A23431A430260CB6843600B68B3
:1023600083604B68C36010BD704700002DE9F041E9
:1023700005F0A0FA05F0D6FA1D49086005F064FAE8
:1023800005F0D6F91B490860084601681A48FDF7B0
:102390003FFF04461949FDF773FF194908601548C6
:1023A00001681548FDF734FF07461649FDF736FF6B
:1023B00006461549FDF732FF0446114801681348E7
:1023C000FDF72CFF07460E4801683846FDF726FF4B
:1023D00006460B4801683046FDF720FF05462146BA
:1023E000FDF7C4FE0A49086008460068BDE8F081B0
:1023F00004010020080100200044C54700007A4481
:10240000FC000020EC51B83D0000C84285EB513F74
:102410000001002010B526480078264908700020E9
:102420002349087024480078244908700020224974
:10243000087023480078234908700020204908705C
:10244000214800782149087000201F4908701D4864
:1024500000780A2803DD00201D49087005E00020EF
:102460001C49087001201A490870184800780A2889
:1024700003DD00201849087002E0012016490870A9
:1024800016480078012801D104F0D6FE0020144936
:102490000860002409E0134850F824001049096836
:1024A00008440F490860601CC4B2062CF3DB10BD61
:1024B00094000020930000205B0200205A020020BC
:1024C000F3000020F2000020F7000020F6000020BA
:1024D000F4000020F5000020F8000020C8010020D2
:1024E00024000020D002002010B501F027F80F4989
:1024F000C86002F04FFE0E4802F040FC0C4800F0AD
:1025000081F90C48FFF70AFE0A4801F025F90A2074
:1025100001F064FA064801F035F801F00FF80349BC
:10252000C968401A0149C86010BD0000D0020020EF
:10253000A69BC43B0AD7233C10B500F0FFFF05491A
:10254000086100F0FBFF03490969401A014908616D
:1025500010BD0000D002002010B500F0EFFF0849C8
:10256000086002F061F8074800F0ACF801F0B8FE2E
:1025700000F0E4FF02490968401A0149086010BDF3
:10258000D00200206F12033B10B500F0D7FF0949BD
:102590004860FFF797FCFEF751FC02F031FE064859
:1025A00001F096FE00F0CAFF02494968401A01494D
:1025B000486010BDD00200206F12833B10B500F0C0
:1025C000BDFF0849486102F019FB00F027F803F04D
:1025D00017FD00F0B3FF03494969401A01494861FA
:1025E00010BD0000D002002010B500F0A7FF074981
:1025F0008860074A0749084800F0E0FB00F09EFFAA
:1026000002498968401A0149886010BDD002002043
:10261000A69BC43B30030020240300200020214956
:1026200008802148007820B90846008840F0010061
:1026300008801E48007828B91A48008840F0020037
:10264000184908801A48007828B91648008840F0D0
:102650000400144908801748007828B11148008800
:1026600040F008000F4908801348007828B90D4849
:10267000008840F010000B490880104800780128BD
:1026800005D10848008840F02000064908800C4821
:10269000007828B90348008840F0400001490880CC
:1026A00070470000C401002090000020920000202C
:1026B00091000020F1000020F400002084000020A0
:1026C000F800002070B5044642480078012806D082
:1026D0000B280BD01F2817D0FF286FD165E03E488C
:1026E000007810B10B203B4908706BE008213B4893
:1026F00004F056FE00203A49486208603949886073
:102700001F20344908705DE03749B1F90600FDF734
:102710000EFF0546354801682846FDF77FFD344920
:1027200048623149B1F90800FDF701FF05462F481D
:1027300001682846FDF772FD2E4948622A49B1F921
:102740000A00FDF7F4FE0546284801682846FDF713
:1027500065FD294948622348406828494862214864
:102760000068274948621F4880681D494862214621
:10277000234804F02BFE2248806A1D490860214648
:102780001B4804F023FE21461C4804F01FFE1B4892
:10279000806A184908602146164804F017FE224650
:1027A0000F491548FFF700FD0CE008210B4804F025
:1027B000F7FD01200749087004E0FFE7FF20054905
:1027C000087000BF00BF0448007810B9FF2001491D
:1027D000087070BD4802002054030020E40100206E
:1027E000F005002030030020240300203C7C00087A
:1027F00070030020F003002070040020F00400208B
:102800007005002070B5044696253248407E0128A8
:1028100057D131480068052853D92F480068B0F5D2
:10282000C87F4ED22D480088D8B92D48C06C2D499C
:10283000486221462B4804F0C9FD2A49886A2A4982
:10284000FDF720FF01D2284809E02649886A274978
:10285000FDF722FF01D2254801E02248806A244981
:10286000086024480088D8B91D48806C2249486215
:102870002146214804F0AAFD1F49886A1A49FDF73C
:1028800001FF01D2184809E01B49886A1749FDF782
:1028900003FF01D2154801E01748806A1749086014
:1028A0000F48C06C124948622146114804F08EFD61
:1028B0000B48806C114948622146104804F086FD9F
:1028C00007E0002003498860C8600C498862084915
:1028D000886270BDF00D0020180200202C0200203C
:1028E000140E0020F007002000007AC400007A4493
:1028F000F00800202A020020700700207008002045
:1029000070B5044600256048007820B1012814D035
:1029100002287DD123E0FE2C0BD101205A490870FA
:102920005A4801780078401C584A1070584844545E
:1029300002E0002054490870A4E0042C0BD10220CE
:1029400051490870514801780078401C4F4A107076
:102950004F48445402E000204B49087092E04B4835
:1029600001780078401C494A107049484454104688
:1029700000780B287FD10020434908701146087069
:10298000434880784249C978084441490979084454
:102990003F49497908443E49897908443C49C97905
:1029A0000844C5B2AA2C66D13948007AA84262D13F
:1029B00038480078401C374908703549C978090201
:1029C00009B2334A927841EA0200FDF7B0FD32497C
:1029D00008602F494979090209B22D4A127941EA62
:1029E0000200FDF7A4FD2C4948602948407A08768A
:1029F0002749C979090209B2254A927941EA0200B8
:102A0000FDF795FD2449C8610A461168906800E009
:102A100032E0FDF7ABFB204988600A465168D06878
:102A2000FDF7A4FB1C49C8600A4611681069FDF750
:102A30009DFB194908610A4651685069FDF796FBEC
:102A4000154948610846007E19280EDA13480078B7
:102A5000401C12490870084600783C280BDD3C20D9
:102A6000087000200C49487605E000200B490870EA
:102A700001200949487605E0002003490870034910
:102A8000087000BF00BF70BDA1010020A0010020A0
:102A9000740E0020F7000020F00D0020A20100209D
:102AA0002DE9F0474FF0824A4A48407E01286ED116
:102AB0004948006805286AD947480068B0F5C87FCA
:102AC00065D24649498840F2DC52501AFDF72FFD85
:102AD00005464349FDF7A2FB04465146FDF79EFB20
:102AE000404908603D49098840F2DC52501AFDF720
:102AF0001EFD05463A49FDF791FB04465146FDF798
:102B00008DFB394908603749886AFDF75CFD8046CE
:102B1000364A374BFDF799FC06460022354BFDF748
:102B200065FD02D2002033491AE02E49886AFDF77C
:102B30004AFD80462D4A2E4BFDF787FC06460022B3
:102B40002D4BFDF76BFD02D200202B4908E02549F3
:102B5000886AFDF738FD0646244A254BFDF775FCCB
:102B60000446FDF773FD254908601F49886AFDF793
:102B70002AFD06461D4A1E4BFDF767FC80460022D3
:102B80001C4BFDF733FD03D200201A491BE01FE068
:102B90001549886AFDF717FD0646144A144BFDF7E0
:102BA00054FC80460022144BFDF738FD02D2002071
:102BB000114908E00C49886AFDF705FD06460B4AF5
:102BC0000B4BFDF742FC0446FDF740FD0C49086045
:102BD000BDE8F087F00D0020180200203C03002023
:102BE0008FC2753D70080020F00800209A999999CD
:102BF0009999B93F00002EC000002E40F00400203B
:102C0000700500202DE9F041024600250026002035
:102C100000230024002791F803C00CF00F0591F861
:102C200003C00CF0100CBCF1000F03D091F802C0EF
:102C30004CEA050591F800C0BCF1000F31D01468D2
:102C400000202BE04FF0010C0CFA00F3B1F800C0AB
:102C50000CEA03069E4220D183004FF00F0C0CFAC1
:102C600003F7BC4305FA03FC4CEA040491F803C0E3
:102C7000BCF1280F06D14FF0010C0CFA00FCC2F891
:102C800014C00AE091F803C0BCF1480F05D14FF021
:102C9000010C0CFA00FCC2F810C0401C0828D1D36B
:102CA0001460B1F800C0BCF1FF0F34DD546800209F
:102CB0002EE000F1080C4FF0010808FA0CF3B1F80F
:102CC00000C00CEA03069E4221D183004FF00F0C96
:102CD0000CFA03F7BC4305FA03FC4CEA040491F830
:102CE00003C0BCF1280F05D100F1080C08FA0CF85C
:102CF000C2F8148091F803C0BCF1480F07D100F16D
:102D0000080C4FF0010808FA0CF8C2F81080401CBB
:102D10000828CED35460BDE8F0810000F0B50A4623
:102D2000002300240021002500F00046B6F1004FEA
:102D300002D11D4EF16901E01B4E7168C0F30345DD
:102D400083B200F44016B6F5401F08D121F070613F
:102D5000154E766826F07066134F7E6012E000F420
:102D60008016B6F5801F06D1032606FA05F4A143A6
:102D700041F0706106E0460D360103FA06F6B143F4
:102D800041F0706122B1460D360103FA06F6314377
:102D900000F00046B6F1004F02D1034EF16101E0B0
:102DA000014E7160F0BD00000000014001617047FC
:102DB00001480068704700006C02002007B59EB013
:102DC0004FF07C512098FDF729FA0C90FE4880685E
:102DD0000890FD48006807900899FDF71FFA0A90CF
:102DE000F948C0680890F848406807900899FDF7CE
:102DF00015FA09900A99FDF70BFA4FF080410B90F4
:102E0000FDF70CFA1B90F048C0680890EE48806807
:102E100007900899FDF702FA0A90EB48406808907D
:102E2000E948006807900899FDF7F8F909900A99B0
:102E3000FDF79CF94FF080410B90FDF7EFF91C90E6
:102E4000E14880680790E048806806900799FDF7A0
:102E5000E5F90990DC4840680790DB484068069037
:102E60000799FDF7DBF908900999FDF77FF94FF015
:102E700080410A90FDF7D2F94FF07E510B90FDF79B
:102E8000CAF91D90D148B0F904000690FDF74FFB38
:102E90000890CE48B0F904000690FDF748FB079073
:102EA0000899FDF7BBF90A90C848B0F902000490F0
:102EB000FDF73DFB0690C548B0F902000490FDF710
:102EC00036FB05900699FDF7A9F90890BF48B0F9BF
:102ED00000000490FDF72BFB0690BC48B0F9000001
:102EE0000490FDF724FB05900699FDF797F90790EC
:102EF0000899FDF73BF909900A99FDF737F90B900E
:102F000002F07AF80D901E98B0F900000A90FDF7D3
:102F10000EFB0B900D99FDF781F918901E98B0F9F2
:102F200002000A90FDF703FB0B900D99FDF776F96F
:102F300019901E98B0F904000A90FDF7F8FA0B906A
:102F40000D99FDF76BF91A901C9809901A98089042
:102F50000999FDF763F90B901D980990199808904D
:102F60000999FDF75BF90A900B99FDF751F9129059
:102F70001D980990189808900999FDF74FF90B9042
:102F80001B9809901A9808900999FDF747F90A903B
:102F90000B99FDF73DF913901B980990199808902B
:102FA0000999FDF73BF90B901C9809901898089027
:102FB0000999FDF733F90A900B99FDF729F9149057
:102FC00012980A90824801680A98FDF727F90B9039
:102FD0008048006801460A900B98FDF7C7F87D49C4
:102FE000086013980A907A4801680A98FDF716F964
:102FF0000B907848406801460A900B98FDF7B6F8A8
:103000007449486014980A90714801680A98FDF75D
:1030100005F90B906F48806801460A900B98FDF700
:10302000A5F86C4988601298014608906A480068C3
:10303000FDF7F4F80A901E98B0F906000790FDF726
:1030400076FA0890654801680898FDF7E7F8099056
:103050000A99FDF78BF80B905E48006801460A90CC
:103060000B98FDF783F815901398014608905A487D
:103070000068FDF7D3F80A901E98B0F90800079091
:10308000FDF755FA0890554801680898FDF7C6F80D
:1030900009900A99FDF76AF80B904E48406801467E
:1030A0000A900B98FDF762F8169014980146089064
:1030B00049480068FDF7B2F80A901E98B0F90A0076
:1030C0000790FDF734FA0890444801680898FDF726
:1030D000A5F809900A99FDF749F80B903D488068DA
:1030E00001460A900B98FDF741F817901798089041
:1030F0003548C06807900899FDF790F80A9016982F
:1031000006903148806805900699FDF787F8089089
:103110002D48406880F000400690159801460590C3
:103120000698FDF77BF807900899FDF771F809906C
:103130000A99FDF76DF80B900C99FDF76FF8119057
:10314000179808902048806807900899FDF766F85E
:103150000A90169806901C48C06805900699FDF7DD
:103160005DF8089015980690174800680590069934
:10317000FDF754F807900899FDF74AF809900A9965
:10318000FCF7F4FF0B900C99FDF748F81090179896
:1031900008900D48406807900899FDF73FF80A909D
:1031A000169806900848006805900699FDF736F8CD
:1031B0000890159806900448C06805900699FDF798
:1031C0002DF8079008990BE07802002024030020D6
:1031D00074020020C810002070020020407C00080B
:1031E000FCF7C4FF09900A99FDF712F80B900C99AF
:1031F000FDF714F80F9017980890C64800680790DC
:103200000899FDF70BF80A9016980690C148406897
:1032100005900699FDF702F80890BE48806880F096
:10322000004006901598014605900698FCF7F6FFB9
:1032300007900899FCF79AFF09900A99FCF796FF06
:103240000B900C99FCF7EAFF0E90B24800680B90C7
:103250001199FCF78BFFAF490860084640680B9056
:103260001099FCF783FFAB494860084680680B90D3
:103270000F99FCF77BFFA74988600846C0680B9050
:103280000E99FCF773FFA349C8600846C068089010
:103290000846C06807900899FCF7C0FF0A909D484F
:1032A000806806909B48806805900699FCF7B6FFF9
:1032B00008909848406804909648406803900499A4
:1032C000FCF7ACFF069093480068049091480068B2
:1032D00003900499FCF7A2FF05900699FCF746FFBE
:1032E00007900899FCF742FF09900A99FCF73EFF06
:1032F0000B9001F081FE0D90864800680B900D99AF
:10330000FCF78CFF83490860084640680B900D99D4
:10331000FCF784FF7F494860084680680B900D9950
:10332000FCF77CFF7B4988600846C0680B900D99CC
:10333000FCF774FF7749C86008464068014604906E
:103340004FF08040FCF76AFF05907248C068014664
:1033500004900598FCF762FF07906E4800680146EC
:1033600004904FF08040FCF759FF05906948806851
:10337000014604900598FCF751FF06900799FCF769
:1033800047FF0B9063480068014604904FF080406F
:10339000FCF744FF05905F4840680146049005989B
:1033A000FCF73CFF07905B488068014604904FF0B3
:1033B0008040FCF733FF05905648C06801460490F2
:1033C0000598FCF72BFF06900799FCF7CFFE0A90B3
:1033D00050488068014604904FF08040FCF71EFF83
:1033E00005904C488068014604900598FCF716FF4C
:1033F000079048484068014603904FF08040FCF732
:103400000DFF049043484068014603900498FCF780
:1034100005FF4FF07E510590FCF7FDFE06900799E1
:10342000FCF7F6FE09901E98B0F90A000690FDF729
:103430007EF80790384801680798FCF7EFFE08907F
:103440004FF07E510898FDF727F904D333490898C7
:10345000FDF718F90DD220990898FCF7DFFE0790C8
:103460001F988068014606900798FCF77FFE1F9919
:1034700088602B480068FDF7A6F8CDE904010B9899
:10348000FDF7A1F8CDE9000103F03EFBCDE9020113
:10349000DDE90423FCF7D9FFCDE90601FDF7D6F8F5
:1034A0001F994860DDE9091003F066FC07901C488D
:1034B00001680798FCF7B2FE1F9908601E98B0F9E2
:1034C00004000490FDF733F805900999FCF7A6FE77
:1034D00007901E98B0F902000290FDF728F80390BB
:1034E0000A99FCF79BFE05901E98B0F90000029027
:1034F000FDF71DF803900B99FCF790FE04900599D9
:10350000FCF734FE06900799FCF730FE0549086089
:1035100021B000BD780200203C7C0008000080BF84
:10352000347C00086C0200200248006802490860F0
:1035300070470000E8F7FF1F3800002000BF0E486A
:1035400001684FF0E02082690B4800688142F6D1A3
:103550000A48006800EB4003C3EBC010C2EBC00098
:10356000064B1B68B0FBF3F001EB4103C3EBC11347
:1035700000EBC300704700002C0000201400002066
:1035800000BFFEE72DE9F05F05465E49C8695E4968
:10359000FDF778F806D25B49C869FDF700F85B498A
:1035A000086005E05A494868FCF7F9FF5749086088
:1035B000FFF7FEFB0746FCF7D9FF04B25548007839
:1035C00008B95548048054480088201A06B24F486C
:1035D0000068FCF7B5FF8346504801685846FCF781
:1035E00017FE82464E49FCF719FE81462946FCF734
:1035F00047FE07463046FCF79AFF83462946FCF70C
:103600000DFE82464748416A5046FCF7AFFD8146B1
:103610004549FCF703FE80463946FCF7A7FD4149C2
:1036200048623A480068FCF78BFF404948623B49D2
:1036300008603848007810B9FF203D4908703C48C0
:103640000078012806D0022816D01F2832D0FF2883
:1036500050D147E02F48007A00F0010058B12D48C2
:10366000007840B105203349887002203049087045
:1036700000203149086041E030498988A1F57A701D
:10368000FCF755FF2C49086000202D4908702D4893
:10369000B0F90000FCF74BFF244908602A48C06CD1
:1036A0002A4908602848806C294908601F20204961
:1036B000087023E029461D4803F088FE1B48806AF5
:1036C000184908602946174803F080FE1148007A1F
:1036D00000F0010028B9002016498870FF20144925
:1036E00008700BE001211B4803F05AFE012010492D
:1036F000087003E001200E49087000BF00BFBDE85C
:10370000F09F0000F00D00200000C84318020020C8
:1037100060030020540300203802002044020020EF
:103720000AD7A33C7006002048E17A3FF00600204B
:1037300036020020800000203C0200203C030020D4
:103740004002002014020020140E0020F007002088
:1037500070070020FC0100202DE9F84F0446904836
:10376000007808B9BDE8F88F8E48007888B100204D
:103770008D4908608D490860FEF7F8FD0546FCF7A5
:10378000F5FE8B49086000F0B3F900208549087008
:103790002AE087480068FCF7CAFE0646FEF7E6FD09
:1037A00007463146FCF734FD0546FCF7DFFE7E494F
:1037B000086000212046FCF765FF01D100200AE0E7
:1037C00079490968794A1268881AFCF7B0FE0646FA
:1037D0002146FCF755FD0546FCF7C8FE7549086013
:1037E000714800687149086072480068FCF79FFEE4
:1037F000054671482B46714A0A210090704800F036
:10380000C1FE70492046FCF709FD06466E48006877
:10381000FCF78DFE0746684801683846FCF7FBFC5C
:1038200005463146FCF72EFF04D266492046FCF7D8
:10383000F5FC22E065492046FCF7F0FC06466248AC
:103840000068FCF774FE07465B4801683846FCF7E1
:10385000E2FC05463146FCF71FFF04D25B492046D7
:10386000FCF7DCFC09E058480068FCF760FE054600
:10387000514801682846FCF7CEFC55490860554878
:10388000016853480068FCF7C3FC81465249204652
:10389000FCF7C4FC824651464FF07E50FCF7F0FC2A
:1038A00080464FF07E51FCF761FC074639464FF0E9
:1038B0007E50FCF7E5FC06464946FCF7AFFC0546A2
:1038C000444801682846FCF751FC424908603F49DA
:1038D0002046FCF7A3FC834600213E480068FCF725
:1038E000DBFE02D23B48006803E03A48006880F003
:1038F000004081465946FCF7C3FC07460021FCF70F
:10390000C1FE01D2002034E030492046FCF786FC9D
:10391000834600212F480068FCF7BEFE02D22D48E6
:10392000006803E02B48006880F00040814659465B
:10393000FCF7A6FC07464FF07E51FCF7ADFE02D225
:103940004FF07E5015E021492046FCF767FC814688
:10395000002120480068FCF79FFE02D21D48006845
:1039600003E01C48006880F0004007464946FCF729
:1039700087FC8046164801684046FCF74FFC064627
:1039800011480068FCF7D3FD82463146FCF7EEFB98
:103990000546FCF7EBFD0C49086000BFE2E60000BD
:1039A00030000020300100200C0100201001002018
:1039B0001401002018010020200100202401002013
:1039C0000C0D00200000FAC41C0100200000FA4485
:1039D000280100202C010020C3F5484070B50446A2
:1039E0003248007800B970BD3148007800284AD0CC
:1039F0003048006830490860304800683049086045
:103A0000304831498860314988683149FCF738FCD1
:103A10002D4908602A480068FCF789FD2A4948605A
:103A20002C48C8602046FCF78BFD06462A49FCF767
:103A3000F5FB0546244903F0F7FA22482749886038
:103A40002148406908601C480068FCF770FD234964
:103A500048602348C8602046FCF772FD06461E49B0
:103A6000FCF7DCFB05461D4903F0DEFA114800684F
:103A7000FCF75DFD1B49C860184840694860124862
:103A8000406988600FE018480088401C164908808B
:103A900008460088C82803DD01200549087002E0B7
:103AA00001201249087000BF9DE70000300000208F
:103AB0004C0100200C010020340100201C010020DA
:103AC00038010020CDCC4C3F4C0D002030030020AD
:103AD00000002041000048436F12833A340D00205B
:103AE0000000C8426003002098010020300100203F
:103AF0000020034948610861024948610861704734
:103B00004C0D0020340D002008B5402030490860DD
:103B10000120009004E09DF80000401EC0B200901B
:103B20009DF800000028F6D1802029490860012076
:103B3000009004E09DF80000401EC0B200909DF887
:103B400000000028F6D140202149091F086001200B
:103B5000009004E09DF80000401EC0B200909DF867
:103B600000000028F6D10120009004E09DF800003C
:103B7000401EC0B200909DF800000028F6D1012040
:103B8000009004E09DF80000401EC0B200909DF837
:103B900000000028F6D10120009004E09DF800000C
:103BA000401EC0B200909DF800000028F6D14020D1
:103BB000074908600120009004E09DF80000401EC5
:103BC000C0B200909DF800000028F6D108BD0000AA
:103BD000140C014008B540203049086001200090D5
:103BE00004E09DF80000401EC0B200909DF8000067
:103BF0000028F6D180202949091F08600120009083
:103C000004E09DF80000401EC0B200909DF8000046
:103C10000028F6D140202149091F086001200090AA
:103C200004E09DF80000401EC0B200909DF8000026
:103C30000028F6D10120009004E09DF80000401E0D
:103C4000C0B200909DF800000028F6D1012000903D
:103C500004E09DF80000401EC0B200909DF80000F6
:103C60000028F6D10120009004E09DF80000401EDD
:103C7000C0B200909DF800000028F6D1402007490E
:103C800008600120009004E09DF80000401EC0B2D2
:103C900000909DF800000028F6D108BD140C0140EA
:103CA00008B50821002080222C4B1A604CE0420607
:103CB000100E4022294B1B1D1A600122009204E0C5
:103CC0009DF80020521ED2B200929DF80020002ADA
:103CD000F6D10122009204E09DF80020521ED2B2DB
:103CE00000929DF80020002AF6D140221B4B1A605A
:103CF0000122009204E09DF80020521ED2B20092F0
:103D00009DF80020002AF6D10122009204E09DF8DF
:103D10000020521ED2B200929DF80020002AF6D157
:103D20000122009204E09DF80020521ED2B20092BF
:103D30009DF80020002AF6D1084A083A126802F0DD
:103D400080020AB140F001000A1EA1F10103D9B2BC
:103D5000ADD14022014B1B1D1A6008BD100C014063
:103D600008B5082150E040222C4B1A600122009235
:103D700004E09DF80020521ED2B200929DF800206F
:103D8000002AF6D100F0800222B18022234B1B1FB3
:103D90001A6002E08022214B1A604206100E0122B6
:103DA000009204E09DF80020521ED2B200929DF8CD
:103DB0000020002AF6D14022184B1B1F1A60012256
:103DC000009204E09DF80020521ED2B200929DF8AD
:103DD0000020002AF6D10122009204E09DF8002084
:103DE000521ED2B200929DF80020002AF6D1012284
:103DF000009204E09DF80020521ED2B200929DF87D
:103E00000020002AF6D100BF0A1EA1F10103D9B299
:103E1000A9D14022014B1A6008BD0000140C0140DA
:103E200008B58020224908604020086001200090E9
:103E300004E09DF80000401EC0B200909DF8000014
:103E40000028F6D11A480838006808B9012000E0B7
:103E5000002000F0800008B1012008BD8020144936
:103E6000091D08600120009004E09DF80000401E3C
:103E7000C0B200909DF800000028F6D10C48083828
:103E8000006800F0800008B10120E6E74020084902
:103E9000091D08600120009004E09DF80000401E0C
:103EA000C0B200909DF800000028F6D100BFD4E712
:103EB000100C014008B54020244908600120009002
:103EC00004E09DF80000401EC0B200909DF8000084
:103ED0000028F6D180201D4908600120009004E0F0
:103EE0009DF80000401EC0B200909DF80000002820
:103EF000F6D10120009004E09DF80000401EC0B201
:103F000000909DF800000028F6D140200F49091FBD
:103F100008600120009004E09DF80000401EC0B23F
:103F200000909DF800000028F6D180200749091F65
:103F300008600120009004E09DF80000401EC0B21F
:103F400000909DF800000028F6D108BD140C014037
:103F500008B540202A4908600120009004E09DF83F
:103F60000000401EC0B200909DF800000028F6D16D
:103F700080202349091F08600120009004E09DF87B
:103F80000000401EC0B200909DF800000028F6D14D
:103F900040201B49091F08600120009004E09DF8A3
:103FA0000000401EC0B200909DF800000028F6D12D
:103FB0000120009004E09DF80000401EC0B2009077
:103FC0009DF800000028F6D10120009004E09DF843
:103FD0000000401EC0B200909DF800000028F6D1FD
:103FE00007480C38006800F0800020B140200449E8
:103FF0000860012008BD4020014908600020F9E761
:10400000140C014008B50121082001F049F8C02036
:10401000ADF8000003208DF8020014208DF8030095
:1040200069460248FEF7EEFD08BD0000000C0140A5
:1040300070B504460D461646FFF7F2FE012800D182
:1040400070BDE0B2FFF78CFEFFF782FF012803D1BD
:10405000FFF730FF0120F3E7E8B2FFF781FEFFF73B
:1040600077FFFFF7DDFE611CC8B2FFF779FEFFF7AF
:104070006FFFFFF715FE40B23070FFF71BFF002007
:10408000DEE770B504460D460026FFF7C9FE01289D
:1040900000D170BD2046FFF763FEFFF759FF0128EE
:1040A00003D1FFF707FF0120F3E72846FFF758FE8B
:1040B000FFF74EFFFFF7FEFEFFF7B2FE611CC8B22E
:1040C000FFF74EFEFFF744FF012803D1FFF7F2FE92
:1040D0000120DEE7FFF7E4FD0646FFF77BFDFFF773
:1040E000E9FE70B2D5E770B506460C461546FFF7F7
:1040F00097FE012800D170BD3046FFF731FEFFF773
:1041000027FF012803D1FFF7D5FE0120F3E7204662
:10411000FFF726FEFFF71CFF2846FFF721FEFFF7FB
:1041200017FFFFF7C7FE0020E5E72DE9F04106463F
:104130000F4615461C46FFF773FE012801D1BDE866
:10414000F0813046FFF70CFEFFF702FF012803D194
:10415000FFF7B0FE0120F2E73846FFF701FEFFF758
:10416000F7FEFFF7A7FEFFF75BFE711CC8B2FFF773
:10417000F7FDFFF7EDFE012803D1FFF79BFE0120BD
:10418000DDE70CE0FFF78CFD2870012C02D1FFF772
:1041900021FD01E0FFF7B8FC6D1C601EC4B2002CCD
:1041A000F0D1FFF787FE0020C9E700004CF6CC40B5
:1041B00001490860704700000030004010B500F071
:1041C00013F810BD70B505460C4645F2555000F089
:1041D0001FF8284600F010F8204600F013F800F011
:1041E00003F8FFF7E3FF70BD4AF6AA200149086013
:1041F00070470000003000400149486070470000EF
:1042000000300040014988607047000000300040E5
:1042100001490860704700000030004008B54FF0C9
:1042200000700C4948600121092000F039FF01218C
:104230000948FEF773FD40F20A30ADF80000102087
:104240008DF8030003208DF8020069460348FEF74D
:10425000D9FC08BD0000014000023000000C014004
:1042600019488088401C00B2174988800846C088D9
:10427000401C00B2C88008460089401C00B208817A
:1042800008464089401C00B2488108468089401C8D
:1042900000B288810846C089401C00B2C881084627
:1042A000008A401C00B2088208460078012804DB1E
:1042B00008464088401C488004E003480078401CC1
:1042C0000149087070470000BC02002000BFFEE7F3
:1042D00070B50546014CFEF7E3FB70BD0AD7233DE0
:1042E0002DE9F0479E48007810B9FF209D490870DD
:1042F0009C480078012806D0022811D01F2819D028
:10430000FF287DD1C6E000209749C880888048807A
:1043100008809348007810B102209249087000BFCD
:104320009248808840F24C41884202DD1F208D492E
:104330000870BAE08A48007A00F0010080B18B4929
:104340008988A1F57A70FCF7F2F806468848816AF8
:104350003046FBF70BFF0546FCF708F904B204E012
:1043600082488088A0F57A7004B280488088B0F5D1
:104370007F7F06DA00207C49C880888048800880DA
:1043800093E0002C01DA002006E0B4F5617F02DD45
:104390004FF4617000E020467349C88088804880EF
:1043A0000880744A916A744A906AFBF731FF80462C
:1043B0007248816A4046FBF72BFF06466A49B1F90D
:1043C0000000FCF7B4F807463146FBF7CFFE054680
:1043D000FCF7CCF800B264490880664A916A664AE4
:1043E000906AFBF7C3FE80466448816A4046FBF74B
:1043F000BDFE06465C49B1F90200FCF798F800E002
:1044000052E007463146FBF7B1FE0546FCF7AEF831
:1044100000B2554948805848806A80F000485548A5
:10442000816A4046FBF7A2FE07465448816A384637
:10443000FBF7EEFE06464C49B1F90400FCF777F8AD
:1044400081463146FBF792FE0546FCF78FF800B235
:10445000454988804848806A80F000484548816A1C
:104460004046FBF7D5FE07464448816A3846FBF7CD
:104470007DFE06463C49B1F90600FCF758F8814636
:104480003146FBF773FE0546FCF770F800B236497B
:10449000C8800AE000203449C880888048800880AD
:1044A00001203049087000E000BF00BF2E48B0F97D
:1044B0000000002801DA00200BE02B48B0F90000D2
:1044C000B0F57A7F02DD4FF47A7002E02648B0F949
:1044D00000004FF0804188862348B0F90200002890
:1044E00001DA00200BE02048B0F90200B0F57A7F35
:1044F00002DD4FF47A7002E01B48B0F902004FF081
:10450000804108871848B0F90400002801DA00202B
:104510000BE01548B0F90400B0F57A7F02DD4FF4E6
:104520007A7002E01048B0F90400154908800E487E
:10453000B0F90600002801DA00200BE00A48B0F9C3
:104540000600B0F57A7F02DD4FF47A7002E006488B
:10455000B0F906000A49091D0880BDE8F08700008F
:1045600054030020490200202E0200203C030020BA
:1045700070060020F003002070030020700400206B
:10458000340400402DE9FC5F06460F461546984668
:104590000C9CB9462888401C80B22880484501DB25
:1045A00000202880288856F820A0288846F82080F7
:1045B0004846FBF7C5FF514601904046FBF728FEF1
:1045C00000900199FBF75CFE83462168FBF7CEFD66
:1045D000206040462168FBF71BFE11490090FCF764
:1045E00051F801D20E4810E040462168FBF710FE5A
:1045F0004FF07E510090FCF74FF802D24FF07E5002
:1046000003E040462168FBF703FE06490190FBF7F3
:1046100005FE83462168FBF7A9FD2060BDE8FC9FED
:10462000000080BFACC527372DE9FE4F06236A4640
:104630003B21D020FFF779FD06230DF1060243212F
:10464000D020FFF772FD002458E0012000EB440069
:104650001DF800001DF8141040EA0120294931F826
:104660001410401A00B22849096821F81400032CDC
:104670001BDA2549096831F91400FBF758FF054694
:1046800004EB4401214A02EBC100294602F014FD6B
:1046900004EB44011D4A02EBC1018868FBF766FF89
:1046A00000B21949096821F81400022C24DDE01E2B
:1046B000C5B2DFF85C801449096831F91400FBF7D2
:1046C00036FF82464146FBF7A9FD0746114951F8DE
:1046D00025001149FBF7A2FD81463946FBF746FD4F
:1046E0000C4941F825000646FBF740FF00B2064999
:1046F000096821F8140000BF601CC4B2062CA4DBBA
:10470000BDE8FE8FC80C0020A0000020A4000020FF
:104710009A99193ED40C00209A99593FF0B58BB064
:10472000182105A8FBF717FD1E2505267742002056
:1047300003900490404800210160416081604FF483
:1047400000503D498880002201213C4800F0CCFF08
:104750003BE000BF0A2002F04FFCFFF765FF00249A
:1047600016E037480168E01C31F8100003A931F861
:104770001410401A00B201A921F814003048016851
:10478000E01C31F8100003A921F81400601C04B2E9
:10479000032CE6DBBDF904000528DBDCBDF90400D1
:1047A00010F1050FD6DBBDF906000528D2DCBDF9F6
:1047B000060010F1050FCDDBBDF908000528C9DCA6
:1047C000BDF9080010F1050FC4DB281EA5F1010199
:1047D000CDB2BED1002417E0FFF726FF642C11DB19
:1047E00000200CE005A951F82010154A126832F992
:1047F0001020114405AA42F82010411CC8B2062816
:10480000F0DB00BF601C04B2B4F5B27FE4DB00242F
:1048100009E005A850F82400001200B2064921F86A
:104820001400601C04B2062CF3DB0122114603487D
:1048300000F05AFF0BB0F0BDC80C0020000400408F
:10484000A000002010B500244FF400702549086036
:10485000401008600220091F08600820086000BF9F
:1048600080226B21D020FFF73EFCC4B21E2002F054
:10487000C3FB02221921D020FFF735FC2044C4B22B
:1048800003226B21D020FFF72EFC2044C4B2032268
:104890001A21D020FFF727FC2044C4B218221B2184
:1048A000D020FFF720FC2044C4B209221C21D020D4
:1048B000FFF719FC2044C4B201200B490870002CFA
:1048C000CED17521D020FFF7DCFBC4B2682C01D01B
:1048D000012010BDFFF722FF00200349087000BF30
:1048E000F7E70000140C0140900000207047000022
:1048F0001FB510A103C9CDE90201052202A930208C
:1049000000F09CF805226946102000F05FF80024B2
:1049100006E01DF80400A52800D003E0601CC4B226
:10492000052CF6DB00BF052C02D0012004B010BD21
:104930000020FBE7A5A5A5A5A500000008B501215D
:104940000C2000F0ADFB4FF48070ADF8000010209B
:104950008DF8030003208DF8020069461948FEF720
:1049600051F94FF48050ADF8000010208DF803008D
:1049700003208DF8020069461348FEF743F94FF40F
:10498000807010491031086000010F491031086033
:104990000420ADF8000048208DF8030003208DF8B6
:1049A000020069460848FEF72DF900F03DFC4FF47F
:1049B0008070044914310860000103491031086017
:1049C00008BD000000080140000C01402DE9F04145
:1049D00007460D4616464FF480500C49086038468D
:1049E00000F098FC8046002405E0FF2000F092FCD7
:1049F0002855601CC4B2B442F7DB4FF48050034921
:104A0000091F08604046BDE8F0810000140C014019
:104A100070B504464FF4805007490860204600F006
:104A200079FCFF2000F076FC05464FF480500249E7
:104A3000091F0860284670BD140C01402DE9F041A3
:104A400007460C4615464FF480500C49086038461E
:104A500000F060FC8046002605E014F8010B00F031
:104A600059FC701CC6B2AE42F7DB4FF480500349CC
:104A7000091F08604046BDE8F0810000140C0140A9
:104A800070B505460C464FF480500849086028462A
:104A900000F040FC0646204600F03CFC4FF48050FD
:104AA0000249091F0860304670BD0000140C014027
:104AB00010B5FFF743FF4FF4007012490860401033
:104AC00008600220091D08600820086000BFFEF78A
:104AD0002BFD0D4800687E21B0FBF1F201FB1200B6
:104AE0000A490870084601780320FDF71BFA0120E7
:104AF00007490870FFF7FCFE0128E8D000200449B0
:104B0000087010BD100C01403800002098000020F3
:104B10009100002010B513480088401C11490880FE
:104B20000846008801280ED10F48C078401DC1B248
:104B30000D48FCF7ADFC0D480078401C0B4908708F
:104B400001200B49087007480088B0F5FA7F05DBA3
:104B500001200449088000200549087004480078B5
:104B600010BD0000960000205C0C00209400002086
:104B70009900002070B5002100230F22C47804B3EF
:104B8000154C246804F4E064C4F5E064210AC1F122
:104B90000403CA40447804FA03F1847814402143A2
:104BA00009010E4C0678A155047804F01F05012474
:104BB000AC4005786D11AD0005F1E025C5F8004168
:104BC00009E0047804F01F050124AC40044D067888
:104BD000761145F8264070BD0CED00E000E400E0E1
:104BE00080E100E002490143024A11607047000081
:104BF0000000FA050CED00E0704700005A4800681C
:104C00005A490968401A5A490988884200D27047AF
:104C100055480068554908605548807806287DD277
:104C2000DFE800F026030E32435F4FF40070514975
:104C3000086002200860000208600820086090E018
:104C40004C48001F006880F002004A49091F0860B4
:104C50000846006880F4007008600846006880F02C
:104C6000080008600846006880F48070086078E0FA
:104C70004FF400703F49091D086002200860C00120
:104C80000860082008606CE04FF400703949086043
:104C90000220091D0860C001091F08600820091DC5
:104CA00008600220324988705BE03248001F0068CB
:104CB00080F002002F49091F08600846006880F054
:104CC000080008600846006880F400700860084624
:104CD000006880F4807008604FF4487024490880B0
:104CE0003FE025480088401C23490880084600888A
:104CF0000B2801DD002008801F480088082819DDE6
:104D00001C48001F006880F400701A49091F0860E1
:104D10000846006880F48070086000E01DE00846E6
:104D2000006880F0020008600846006880F0080013
:104D300008600EE01048008807280ADA4FF4007077
:104D40000C49091D086002200860C00108600820A5
:104D5000086096200649088003E001200449887015
:104D600000BF00BF00BF52E72C00002088000020D9
:104D700080000020100C0140860000202DE9F04F3B
:104D80008DB0814692480078012802D09148407E3B
:104D900048B900208F498860C8608F49086448641A
:104DA0000DB0BDE8F08F8C4A91688A4A9068FBF795
:104DB0002FFA0990FBF707FC0746884A884BFBF758
:104DC00044FB05460E4684498868FBF7FCFB2A46EF
:104DD0003346CDE90A01FBF791FA8246FBF736FC30
:104DE0007D4988600A46D1687A4AD068FBF710FA94
:104DF0000990FBF7E8FB794A794BCDE90A01FBF70B
:104E000024FB05460E467449C868FBF7DCFB0746E1
:104E10002A463346FBF772FA8246FBF717FC6E49C7
:104E2000C8600869FBF7CFFB05460E466D48406831
:104E300080F0004B6C495846FBF7F0F98246FBF7CF
:104E4000C2FBCDE9000102F0BBFE07460022674B22
:104E5000FBF7FBFA2A463346CDE90201FBF7EFFAEE
:104E60005E4A5F4BCDE90401FBF7EFFACDE908019B
:104E700059490869FBF7A7FBCDE90601DDE90823DD
:104E8000FBF73CFACDE90A01FBF7E0FB5249086168
:104E90004869FBF798FB074688465248006880F04F
:104EA000004051490090FBF7B9F90190FBF78BFBEB
:104EB000054602F085FE00224C4BCDE90201FBF7CE
:104EC000C4FA82463A464346FBF7B9FA434A444B92
:104ED000CDE90401FBF7B9FACDE908013E4948697B
:104EE000FBF771FBCDE90601DDE90823FBF706FAC4
:104EF000CDE90A01FBF7AAFB374948610A46116967
:104F00009068FBF785F9344908620A465169D06810
:104F1000FBF77EF9304948620A46916A106AFBF74E
:104F200077F905464946FBF7ABF92B4988630846F4
:104F3000006A88620A46D16A506AFBF769F9054639
:104F40004946FBF79DF92449C8630846406AC86290
:104F50000A46116C906BFBF75BF906462449FBF798
:104F60005DF905461C48016C2846FBF7FFF81A4915
:104F700008640A46516CD06BFBF74AF906461C4997
:104F8000FBF74CF905461448416C2846FBF7EEF850
:104F900011494864174C0846C465086A2146FBF766
:104FA0003DF90D498864486A2146FBF737F90A49FB
:104FB000C864086C2146FBF731F907490865486C5D
:104FC0002146FBF72BF90449486500BFE8E60000DD
:104FD000F8000020F00D0020140E00209A999999F5
:104FE0009999C93F30030020728A8E3C00C08240EC
:104FF000CDCCCC3DAE4FDA3D2DE9F05F04464FF00D
:105000007F594FF07C512046FBF708F98246254630
:105010002E460C48A0EB6606354629465046FBF75F
:10502000FDF883462946FBF7F9F880464946FBF729
:10503000F2F807462946FBF7F1F805462846BDE891
:10504000F09F0000DF59375F01460020034A506897
:1050500020F44040084350607047000000100240B8
:1050600029B1064A52690243044B5A6104E0034ADB
:1050700052698243014B5A617047000000100240A0
:1050800029B1064AD2690243044BDA6104E0034ABB
:10509000D2698243014BDA61704700000010024080
:1050A00029B1064A92690243044B9A6104E0034A1B
:1050B00092698243014B9A617047000000100240E0
:1050C00030B500210022002400232D4D6D6805F02D
:1050D0000C0121B1042905D0082923D105E0294D6F
:1050E000056022E0274D05601FE0254D6D6805F441
:1050F0007012234D6D6805F48034022505EB924251
:105100001CB9214D554305600BE01D4D6D6805F43C
:1051100000351DB11C4D5543056002E0194D554346
:10512000056002E0174D056000BF00BF144D6D68BB
:1051300005F0F0010909154D6B5C0568DD4045601F
:105140000F4D6D6805F4E061090A104D6B5C456810
:10515000DD4085600A4D6D6805F46051C90A0B4D4C
:105160006B5C4568DD40C560054D6D6805F44041E8
:10517000890B074D6B5CC568B5FBF3F5056130BD68
:105180000010024000127A0000093D003F0000209C
:105190004F0000201448007828BB14480088401CA9
:1051A0001249088001201249087010480088B0F5A3
:1051B000FA7F18DD40F2DC500E4908804880C88034
:1051C00001200D4908700846007A20F00100401CBB
:1051D000087200200949887040F2DC500549888037
:1051E0000120014908707047C8010020CE0100204D
:1051F000300100203C0300205403002080000020E8
:1052000010B5FFF787FC08B900F06EFF10BD21B1A3
:10521000028842F04002028004E002884FF6BF7329
:105220001A4002807047000000B587B00121880352
:10523000FFF726FF01210920FFF732FF4FF48051CD
:105240001C48FDF7B3FD4FF46040ADF804000320A7
:105250008DF8060018208DF8070001A91548FDF704
:10526000D1FC00211448FFF7D2FF0020ADF8080060
:105270004FF48270ADF80A000020ADF80C00ADF8D4
:105280000E00ADF810004FF40070ADF812001020C1
:10529000ADF814000020ADF816000720ADF8180096
:1052A00002A9054800F018F801210348FFF7AFFFF5
:1052B00007B000BD000C014000380040024600204D
:1052C00013890B400BB1012000E00020704701461C
:1052D000888970478181704710B50022028802F4E6
:1052E00041520B884C8823438C882343CC8823432A
:1052F0000C8923434C8923438C892343CC89234342
:105300001A430280838B4FF2FF74234083830B8AFE
:10531000038210BD10B5044600BF02210A48FFF702
:10532000CDFF0028F9D021460748FFF7D3FF00BF83
:1053300001210548FFF7C2FF0028F9D00248FFF716
:10534000C6FFC0B210BD000000380040704710B565
:1053500000F002F810BD00000CB500200190009094
:105360003348006840F480303149086000BF30485D
:10537000006800F4003000900198401C01900098F3
:1053800018B90198B0F5A06FF1D12948006800F470
:10539000003010B10120009001E000200090009842
:1053A000012843D12348006840F0100021490860DB
:1053B0000846006820F0030008600846006840F0D6
:1053C000020008601A484068194948600846406869
:1053D00048600846406840F480604860084640687D
:1053E00020F47C1048600846406840F4E8104860AB
:1053F0000846006840F08070086000BF0C480068F4
:1054000000F000700028F9D00948406820F003003F
:10541000074948600846406840F00200486000BF05
:105420000348406800F00C000828F9D10CBD0000CA
:10543000001002400020024010B500F001F810BD3D
:1054400010B50E480068401C0C4908600C480078F4
:1054500000B910BD0B480078401C0A490870087854
:1054600000EBD0714910A0EB4101064A11701046C3
:10547000007808B1FEF7F4FE00BFEAE72C00002038
:105480001C0000201D00002010B51348006840F0EB
:1054900001001149086008464068104908400E495B
:1054A0004860084600680E4908400B4908600846F5
:1054B000006820F4802008600846406820F4FE0060
:1054C00048604FF41F008860FFF741FF4FF0006015
:1054D0000449086010BD0000001002400000FFF801
:1054E000FFFFF6FE08ED00E010B588B001210420B2
:1054F000FFF7D6FD0320ADF800008DF8020018205C
:105500008DF8030069462E48FDF77CFB0121084613
:10551000FFF7B6FD2B4800684FF47A71B0FBF1F04D
:1055200044F25061B0FBF1F0401E84B240F2E7302B
:10553000ADF81800ADF814400020ADF81A00ADF831
:10554000160005A94FF0804000F034FA6020ADF855
:1055500004000120ADF806000020ADF80A00ADF807
:105560000C0001A94FF0804000F0C8F80821C806DF
:1055700000F010F901A94FF0804000F015F9082162
:10558000C80600F063F901A94FF0804000F06CF903
:105590000821C80600F0B8F901A94FF0804000F0DA
:1055A000BDF90821C80600F0F7F90121880700F0CD
:1055B00083F80121880700F08BF808B010BD0000C7
:1055C000000801400000002010B588B00121022031
:1055D000FFF756FD01210820FFF762FD0121084673
:1055E000FFF75EFD01213048FDF798FB3020ADF854
:1055F000000003208DF8020018208DF80300694692
:105600002A48FDF7FFFA2A4800684FF47A71B0FB88
:10561000F1F044F25061B0FBF1F0401E84B240F270
:10562000E730ADF81800ADF814400020ADF81A00CE
:10563000ADF8160005A91F4800F0BCF96020ADF8D0
:1056400004000120ADF806000020ADF80A00ADF816
:105650000C0001A9174800F051F80821154800F086
:1056600099F801A9134800F09FF80821114800F0AB
:10567000EDF801A90F4800F0F7F808210D4800F0F7
:1056800043F901A90B4800F049F90821094800F045
:1056900083F90121074800F00FF80121054800F0C7
:1056A00017F808B010BD000000081A00000C0140F7
:1056B000000000200004004021B1028842F0800276
:1056C000028004E002884FF67F731A400280704720
:1056D00021B1028842F00102028004E002884FF604
:1056E000FE731A40028070471AB183890B4383818D
:1056F00002E083898B4383817047000070B50024EA
:1057000000220023058C4FF6FE7635400584028C7E
:105710008388048B4FF68F752C40B51E2C400D8866
:105720002C43751E2A400D892A434D882A43144D67
:10573000A8420BD0134DA84208D0134DA84205D063
:10574000124DA84202D0124DA84213D14FF6F77560
:105750002A404D892A434FF6FB752A408D882A43FB
:105760004FF6FF652B404FF6FF552B408D892B439D
:10577000CD892B4383800483CD888586028470BDC8
:10578000002C014000340140004001400044014031
:10579000004801400A460021018B4FF6F77319407B
:1057A000114301837047000070B5002400220023DC
:1057B000058C4FF6EF7635400584028C8388048B88
:1057C00048F6FF752C404FF6FF452C400D884FF6EC
:1057D000FF7606EA05252C434FF6DF752A400D8932
:1057E00006EA05152A434D8806EA05152A43154D94
:1057F000A84202D0144DA8421DD14FF67F752A4011
:105800004D894FF6FF7606EA05152A434FF6BF7518
:105810002A408D8806EA05152A434FF6FF352B40AE
:105820004FF2FF752B408D8906EA85052B43CD8904
:1058300006EA85052B4383800483CD88058702848F
:1058400070BD0000002C0140003401400A460021D8
:10585000018B4FF2FF7319404FF6FF7303EA0223E7
:10586000194301837047000070B500240022002313
:10587000058C4FF6FF6635400584028C8388848B47
:105880004FF68F752C404FF6FC752C400D882C433D
:105890004FF6FF552A400D894FF6FF7606EA05259B
:1058A0002A434D8806EA05252A43154DA84202D011
:1058B000144DA8421DD14FF2FF752A404D894FF675
:1058C000FF7606EA05252A434FF6FF352A408D88E4
:1058D00006EA05252A434EF6FF752B404DF6FF7567
:1058E0002B408D8906EA05152B43CD8906EA05155F
:1058F0002B4383808483CD888587028470BD00001C
:10590000002C0140003401400A460021818B4FF6F3
:10591000F7731940114381837047000070B500226E
:1059200000230024058C4EF6FF7635400584038C59
:105930008488828B48F6FF752A404FF6FF452A403F
:105940000D884FF6FF7606EA05252A434DF6FF75CA
:105950002B400D8906EA05352B434D8806EA0535AF
:105960002B430B4DA84202D00A4DA84208D14BF65A
:10597000FF752C408D894FF6FF7606EA85152C437E
:1059800084808283CD88A0F84050038470BD0000DD
:10599000002C0140003401400A460021818B4FF267
:1059A000FF7319404FF6FF7303EA02231943818303
:1059B00070470000002202881D4B98420ED01D4BFC
:1059C00098420BD0B0F1804F08D01B4B984205D0C5
:1059D0001A4B984202D01A4B984204D14FF68F735B
:1059E0001A404B881A43174B984207D0164B9842DF
:1059F00004D04FF6FF431A40CB881A4302808B88AD
:105A000083850B8803850A4B98420BD0094B98423B
:105A100008D00E4B984205D00D4B984202D00D4B4A
:105A2000984201D10B7A03860123838270470000DC
:105A3000002C0140003401400004004000080040F8
:105A4000000C0040001000400014004000400140E5
:105A5000004401400048014010B588B004460121CF
:105A60004804FFF70DFB01210420FFF719FB042078
:105A7000ADF8040003208DF8060018208DF807000B
:105A800001A92548FDF7BEF80820ADF80400032061
:105A90008DF8060004208DF8070001A91E48FDF7C7
:105AA000B1F804940020ADF81400ADF81600ADF87C
:105AB0001800ADF81C000C20ADF81A000020ADF85D
:105AC0000800ADF80A004FF40070ADF80C0000209B
:105AD000ADF80E0004A9114800F01AFA02A90F4807
