:020000040800F2
:100000004808002001010008250F0008F90E00082B
:10001000210F000839090008FB1A00080000000041
:100020000000000000000000000000002113000894
:10003000AD0B000800000000E91100080D140008D5
:100040001B0100081B0100081B0100081B01000820
:100050001B0100081B0100081B0100081B01000810
:100060001B0100081B010008B10B00081B01000860
:100070001B0100081B0100081B0100081B010008F0
:100080001B0100081B0100081B0100081B010008E0
:100090001B0100081B0100081B0100081B010008D0
:1000A0001B0100081B0100081B0100081B010008C0
:1000B000F91400081B0100081B0100081B010008BF
:1000C0001B0100081B0100081B0100081B010008A0
:1000D0001B01000875160008CD17000889180008D4
:1000E0001B0100081B0100081B010008DFF80CD0F1
:1000F00000F0CAFA004800475D29000848080020BF
:100100000648804706480047FEE7FEE7FEE7FEE7B1
:10011000FEE7FEE7FEE7FEE7FEE7FEE799140008CC
:10012000ED00000840EA01039B0703D009E008C97D
:10013000121F08C0042AFAD203E011F8013B00F8AC
:10014000013B521EF9D27047D2B201E000F8012BF8
:10015000491EFBD270470022F6E710B513460A4647
:1001600004461946FFF7F0FF204610BD2DE9FE4F6B
:10017000804681EA0300C00F0C46009021F0004148
:1001800023F00045B8EB0200A94105D240462146C4
:1001900090461C460B46024623F00040104347D0D1
:1001A000270DC7F30A00C3F30A510290401A0190C9
:1001B00040286BDAC3F3130040F4801B009892468A
:1001C00020B10023D2EB030A63EB0B0B01985946D5
:1001D000C0F14002504600F098F906460D465046E0
:1001E0005946019A00F0B0F910EB08006141002473
:1001F00087EA115284EAE7731A4340D0009A62B347
:10020000019A012A4FEA075215DC001B61EB02013B
:100210004FF0004202EA0752CDE90042001C41F5CE
:10022000801132462B4600F0B0F903B0BDE8F08FE4
:1002300040462146F9E7001B61EB0201001C41F535
:10024000801300185B412018A2F5001747EB03014B
:1002500040EAD570B6196D4111E06D084FEA3606D7
:1002600045EAC0754FEA0752001B61EB0201001C12
:1002700041F5801149084FEA3000001951413246DA
:100280002B4603B0BDE8F04F00F070B90098012292
:1002900040000023D0EB020263EBE073009821469C
:1002A0004FEAE074B8EB000061EB0401E9E783F08A
:1002B00000435BE781F0004158E72DE9FE4F81EAFA
:1002C000030404F0004421F0004100944FF0000BBF
:1002D00023F0004350EA01045ED052EA03045BD0ED
:1002E000C3F30A54C1F30A552C44A4F2F334019425
:1002F000A0FB0254C1F3130141F48011C3F31303B3
:1003000043F4801301FB024400FB034E840A970A66
:1003100044EA815447EA8357A4FB076802958D0A93
:1003200005FB07854FEA932C04FB0C542705029D1F
:100330004FEA065847EA1637B5EB08056EEB070C8F
:10034000870E920E47EA811742EA8312A7FB020149
:10035000B6EB0B0164EB00042B0D43EA0C335E1883
:1003600044EB1C50DA465146E7FB0201C5F3130487
:100370004FEA0B3343EA14534FEA0432019C43EA39
:100380000603A4F10C040294009CCDE900B400F033
:10039000FCF803B0BDE8F08F00200146F9E72DE935
:1003A000F04D81EA030404F0004B21F000451446AF
:1003B0004FF0000A23F0004150EA050220D054EA31
:1003C00001021DD0C5F30A570246C5F31303C1F35A
:1003D0001300C1F30A5640F4801543F48013A7EBD1
:1003E0000608101BD64608F2FD3873EB050002D351
:1003F00008F1010801E092185B41B8F1000F03DA3F
:1004000000200146BDE8F08D00204FF48011064623
:1004100084460EE0171B73EB050705D3121B63EB35
:10042000050306434CEA010C49084FEA30009218D4
:100430005B4150EA0107EDD152EA030012D082EA93
:10044000040083EA0501084305D0101BAB4106D226
:100450000122002306E000224FF0004302E06FF08B
:10046000010253101AEB06004CEB085110EB0A0086
:1004700041EB0B01BDE8F04D00F078B830B50B460C
:10048000014600202022012409E021FA02F59D42C4
:1004900005D303FA02F5491B04FA02F52844151E98
:1004A000A2F10102F1DC30BD2DE9F05F054600202C
:1004B00092469B4688460646814640241BE02846D5
:1004C00041464746224600F02FF853465A46C01A86
:1004D000914110D311461846224600F016F82D1A05
:1004E00067EB01084F4622460120002100F00DF87D
:1004F00017EB00094E41201EA4F10104DFDC484641
:1005000031462A464346BDE8F09F202A04DB203AC4
:1005100000FA02F1002070479140C2F1200320FA56
:1005200003F3194390407047202A04DB203A21FA54
:1005300002F00021704721FA02F3D040C2F12002FC
:100540009140084319467047202A06DBCB17203A12
:1005500041FA02F043EAE07306E041FA02F3D040C8
:10056000C2F12002914008431946704710B5141E8D
:1005700073F1000408DA401C41F1000192185B415C
:100580001A4301D120F0010010BD2DE9F04D924633
:100590009B4611B1B1FA81F202E0B0FA80F220324A
:1005A0009046FFF7B2FF04460F4640EA0A0041EAD0
:1005B0000B0153465A46084313D0114653EA010033
:1005C00019D0C8F140025046FFF7AEFF05460E466F
:1005D000504659464246FFF798FF084305D0012090
:1005E00004E020463946BDE8F08D0020054346EA88
:1005F000E0762C4337430A986305E40AA0EB080031
:100600000022FD0A44EA47540A3002D50020014680
:10061000E9E7010510196941DDE90845001969415B
:10062000BDE8F04DA2E7C1F30A52C1F3130140F255
:10063000FF3341F480119A4202DA002001467047EC
:1006400040F233439A42A2F2334202DC5242FFF7B5
:100650006BBFFFF75ABF000030B5041E71F10004F4
:1006600004DB4FF00044404264EB0101141E73F1BF
:10067000000405DB1C464FF00043524263EB0403C9
:10068000994208BF904230BD064C074D06E0E06835
:1006900040F0010394E8070098471034AC42F6D3C9
:1006A000FFF728FD4C2A00086C2A000821B1826857
:1006B00042F00102826003E0826822F0010282605F
:1006C0007047000000B591B00121480200F0AEFD76
:1006D0000CA800F028F900200C9001208DF83400BF
:1006E0008DF835004FF460200E9000200F9002200E
:1006F0008DF840000CA92C4800F07CF8072301225B
:100700000521294800F09EF80723022206212648E9
:1007100000F098F80121244800F04CF80121084627
:1007200000F064FD214800F07DF91F484C30019035
:100730001F480290002003900220049000200590A2
:1007400080200690400007908000089020200990AB
:1007500000020A9000200B9001A9144800F008FA4A
:100760000121124800F052F901210F48FFF79EFFC6
:100770000D4800F0C3F800BF0B4800F030F8002827
:10078000FAD1094800F0CAF800BF074800F01DF888
:100790000028FAD10121044800F0B5F8022000F049
:1007A00027F911B000BD00000024014008000240FC
:1007B0003C00002021B1826842F48072826003E034
:1007C000826822F4807282607047014600208A6845
:1007D00002F004020AB1012000E000207047014647
:1007E00000208A6802F008020AB1012000E000201F
:1007F0007047000030B502460020002350680F4CBF
:1008000020400D790C6844EA05242043506090682C
:100810000B4C2040D1E902542C434D7944EA450465
:1008200020439060D06A20F470000C7C641EE4B217
:10083000234340EA0350D06230BD0000FFFEF0FFCA
:10084000FDF7F1FFF0B504460D4600200021092D0B
:1008500011DDE068A5F10A0606EB4607072606FA51
:1008600007F18843A5F10A0606EB460603FA06F1EE
:100870000843E0600CE0206905EB4507072606FA0F
:1008800007F1884305EB450603FA06F108432061AA
:10089000072A0FDA606B561E06EB86071F2606FA3C
:1008A00007F18843561E06EB860605FA06F1084353
:1008B000606322E00D2A0FDA206BD61F06EB860755
:1008C0001F2606FA07F18843D61F06EB860605FAAF
:1008D00006F10843206310E0E06AA2F10D0606EB82
:1008E00086071F2606FA07F18843A2F10D0606EBDC
:1008F000860605FA06F10843E062F0BD816841F022
:1009000008018160704721B1826842F4A0028260D0
:1009100003E0826822F4A00282607047816841F09F
:1009200004018160704700210160017141718160A3
:10093000C16001210174704700BFFEE708B50121C5
:100940000C2000F073FC0121084600F06FFC41F21E
:100950000100ADF8000010208DF8030003208DF891
:1009600002006946084800F0E9F98220ADF800006D
:1009700010208DF8030003208DF80200694603481B
:1009800000F0DCF908BD0000000C01400008014047
:1009900008B501210C2000F049FC0121084600F0B7
:1009A00045FC01210F4800F055FA3820ADF8000051
:1009B00010208DF8030003208DF8020069460A48D4
:1009C00000F0BCF948F21000ADF8000010208DF8DE
:1009D000030003208DF802006946044800F0AEF9D8
:1009E00008BD000000023000000C0140000801407A
:1009F00000F0805111B10349086001E002494860EC
:100A000070470000040402400000024021B1026867
:100A100042F00102026004E002684FF6FE731A40E1
:100A20000260704701684FF6FE72114001600021BC
:100A3000016041608160C1604B49884208D14A49E8
:100A40000839496841F00F01474A083A51608AE085
:100A500045491431884208D143490839496841F071
:100A6000F001414A083A51607DE03F49283188420F
:100A700008D13D490839496841F470613A4A083A59
:100A8000516070E038493C31884208D13649083914
:100A9000496841F47041344A083A516063E0324990
:100AA0005031884208D130490839496841F47021F1
:100AB0002D4A083A516056E02B496431884208D1EA
:100AC00029490839496841F47001274A083A5160B8
:100AD00049E025497831884208D1234908394968D5
:100AE00041F07061204A083A51603CE01F49884259
:100AF00006D1011F096841F00F01021F116032E0A9
:100B00001A491431884208D11849091F096841F06F
:100B1000F001164A121F116025E01449283188425D
:100B200008D11249091F096841F470610F4A121F68
:100B3000116018E00D493C31884208D10B49091F6A
:100B4000096841F47041094A121F11600BE007491E
:100B50005031884207D10549091F096841F47021C5
:100B6000024A121F11607047080002400804024048
:100B700010B50022026847F6F0739A430C6A8B683E
:100B800023430C6923434C6923438C692343CC6979
:100B900023434C6A23438C6A23431A430260CB6885
:100BA00043600B6883604B68C36010BD70470000F2
:100BB00010B50A2001F0AEFE0948006860B9094886
:100BC000006808B9012000E000200649086001F033
:100BD0005BFD012001F078FE022000F005F810BD59
:100BE00010012142B401224201490860704700000F
:100BF00014040140002123498279002A3AD00A4690
:100C0000126803689A430B461A600A1D126803684B
:100C10009A430B1D1A60027911440A6803681A434B
:100C20000A60184A0832126803689A43154B083361
:100C30001A601A1D126803689A43124B0C331A602B
:100C40004279102A0ED11A1F126803681A430D4BFD
:100C500008331A601A1D126803681A43094B0C33D3
:100C60001A600DE00749427911440A6803681A4383
:100C70000A6005E0027911440A6803689A430A6031
:100C800070470000000401400EB50121084600F045
:100C9000CDFA01F055FD0121002000F02FF80220CF
:100CA000019001208DF80A0000208DF8080008202E
:100CB0008DF8090001A8FFF79DFF07208DF80000BF
:100CC00001208DF8030002208DF801008DF802004C
:100CD000684600F029F90EBD08B50121042000F096
:100CE000A5FA6020ADF8000000208DF803006946E9
:100CF000014800F023F808BD0008014030B500228B
:100D00008B071C0F0F2303FA04F20B4B8C1053F8C4
:100D100024309343084C8D1044F8253023468C1022
:100D200053F824308C07240F00FA04F42343024CB8
:100D30008D1044F8253030BD080001402DE9F04108
:100D4000024600250026002000230024002791F8F9
:100D500003C00CF00F0591F803C00CF0100CBCF1AF
:100D6000000F03D091F802C04CEA050591F800C0CD
:100D7000BCF1000F31D0146800202BE04FF0010CC3
:100D80000CFA00F3B1F800C00CEA03069E4220D131
:100D900083004FF00F0C0CFA03F7BC4305FA03FC79
:100DA0004CEA040491F803C0BCF1280F06D14FF0BF
:100DB000010C0CFA00FCC2F814C00AE091F803C060
:100DC000BCF1480F05D14FF0010C0CFA00FCC2F841
:100DD00010C0401C0828D1D31460B1F800C0BCF189
:100DE000FF0F34DD546800202EE000F1080C4FF0B6
:100DF000010808FA0CF3B1F800C00CEA03069E42A1
:100E000021D183004FF00F0C0CFA03F7BC4305FA15
:100E100003FC4CEA040491F803C0BCF1280F05D18F
:100E200000F1080C08FA0CF8C2F8148091F803C01D
:100E3000BCF1480F07D100F1080C4FF0010808FA87
:100E40000CF8C2F81080401C0828CED35460BDE8CE
:100E5000F0810000F0B50A4600230024002100259F
:100E600000F00046B6F1004F02D11D4EF16901E0DD
:100E70001B4E7168C0F3034583B200F44016B6F50B
:100E8000401F08D121F07061154E766826F070661B
:100E9000134F7E6012E000F48016B6F5801F06D175
:100EA000032606FA05F4A14341F0706106E0460D01
:100EB000360103FA06F6B14341F0706122B1460DE6
:100EC000360103FA06F6314300F00046B6F1004F52
:100ED00002D1034EF16101E0014E7160F0BD0000EE
:100EE0000000014041617047016170470AB1016132
:100EF00000E04161704700000EE00849C96881F4D4
:100F00000061064AD160002001E0411C88B242F233
:100F100010718842F9DB00BFEFE7000000200140BC
:100F200000BFFEE77047000070B5002100230F22CC
:100F3000C47804B3154C246804F4E064C4F5E06498
:100F4000210AC1F10403CA40447804FA03F1847809
:100F50001440214309010E4C0678A155047804F091
:100F60001F050124AC4005786D11AD0005F1E025A9
:100F7000C5F8004109E0047804F01F050124AC40E5
:100F8000044D0678761145F8264070BD0CED00E062
:100F900000E400E080E100E002490143024A116000
:100FA000704700000000FA050CED00E070B5002469
:100FB0000EE00021204600F0E6F8002504E00020C5
:100FC00000F002F9681CC5B2802DF8DB601CC4B2C9
:100FD000082CEEDB70BD000008B50121082000F0F0
:100FE00025F914208DF8030003208DF802004FF43A
:100FF0008070ADF8000069460A48FFF79FFE4FF485
:101000000070ADF8000069460648FFF797FE012220
:1010100051020448FFF76AFF012211020148FFF75D
:1010200065FF08BD000C014070B50546002415E0C1
:101030008020204100EA05024FF480710E48FFF73E
:1010400055FF012251020C48FFF750FF00224FF4D8
:1010500000710948FFF74AFF601CC4B2082CE7DBA7
:10106000012251020448FFF741FF00224FF40071B2
:101070000148FFF73BFF70BD000C014010B5012295
:1010800011020A48FFF732FF012251020748FFF719
:101090002DFF00224FF480710448FFF727FF002244
:1010A0004FF400710148FFF721FF10BD000C014013
:1010B00010B500224FF480710648FFF717FF012298
:1010C00051020448FFF712FF012211020148FFF705
:1010D0000DFF10BD000C014070B5002406E0002596
:1010E00000E06D1CB5F57A7FFBD3641CB4F57A7F04
:1010F000F5D3FFF771FFAE2000F056F8D52000F0D1
:1011000053F8802000F050F8A82000F04DF83F2060
:1011100000F04AF8D32000F047F8002000F044F82F
:10112000402000F041F8A12000F03EF8C82000F077
:101130003BF8DA2000F038F8122000F035F8812072
:1011400000F032F8CF2000F02FF8D92000F02CF872
:10115000F12000F029F8DB2000F026F8302000F024
:1011600023F8A42000F020F8A62000F01DF88D2020
:1011700000F01AF8142000F017F8AF2000F014F86F
:10118000FFF714FF70BD70B505460C4645F0B00082
:1011900000F00AF8102141EA141000F005F804F0FC
:1011A0000F0000F001F870BD10B50446FFF766FFB0
:1011B0007820FFF739FF0020FFF736FF2046FFF7C2
:1011C00033FFFFF775FF10BD10B50446FFF756FF5C
:1011D0007820FFF729FF4020FFF726FF2046FFF782
:1011E00023FFFFF765FF10BD7047000029B1064AD5
:1011F00052690243044B5A6104E0034A5269824334
:10120000014B5A61704700000010024029B1064AA4
:10121000D2690243044BDA6104E0034AD269824393
:10122000014BDA61704700000010024029B1064A04
:1012300092690243044B9A6104E0034A9269824333
:10124000014B9A61704700000010024030B5002148
:101250000022002400232D4D6D6805F00C0121B102
:10126000042905D0082923D105E0294D056022E095
:10127000274D05601FE0254D6D6805F47012234D64
:101280006D6805F48034022505EB92421CB9214DAE
:10129000554305600BE01D4D6D6805F400351DB12B
:1012A0001C4D5543056002E0194D5543056002E0B1
:1012B000174D056000BF00BF144D6D6805F0F001CB
:1012C0000909154D6B5C0568DD4045600F4D6D6883
:1012D00005F4E061090A104D6B5C4568DD408560EE
:1012E0000A4D6D6805F46051C90A0B4D6B5C456889
:1012F000DD40C560054D6D6805F44041890B074D23
:101300006B5CC568B5FBF3F5056130BD00100240AC
:1013100000127A0000093D008000002090000020AB
:10132000704710B500F002F810BD00000CB50020A9
:10133000019000903348006840F4803031490860E3
:1013400000BF3048006800F4003000900198401C55
:101350000190009818B90198B0F5A06FF1D1294813
:10136000006800F4003010B10120009001E000207E
:1013700000900098012843D12348006840F01000F5
:10138000214908600846006820F00300086008460C
:10139000006840F0020008601A4840681949486037
:1013A0000846406848600846406840F480604860ED
:1013B0000846406820F47C1048600846406840F4C5
:1013C000E81048600846006840F08070086000BF80
:1013D0000C48006800F000700028F9D00948406807
:1013E00020F00300074948600846406840F00200CA
:1013F000486000BF0348406800F00C000828F9D19D
:101400000CBD0000001002400020024010B500F0AA
:1014100001F810BD10B51B48006840B119480068BC
:10142000401E1849086010B90120174908700024AF
:1014300008E004EB4401154A02EB810001F05CFA7C
:10144000601CC4B2042CF4DB11480068401C104935
:101450000860084600686FF00041884202D1002011
:101460000B49086001F047FA0A480078401CC0B2F6
:10147000084908700A2803DB0020087001F03AFAD6
:1014800010BD000000000020040000209400002097
:10149000080000200C00002010B51348006840F040
:1014A00001001149086008464068104908400E498B
:1014B0004860084600680E4908400B490860084625
:1014C000006820F4802008600846406820F4FE0090
:1014D00048604FF41F008860FFF723FF4FF0006063
:1014E0000449086010BD0000001002400000FFF831
:1014F000FFFFF6FE08ED00E010B50121880700F0BF
:101500001CF820B104480068401C03490860012110
:10151000880700F003F810BD10000020CA430282C3
:10152000704721B1028842F00102028004E0028883
:101530004FF6FE731A400280704730B50246002015
:1015400000230024158A05EA0103958905EA0104B0
:1015500013B10CB1012000E0002030BD1AB1838925
:101560000B43838102E083898B43838170470000B2
:10157000002202881D4B98420ED01D4B98420BD082
:10158000B0F1804F08D01B4B984205D01A4B9842BF
:1015900002D01A4B984204D14FF68F731A404B88F1
:1015A0001A43174B984207D0164B984204D04FF677
:1015B000FF431A40CB881A4302808B8883850B88AF
:1015C00003850A4B98420BD0094B984208D00E4B2A
:1015D000984205D00D4B984202D00D4B984201D154
:1015E0000B7A03860123838270470000002C0140A0
:1015F000003401400004004000080040000C00409E
:101600000010004000140040004001400044014030
:10161000004801401FB501210846FFF7F7FD42F2DF
:101620000F70ADF8080041F61F40ADF8040000202F
:10163000ADF80A00ADF8060001A94FF08040FFF7B1
:1016400097FF012211469007FFF788FF1C208DF8B5
:10165000000003208DF8010002208DF80200012017
:101660008DF803006846FFF75FFC01218807FFF74C
:1016700058FF1FBD10B5204601F060F940F225511A
:101680003B4800F075F9002871D0394800F02CFA79
:10169000C4B238480078052863D2DFE800F003249C
:1016A00036495000422C11D13348007870B90020DF
:1016B00032490870084601780078401C2F4A1070A3
:1016C0002F48445401202B49087008E0412C03D1D5
:1016D00004202849087002E00020264908700020F4
:1016E000284908603DE04D2C0BD124480178007852
:1016F000401C224A10702248445402201D490870A0
:1017000002E000201B4908702BE01C48017800789B
:10171000401C1A4A10701A48445410460078102889
:1017200002DB03201349087001201649086018E005
:1017300001201149087000200E49087011E0422C68
:1017400003D1114800F004FB0AE0432C03D10FA0A1
:1017500000F0FEFA04E0442C02D110A000F0F8FAE8
:1017600000BF00BF40F22551014800F0D9F810BD7C
:10177000003801403A000020180000201900002025
:10178000C4000020B4012242DC29000857652077FC
:10179000696C6C2E2E434343000000005765207790
:1017A000696C6C2E2E4444440000000010B50821E2
:1017B0000448FFF797FB4FF400410348FFF794FB01
:1017C00010BD0000000C01400008014010B540F2BF
:1017D0002551234800F0CCF800283BD0204800F0E9
:1017E00083F9C4B21F48007820B1012815D002281F
:1017F0002FD125E0412C09D11B48007830B90120B8
:101800001849087000201949087002E000201549A5
:1018100008700120164908601BE00D2C03D102203E
:101820001049087008E013481049097844540F48DB
:101830000078401C0D49087000200D49086008E040
:101840000A2C05D1012008490870002005490870BC
:1018500000BF00BF40F22551014800F061F810BD03
:10186000004400403B000020180000201900002028
:10187000B4012242C400002010B510210148FFF736
:1018800031FB10BD0008014010B540F22551204841
:1018900000F06EF8002839D01D4800F025F9C4B2D8
:1018A000242C02D100201B4908801A480188008896
:1018B000401C184A108018484454007824281ED12F
:1018C0001548007947281AD113484079412816D184
:1018D0000A2C14D1C8211148FEF73DFC0D4802889E
:1018E0000D490E48FEF71EFC01200C4981F8C80086
:1018F000002008490880C8210748FEF72CFC05484D
:101900000088C82802DBC8200249088010BD0000FA
:101910000048004056000020F0020020F0010020A6
:1019200010B50022002340F66A14A14200D100BF86
:101930000A1201249440A3B2DC43048010BD21B1FB
:10194000828942F40052828104E082894DF6FF735D
:101950001A408281704702460020B1F5007F00D115
:1019600000BF13880B400BB1012000E0002070473E
:1019700070B50246002400230025002040F66A16B8
:10198000B14200D100BFC1F3421501F01F0301268F
:1019900006FA03F3012D02D19689334006E0022DA9
:1019A00002D1168A334001E0968A33400C12012698
:1019B00006FA04F41688344013B10CB1012000E09B
:1019C000002070BDF0B5034600240026002500204D
:1019D00040F66A17B94200D100BF1846C1F342145D
:1019E00001F01F06012707FA06F5012C01D10C3082
:1019F00004E0022C01D1103000E014301AB1076865
:101A00002F43076002E00768AF430760F0BD0000A6
:101A10002DE9F04786B005460E460024A24600BFD9
:101A2000A1460027B08900B100BF2F462C8A4CF692
:101A3000FF700440F08804432C82AC894EF6F3100A
:101A40000440B08831890843718908430443AC815C
:101A5000AC8A4FF6FF400440B0890443AC8201A831
:101A6000FFF7F4FB1F48874202D1DDF810A001E028
:101A7000DDF80CA0A88900F4004040B10AEBCA00D0
:101A800000EB0A1031684900B0FBF1F807E00AEBFF
:101A9000CA0000EB0A1031688900B0FBF1F864203D
:101AA000B8FBF0F004012009642101FB1089A8892A
:101AB00000F4004040B1322000EBC900B0FBF1F06F
:101AC00000F00700044308E0322000EB0910642115
:101AD000B0FBF1F000F00F0004432C8106B0BDE82C
:101AE000F08700000038014001468888C0F30800F4
:101AF0007047C1F308028280704700BFFEE7000014
:101B000010B586B0044601210520FFF78FFB0121A7
:101B10008803FFF78BFB18208DF817004FF4007037
:101B2000ADF8140003208DF8160005A91D48FFF735
:101B300005F904208DF817000002ADF81400032009
:101B40008DF8160005A91748FFF7F8F80194002052
:101B5000ADF810000C20ADF80E000020ADF80C0020
:101B6000ADF80A00ADF8080001A90F48FFF750FFD3
:101B700001210D48FFF7E3FE012240F225510A48FA
:101B8000FFF720FF25208DF8000001208DF80300CD
:101B900002208DF801008DF802006846FFF7C4F9B5
:101BA00006B010BD000801400038014010B586B0F5
:101BB000044601210520FFF739FB01214804FFF706
:101BC00025FB18208DF817000420ADF81400032021
:101BD0008DF8160005A91E48FFF7B0F804208DF80F
:101BE00017000820ADF8140003208DF8160005A991
:101BF0001748FFF7A3F801940020ADF810000C205F
:101C0000ADF80E000020ADF80C00ADF80A00ADF8FC
:101C1000080001A90F48FFF7FBFE01210D48FFF75F
:101C20008EFE012240F225510A48FFF7CBFE262006
:101C30008DF8000001208DF8030003208DF80100CD
:101C400002208DF802006846FFF76EF906B010BD5D
:101C5000000801400044004010B586B00446012150
:101C60000920FFF7E3FA01218804FFF7CFFA1820D3
:101C70008DF817004FF48060ADF8140003208DF844
:101C8000160005A91E48FFF759F804208DF8170023
:101C90004002ADF8140003208DF8160005A918487D
:101CA000FFF74CF801940020ADF810000C20ADF8BF
:101CB0000E000020ADF80C00ADF80A00ADF80800E9
:101CC00001A91048FFF7A4FE01210E48FFF737FED7
:101CD000012240F225510B48FFF774FE27208DF8B2
:101CE000000001208DF8030003208DF80100012081
:101CF0008DF802006846FFF717F906B010BD000026
:101D0000000C0140004800400FB430B5CBB0054690
:101D100001AC50A800904FF4947101A8009B4F9A19
:101D200000F026F8002000900BE014F8011B284674
:101D3000FFF7DFFE00BF40212846FFF70CFE00281A
:101D4000F9D020780028F0D14BB030BC5DF814FBFE
:101D50000FB4054B10B503A9044A029800F0F2F83D
:101D600010BC5DF814FB000021290008340000209D
:101D70007CB5044600201D46164600290BD0491E9E
:101D8000CDE90041044B6A462946304600F0DAF8B6
:101D9000009A002111707CBD7326000802E008C87B
:101DA000121F08C1002AFAD170477047002001E0D5
:101DB00001C1121F002AFBD1704780F310887047C1
:101DC0002DE9FF5F82B00021DDE90430020DDDF86E
:101DD00040B0034318D044F61050A2F2FF32424301
:101DE0001514119801281FD0A5EB0B00401C5FEAC9
:101DF000000A4FF000064E4FDFF83891B0465046CB
:101E000015D5CAF1000413E0119801244AA3012852
:101E100001D16FEA0B010298119AC0E90031C0E9C3
:101E2000024206B0BDE8F09FCBF10000DFE70446B8
:101E30000021404A491842EB0450CDE9001012E05D
:101E4000E00707D032463B4640464946FEF735FAA2
:101E50008046894632463B4610461946FEF72DFA23
:101E600006460F466410002CEAD1DDE90401DDE9E5
:101E70000023BAF1000F06DAFEF71FFA42464B467E
:101E8000FEF71BFA05E0FEF78AFA42464B46FEF7DC
:101E900086FA04460E460022284BFEF7DDFB03D8E7
:101EA0004FF0FF30014607E00022254B2046314627
:101EB000FEF75CF9FEF7B7FB102409E0002C0ADB03
:101EC0000A220023FEF7F0FA039B30321A55641EF3
:101ED00050EA0102F2D1641C039AC4F111031444C4
:101EE000119A012A03D0012208430DD10AE00843C8
:101EF00004D000204FF0110B119072E7A3EB0B05FB
:101F00006D1E0DE05B4504DD4FF0000205F101059B
:101F100004E003DA4FF00002A5F10105002AECD03D
:101F200002981199C0E90231C0E9004579E7000043
:101F3000000014400000F03F300000000000F043BB
:101F40000000E03F2DE9FF4F95B09B4689460646CD
:101F500000250FE2252877D100242746F84A0121E1
:101F6000059400E0044316F8013F203B01FA03F01A
:101F70001042F7D130782A2811D06FF02F03307833
:101F8000A0F13002092A16D8059A44F0020402EBA7
:101F9000820203EB42021044761C0590EFE759F8E9
:101FA000042B0592002A03DA504244F400540590B1
:101FB00044F00204761C30782E2816D116F8010F52
:101FC00044F004042A280DD06FF02F023078A0F1DD
:101FD0003003092B09D807EB870302EB4303C7182B
:101FE000761CF3E759F8047B761C30786C280FD008
:101FF00006DC4C2817D068280DD06A2814D104E0DC
:10200000742810D07A280FD10DE044F400140AE0AF
:1020100044F4801401E044F440147278824202D106
:1020200004F58014761C761C307866280BD013DCFF
:10203000582877D009DC002875D04528F6D04628E6
:10204000F4D047281AD19DE118E0632835D06428E0
:1020500079D0652812D195E1702873D008DC672803
:10206000F1D069286FD06E280DD06F2806D1B5E069
:1020700073282CD0752875D0782874D05A461799B3
:1020800090476D1C75E1C4F30250022809D0032863
:102090000DD0D9F8001004280DD00D6009F1040905
:1020A00067E1D9F80010EA17C1E90052F6E7D9F85C
:1020B00000100D80F2E70D70F0E719F8041B8DF8A1
:1020C000001000208DF80100EA46012003E059F8D5
:1020D00004AB4FF0FF3061074FF0000102D40DE078
:1020E00008F101018846B9420FDA8045F8DB1AF899
:1020F00008100029F4D108E008F101018846814266
:10210000FADB1AF808100029F6D105985B46A0EB17
:10211000080721463846179A00F094FA284400EB45
:10212000080507E04DE029E10DE01AF8010B5A46D9
:1021300017999047B8F10108F7D25B462146384617
:10214000179A13E142E00A220092C4F302524FF0C0
:10215000000A022A08D059F804CB032A4FEAEC718E
:102160000AD00DE029E02AE009F1070121F0070279
:10217000F2E802C1914609E00FFA8CFC4FEAEC71DB
:10218000042A03D14FFA8CFC4FEAEC71002907DADC
:102190000A460021DCF1000C61EB02012D2202E075
:1021A000220504D52B228DF80420012203E0E2074A
:1021B00001D02022F7E7904659E00A2102E01022E0
:1021C0000DE010214FF0000A00910BE010224FF0BB
:1021D000000A44F004040827009203E008224FF0AC
:1021E000000A0092C4F30252022A05D059F804CB27
:1021F0000021032A08D009E009F1070121F00702B4
:10220000F2E802C1914605E01FFA8CFC042A01D1D4
:102210000CF0FF0C4FF00008220728D5702806D0DC
:10222000009B83F0100353EA0A0305D00EE040221E
:102230008DF80420012208E05CEA010206D0302279
:102240008DF804208DF8050002229046009B83F053
:10225000080353EA0A030AD15CEA010201D16207CA
:1022600005D530228DF804204FF001087F1E582834
:1022700004D034A003900EA802900DE036A0F9E738
:1022800053466046009AFEF70FF984460398825C35
:102290000298401E029002705CEA0100F0D10298A0
:1022A00006A9081A00F1200A600702D524F4803438
:1022B00000E00127574502DDA7EB0A0000E00020FF
:1022C00000EB0A01009005984144401A0590E00394
:1022D00006D45B462146179A059800F0B3F90544E9
:1022E000002706E001A85A46C05D179990476D1C6B
:1022F0007F1C4745F6DBE0030CD55B462146179A69
:10230000059800F09FF9054404E030205A461799DB
:1023100090476D1C0099481E00900029F5DC08E0EC
:10232000029802995A460078491C029117999047E1
:102330006D1CBAF10001AAF1010AF1DC65E10000AF
:10234000092801003031323334353637383961628B
:10235000636465660000000030313233343536374F
:1023600038394142434445460000000000F058F926
:102370000544761C307800287FF4ECAD19B028466F
:10238000BDE8F08F620700D4062709F1070222F0AA
:10239000070CFCE80223E14603F000485FEA080C62
:1023A00002D00FF2702C0DE05FEA045C02D50FF250
:1023B000682C07E05FEAC47C02D00FF2602C01E0D9
:1023C000AFF2700C4FF0FF3823F00043CDF850C04F
:1023D00065280CD006DC452809D046281DD04728A2
:1023E0003DD13DE0662818D067287ED138E0002135
:1023F000112F01DB112000E0781CCDE9000106A9B6
:102400000EA8FFF7DDFCDDE90F010E9A0391002114
:10241000009207F1010A04914DE04FF0004000974F
:10242000CDE9011006A90EA8FFF7CAFCDDE90F02ED
:1024300003920E9B11990022DDF80CA000930492E8
:1024400011B9791C00EB010AB7EB0A0004D4C0F102
:10245000FF3007F1010A0490AAEB0700019044E065
:10246000012F00DA01270021112F01DD112000E0EA
:102470003846CDE9000106A90EA8FFF7A1FCDDE969
:102480000F010E9A0391002104910092BA46210790
:102490000CD40399514500DA8A46BAF1010F05DDE3
:1024A000009AAAF10101515C302908D0B84202DA41
:1024B00010F1040F06DA0121CDE9011015E0AAF1AF
:1024C0000101E9E7002805DC049901440491AAEB25
:1024D000000102E0411C514500DD8A460499401A82
:1024E000401C01904FF000400290200704D4019856
:1024F000504501DBCDF8048000208DF84F00029894
:102500000DF14F07B0F1004F25D02B200E9002980F
:102510004FF0020800280CDA404202902D200E9065
:1025200007E00A210298FDF7A9FF3031029007F871
:10253000011DB8F10001A8F10108F2DC02980028A1
:10254000EFD1791E0E980870307800F0200040F02E
:10255000450007F8020D12A8C01B00F107081498E7
:10256000007800B1012000EB0A01019801EBE07155
:1025700005984144401A401E0590E00306D45B468E
:102580002146179A059800F05DF8054414980078E4
:1025900018B15A46179990476D1CE00324D55B4645
:1025A0002146179A059800F04DF805441CE0049860
:1025B000002807DBDDE90301884203DD0098405C69
:1025C000179901E0179930205A469047049805F171
:1025D0000105401C04900198401E019004D12E205A
:1025E0005A46179990476D1CBAF10001AAF1010AE9
:1025F000DDDC05E017F8010B5A46179990476D1C72
:10260000B8F10001A8F10108F4DC5B462146179AF5
:102610000598ABE62D0000002B0000002000000014
:102620002DE9F041044600251E461746880404D4CF
:1026300005E039462020B0476D1C641EF9D52846B8
:10264000BDE8F0812DE9F041044600251E46904684
:10265000C80301D5302700E02027880404D505E011
:1026600041463846B0476D1C641EF9D52846BDE882
:10267000F0814A68002A06D00A68531C0B6010706B
:102680004868401E48607047012001490860704753
:10269000A001214210B5044604B910BD012C00D19F
:1026A00002240120FFF789FB094804600020094942
:1026B0000870FFF782FB06E000F00EF8054800788E
:1026C000012800D100E0F7E700BF00BFE5E7000008
:1026D0000000002004000020704710B54FF4A060F7
:1026E000FEF75AFC00F064F800F02AF800F012F847
:1026F00000F07CF8FEF7C8FAFEF7EEFCFEF78AFF62
:10270000FEF7EAFAFDF7DEFFFEF742F9FEF716F9EB
:1027100010BD000008B501210420FEF787FD03204D
:102720008DF8020010208DF803000001ADF80000C4
:1027300069460248FEF702FB08BD000000080140A0
:1027400008B501210420FEF771FD01211548FEF7AF
:1027500081FB1020ADF8000048208DF80300694689
:102760001148FEF7EBFA0220ADF8000048208DF882
:10277000030069460C48FEF7E1FA01210820FEF744
:1027800055FD1020ADF800008DF8030003208DF8F2
:10279000020069460548FEF7D1FA10210348FEF70A
:1027A000A1FB08BD0002300000080140000C014000
:1027B00008B501215020FEF739FD03208DF80200F5
:1027C00010208DF803004002ADF80000694605486E
:1027D000FEF7B4FA2020ADF8000069460248FEF783
:1027E000ADFA08BD001001400018014070B500208E
:1027F00016E0002100EB40021F4B03EB8202516008
:1028000000EB400203EB8202916000EB400203EB1D
:102810008202517000EB400203F82210411CC8B242
:102820000428E6DB154909684FF47A73B1FBF3F22B
:10283000B2F1807F00D31DE022F07F41491E4FF0AE
:10284000E023596159170F23002907DA1C07260EC8
:102850000B4C01F00F052D1F665503E01C07250EDC
:10286000084C655400BF00214FF0E0239961072117
:10287000196100BF70BD0000940000206C000020B2
:1028800018ED00E000E400E0012803D10121054A31
:10289000116005E0022803D10121024A203A1160AB
:1028A00070470000B4012242012803D10021054AEB
:1028B000116005E0022803D10021024A203A11608C
:1028C00070470000B4012242012806D10749C968B7
:1028D00081F40051054AD16007E0022805D104497E
:1028E000096881F02001024A116070470010014020
:1028F0000C18014070477047416851B14168491E4A
:10290000416031B9012141700178012901D181680B
:102910004160704710B504462046FFF7BBFE10BD6E
:1029200000BF054A128802F04002002AF9D0C2B264
:10293000014B1B1D1A8070470038014010B504463A
:1029400021460548FFF7D5F800BF80210248FFF770
:1029500002F80028F9D010BD00380140FFF7BCFE96
:10296000FFF7BBFE4FF41650FFF7CAF84FF41650AE
:10297000FFF71CF94FF41650FFF76EF9FEF716FF3C
:102980000CA0FFF7E5F90EA11348FFF7BDF9FEF71C
:1029900073FF0DE00120FFF787FF4FF47A70FFF718
:1029A000B9FF0120FFF770FF4FF47A70FFF7B2FF15
:1029B000F0E7000042656570204F6E210D0A0000AF
:1029C00020486172647761726520696E6974204F76
:1029D0004B20210D0A0000000038014048656C6C56
:1029E0006F2143616E20492068656C7020796F7596
:1029F0003F200D0A20312E5265706C792041433AF8
:102A000057652077696C6C207072696E74662074EB
:102A1000686973204E6F64652E200D0A20322E5295
:102A200065706C792041443A57652077696C6C2059
:102A300053656E64206120646973747265737320DA
:102A40007369676E616C210D0A0000006C2A000832
:102A500000000020940000009C1D0008002B0008CE
:102A600094000020B4070000AC1D00080000000026
:102A70000000000000000000000000000000000056
:102A800001020304000054656D7054440000475077
:102A90005300474400005F5F5F5F5F5F5F5F000060
:102AA0000000000000000000000000000000000026
:102AB0000000000000000000000000000000000016
:102AC000000000000000000000000000BA4DE842D5
:102AD000DCDF20420000604200A24A040000000047
:102AE00000000000010203040607080900000000BE
:102AF0000102030401020304060708090204060890
:04000005080000ED02
:00000001FF
