:020000040800F2
:10000000901500207D0200085F3400085D2700087D
:100010005B340008C9220008CF4600080000000039
:100020000000000000000000000000002140000867
:10003000CD22000800000000093F00080D41000823
:10004000970200089702000897020008970200082C
:10005000970200089702000897020008970200081C
:10006000970200089702000897020008970200080C
:1000700097020008970200089702000897020008FC
:1000800097020008970200089702000897020008EC
:1000900097020008970200089702000897020008DC
:1000A00097020008970200089702000897020008CC
:1000B00097020008970200089702000897020008BC
:1000C00097020008970200089702000897020008AC
:1000D00097020008F9410008154200086142000833
:1000E00097020008970200089702000800F002F843
:1000F00000F0B4F80AA090E8000C82448344AAF10E
:100100000107DA4501D100F0A9F8AFF2090EBAE80B
:100110000F0013F0010F18BFFB1A43F0010318473B
:10012000C46F0000E46F00000A444FF0000C10F8A8
:10013000013B13F0070408BF10F8014B1D1108BF65
:1001400010F8015B641E05D010F8016B641E01F805
:10015000016BF9D113F0080F1EBF10F8014BAD1C55
:100160000C1B09D16D1E58BF01F801CBFAD505E073
:1001700014F8016B01F8016B6D1EF9D59142D6D3CD
:10018000704700000023002400250026103A28BFF5
:1001900078C1FBD8520728BF30C148BF0B607047F9
:1001A0006E2900F00385702900F0F381662906F0BE
:1001B0003986652906F03686672906F03386612977
:1001C000AFF3008003681B0A28BF41F08001692952
:1001D00000F06481642900F06181752900F05E817E
:1001E0006F2901F01280782900F0BF81E92900F021
:1001F000AD87E42900F0AA87F52900F0A787EF2949
:1002000001F00F80F82900F0BE810368DB0928BFE8
:1002100041F08001632900F01C87732900F02187D9
:10022000E32901F0F380F32901F0F8800020704702
:100230001FB59DE8030000F00DFC01F039F8040043
:100240000020002105F008FF401C60600020002114
:1002500005F018FFE0601FBD10B510BD01F0CFF92B
:100260001146FFF7E5FF04F0C1FD01F0FBF903B40F
:10027000FFF7F2FF03BC04F003FC000009488047CD
:1002800009480047FEE7FEE7FEE7FEE7FEE7FEE778
:10029000FEE7FEE7FEE7FEE704480549054A064B90
:1002A0007047000099410008ED000008900F002001
:1002B000901500209011002090110020704770B51B
:1002C000064600F0A7FB056806F10B0020F00704C6
:1002D000B4429CBF002070BD2B466A68BAB110685A
:1002E000A04210D304F1080188423CBF5068586016
:1002F00007D35168101941601168091B01605860EB
:100300001460101D70BD13465268002AE7D12146C3
:10031000284600F08BFB0028DED170BD70B5044686
:10032000051F00F077FB0068002C14BF446870BD07
:10033000002C18BFAC423CBF20466468F8D301686B
:100340000A18AA4218BF456003D12A68054611441D
:10035000016028684119A1421CBF6C6070BD6168D2
:10036000696021680844286070BD10B5044600F03B
:1003700049FB0068005DC00602D504F1200010BDF5
:10038000204610BD7CB51D4616460C00009001D0DD
:100390002044401E074B7B442A4669460190304664
:1003A00000F02DFE05461CB10020694600F03AFE23
:1003B00028467CBD950C00000FB4044910B503AA73
:1003C000029800F053FE10BC5DF814FB1C000020E6
:1003D0000FB41CB5084B06AA7B44694600900598EB
:1003E00000F00DFE04460020694600F01BFE20468A
:1003F0001CBC5DF814FB0000490C000070B50446FD
:1004000085690068C10601D5302600E02026C007B6
:1004100007D070BDD4E9012130469047206A401CC6
:1004200020626D1EF6D570BD70B5044685690078F2
:10043000C00707D170BDD4E9012120209047206A70
:10044000401C20626D1EF6D570BD70B50C46054689
:10045000012A05D02878800600D5EA69002302E049
:10046000012305E05B1C934202D2E05C0028F9D135
:10047000A869E618C01AA861286A184428622846A4
:10048000FFF7BCFF04E0D5E9012114F8010B904708
:10049000B442F8D32846FFF7C7FF70BD2DE9F041FD
:1004A0000646002410687529314616A510D000F0C4
:1004B00012FB002802DA404213A507E031688A07E0
:1004C00001D512A502E0490704D511A5012401E0D8
:1004D00000F00AFB00210A2206F1240709E0B0FB24
:1004E000F2FCB0FBF2F302FB1C00303078541846EB
:1004F000491C0028F3D123462A463046BDE8F04186
:1005000000F0FBBA000000002D0000002B000000EE
:1005100020000000F0B40D460188090502D5214CE9
:100520007C4402E01F4C7C440E34002100F1240680
:1005300008E002F00F071209E75D42EA03721B09A7
:100540007754491C52EA0307F3D1027800231207BB
:1005500004D5702D06D009B1022311342246F0BC17
:1005600000F0CBBA01231034F8E770B504460D460D
:100570002146106800F0B8FA024629462046BDE838
:1005800070400023C6E7D21D22F00703D3E9002301
:10059000C0E70368126843F0200303600823C361C7
:1005A0000023B7E7FF6900002DE9F05F89460446A4
:1005B0004FF0000ADFF874B1FB44C0F820A02046D9
:1005C000E1688847002874D0252806D0D4E90121A5
:1005D0009047206A401C2062F1E700265F462046D3
:1005E000E16888472028054607DB312D05D27819B8
:1005F00010F8200C08B10643F1E7B00701D526F04A
:100600000406C4F81CA00027C4F818A02A2D09D09D
:10061000284604F02EFA38B304EB8708303DC8F8BA
:10062000185019E059F8041B204604EB8702916129
:10063000E1688847012F054618D1E069002820DAD3
:1006400026F020061DE0D8F8180000EB800005EB2E
:1006500040003038C8F818002046E1688847054651
:1006600004F007FA0028EED1012F0AD02E2D08D170
:100670002046E16888477F1C0546022F46F0200689
:10068000C4DBA069002803DA404246F00106A061FD
:10069000F00701D026F010066C2D0BD0682D09D084
:1006A0004C2D39D06A2D35D0742D35D07A2D33D0DC
:1006B00016E038E0E1682F4620468847B8420546F4
:1006C00009D16C2F26D04FF48060E16806432046A4
:1006D0008847054604E06C2F1AD04FF4807006431B
:1006E0000DB3A5F14100192802D8203546F4006663
:1006F0004A462946204626604E46FFF751FD80B106
:1007000001280BD0F61D26F0070000F1080956E776
:100710004020E4E78020D8E70020D6E706F104096E
:100720004DE7284652E7206ABDE8F09F8F69000038
:1007300070B5064600F072F90468054630460A2294
:10074000002100F079FD2C6070BD401ECAB210F887
:10075000011F8A4202D00029F9D10020704710B54C
:10076000431E13F8014F002CFBD105E011F8014B9B
:10077000002C03F8014B03D0521EF7D20021197050
:1007800010BD30B505460B462A4613F8014B12F84A
:10079000010B08B1A042F8D01CB1002802D06D1C9A
:1007A000F1E7284630BD10B5431C02E010F8011BEC
:1007B00071B18107FAD14FF0013202C88C1A8C4313
:1007C00014EAC211F9D0C01A0A0603D0C01E10BD27
:1007D000C01A10BD0A0401D0801E10BD0902FCD051
:1007E000401E10BD40EA010370B59B072ED14FF0AB
:1007F0000136042A2AD308C810C99D1B9D43121F25
:1008000015EAC61517D0D8B2E1B2401A50EA056110
:1008100010D198B2A1B2401A50EA05410AD123F092
:100820007F4024F07F41401A50EA052102D1180E82
:10083000A0EB146070BDA342DBD018BA21BA884285
:1008400001D9012070BD4FF0FF3070BD0AB9002002
:1008500070BD10F8013B11F8014B63B1A3420AD1FE
:10086000521E08D010F8013B11F8014B1BB1A342F6
:1008700001D1521EEDD1181B70BD032A40F2308009
:1008800010F0030C00F0158011F8013BBCF1020FD1
:10089000624498BF11F801CB00F8013B38BF11F852
:1008A000013BA2F1040298BF00F801CB38BF00F869
:1008B000013B11F0030300F02580083AC0F00880E6
:1008C00051F8043B083A51F804CBA0E80810F5E7CA
:1008D000121D5CBF51F8043B40F8043BAFF30080AD
:1008E000D20724BF11F8013B11F801CB48BF11F822
:1008F000012B24BF00F8013B00F801CB48BF00F8F2
:10090000012B704710B5203AC0F00B80B1E81850A9
:10091000203AA0E81850B1E81850A0E81850BFF4E9
:10092000F5AF5FEA027C24BFB1E81850A0E8185088
:1009300044BF18C918C0BDE810405FEA827C24BFDC
:1009400051F8043B40F8043B08BF7047D20728BF6A
:1009500031F8023B48BF11F8012B28BF20F8023BB9
:1009600048BF00F8012B70474FF000020429C0F087
:10097000128010F0030C00F01B80CCF1040CBCF1D1
:10098000020F18BF00F8012BA8BF20F8022BA1EB23
:100990000C0100F00DB85FEAC17C24BF00F8012B08
:1009A00000F8012B48BF00F8012B70474FF0000200
:1009B00000B5134694469646203922BFA0E80C5055
:1009C000A0E80C50B1F12001BFF4F7AF090728BF30
:1009D000A0E80C5048BF0CC05DF804EB890028BFAC
:1009E00040F8042B08BF704748BF20F8022B11F0D5
:1009F000804F18BF00F8012B704770477047704751
:100A00007047000010B500F053FC001D10BD00BF82
:100A10004956000000487047340F002000487047D6
:100A20002C0F0020704770477047704738B5044658
:100A30000A4600206946AFF30080002808BF38BD91
:100A400002460099204600F037FC012038BD012005
:100A500000F0CEBDF8B5AFF30080054600200C468F
:100A6000102000BF0646A819A0420DD9324669469B
:100A70000020AFF30080070008BF00F0B9FD009828
:100A8000A04218BF0546C419FFF7C4FF056007461A
:100A9000F01D20F007004619284600F00AF8B4427D
:100AA00008BFF8BDA21B31463868BDE8F84000F029
:100AB00003BC00210160C0E901107047102070479D
:100AC00010B5FFF7ABFF006810BD10B50446FFF787
:100AD000A5FF046010BD09684A0501D540B2704702
:100AE000C905FCD500B2704709684A0501D5C0B2F6
:100AF0007047C905FCD580B270472DE9F0470D4617
:100B000099469246044600F124080168880604D5F7
:100B1000E06921F01001216000E00120A84201DD20
:100B2000471B00E00027A1697A1902EB0900081AA7
:100B3000A0612078C00602D42046FFF75FFC0026A3
:100B400008E0D4E901211AF806009047206A401C09
:100B5000761C20624E45F4DB2078C0060AD520467C
:100B6000FFF74CFC06E0D4E9012130209047206AD1
:100B7000401C2062381EA7F10107F4DC07E0D4E92D
:100B8000012118F805009047206A401C2062281EA9
:100B9000A5F10105F3DC2046FFF746FC20780006AE
:100BA00002D50220BDE8F0870120FBE7116802684A
:100BB000006A530501D508700AE0D30501D5088005
:100BC00006E0130603D5C217C1E9000200E0086081
:100BD0000120704770472DE9FF4F0C461E464FF02D
:100BE000FF378BB0D2E90001DDF860800A908A46B9
:100BF000C1F30A5505B93D46002108464FF00000F3
:100C0000BAF1000F00F4400005DA00EB80004FF469
:100C1000400101EA50004FEA9059B9F1010F00DD9F
:100C2000B9460A9850EA4A000ED044F61050A5F290
:100C3000FF3545432F14B8F1000F1ED07542291E11
:100C40001EDDC9F100021CE0B8F1010F4FF00000F9
:100C500001D0302103E0F24305E02154401CB042B2
:100C6000FBDB30460022002121540B99C1F808809B
:100C7000C1E900200FB0BDE8F08FBD1B6D1CDEE7A1
:100C80004A4600DA694206A800F01CFC06AB93E86D
:100C9000070003AB83E8070050460A9900F071FD96
:100CA0008DE80700A0F500501F3800900398002D34
:100CB0000ADD42F21F014A460844002303A90390BB
:100CC000684600F0DAFF09E0A0F500504A461F38F8
:100CD000002303A90390684600F0E4FF8DE80700B5
:100CE0000004000C03D04FF0FF30410800E0104634
:100CF000B8F1000F03D00022009215461EE0751EC9
:100D000005D400F0F3FA303262556D1EF9D5B346C2
:100D10000122084302D000227F1C04E02078302802
:100D200001D100227F1E002A099784D01DE0112DD9
:100D300007DA00F0DBFA303262556D1C50EA01022E
:100D4000F5D1084302D00098C8B10EE00021681E1A
:100D500005E0235C625C63542254401E491C8142BE
:100D6000F7DBAB46A81B401E0990002004F80B00DF
:100D70000B98099AC0F80880C0E9002B7AE7112681
:100D80004FF0000857E72DE9F04F88460446D21D82
:100D900022F0070191B0D1E90001CDE90A0103F089
:100DA000DCFD02460B98C00F01D02D2007E0206823
:100DB000810701D52B2002E0202101EAC000032A8F
:100DC000099001D0072A05DB03464146204600F082
:100DD000D3FA0BE12078800601D5E06900E0062017
:100DE000B8F1650F814606D0B8F1660F18D0B8F19A
:100DF000670F70D131E00020B9F1110F009001DBD5
:100E0000112301E009F101030AAA01A90CA8FFF7C7
:100E1000E2FEDDE90C70002609F10105834647E09A
:100E200001204B4600904FF000470AAA01A90CA8E8
:100E3000FFF7D1FEDDE90DB00C995D46002610B933
:100E400009F101000D18B9EB050003D4C0F1FF361C
:100E500009F10105A5EB09002BE0B9F1010F01DA59
:100E60004FF001090020B9F1110F0090484601DD53
:100E7000112300E003460AAA01A90CA8FFF7ABFE64
:100E8000DDE90C704D4600268346207800070AD421
:100E9000AB4500DA5D4601A8012D04DD411911F8CA
:100EA000011C302907D04F4502DA17F1040F04DA8C
:100EB000012082460FE06D1EEEE7002F02DCED1BE5
:100EC0003E4403E0781CA84200DD7D1CB81B00F105
:100ED000010A4FF000472078000703D4AA4501DB40
:100EE0004FF0FF3A0021B7F1004F0DF143088DF8A4
:100EF000431024D002202B23002F01DA7F422D2320
:100F00000A21021EA0F1010000DC5FB197FBF1FC99
:100F100097FBF1F201FB1C7C17460CF1300C08F832
:100F200001CDEEE7A8F1010003702188090501D584
:100F3000452100E06521A0F1010800F8011C099895
:100F40000FA9A1EB0807FF1D00B10120411901EB1A
:100F5000EA70A1693844081A401EA0612078C006D2
:100F600002D42046FFF74AFA099828B1D4E90121B2
:100F70009047206A401C20622078C00622D5204677
:100F8000FFF73CFA1EE0002E04DBB34502DD01A8AA
:100F9000805D00E03020D4E901219047206A401CA8
:100FA0002062761CAAF101005FEA000A0AD100F073
:100FB0007FF9C0680168405CD4E901219047206A4C
:100FC000401C2062281EA5F10105DCDC07E0D4E905
:100FD000012118F8010B9047206A401C2062381E3E
:100FE000A7F10107F3DC2046FFF71EFA032011B03A
:100FF00041E6000001694A1C02610878704700B5AB
:101000008FB0CDE901310021059105497944CDE941
:10101000031011466846FFF7C7FA0FB000BD000085
:10102000E5FFFFFF0A6802F8010B0A607047D1E98B
:1010300000239A4202D2531C0B601070704710B507
:10104000436913B1AFF3008001E0FFF7FEF901201F
:1010500010BD127800F124010A7000224A700122AA
:10106000EDE711684FF0FF32E9E70000074B70B57C
:101070000D467B44FFF7C3FF0446284600F094FA70
:1010800010B14FF0FF3070BD204670BD5B3D0000D9
:101090002DE9FF5F15468A460446DFF8AC80F84428
:1010A0000027D8E900103E46CDE9001010E03AF8DC
:1010B00016106A4602A800F07BFA411C07D021787E
:1010C000890603D5E269391891420DD80744761C88
:1010D0002078800602D5E069B84205DDAE42E6DB45
:1010E0003AF816000028E2D1A069C01BA061204692
:1010F000FFF784F9D8E90010CDE90010002017E0CF
:101100003AF818106A4602A800F052FAB0F1FF3F10
:1011100081460BD000250DF1080B05E0D4E9012133
:101120001BF8050090476D1C4D45F7D308F10100F1
:10113000B0428046E4DB206A384420622046FFF754
:1011400073F9BDE8FF9F0000465F00002DE9F04104
:101150008046D21D22F007020025D2E90002F529BF
:1011600015A614D0011E72F1000106DA0023D0EB9F
:10117000030063EB020211A608E0D8F800108B0709
:1011800001D50FA602E0490701D50EA6012511469B
:10119000002408F1240704E000F0A8F830323A55A2
:1011A000641C50EA0102F7D12B46324621464046E4
:1011B000BDE8F041FFF7A1BC000000002D000000D9
:1011C0002B0000002000000030B4002100F12404B6
:1011D00008E002F00705D208303542EA4372DB0826
:1011E0006554491C52EA0305F3D10468002310A298
:1011F000250707D5A40600D421B1C46901230DA297
:10120000641EC46130BCFFF778BC10B504462146AB
:101210001068FFF769FC02462046BDE81040002335
:10122000D2E7D21D22F00701D1E90023CCE700006C
:1012300000000000300000002DE9F04791460F4605
:1012400080460446002614F8015B2DB1FFF7DAFB57
:101250000068405DC007F6D12B2D02D02D2D18D08F
:10126000641E4A463946204600F0DCF827B139684A
:10127000A14201D1C7F800804FF0020471050BD5DF
:101280004042002803DDFFF7C9FB0460A007BDE86A
:10129000F08746F48066E4E70028F8DAFFF7BEFB43
:1012A00004606FF00040F2E7004870472C0F002008
:1012B000004870474C0F0020034640688C460028C9
:1012C00018BF88423CBF03464068F8D318681844EA
:1012D000884207D00CF1030020F00700001D411ADE
:1012E000521A0146081D0A60FFF718B830B5B0F170
:1012F0000A024FEA900E71F100034EEA817EB0EBD4
:101300000E0061EB91014FEA101E4EEA017E10EBD8
:101310000E0041EB11114FEA102E4EEA016E10EB58
:101320000E0041EB11214FEA104E4EEA014E10EB38
:101330000E0041EB1141401841F100014FEAD0008D
:1013400040EA41704FEAD10110EB80054FEA810479
:1013500044EA907444EB01046D1944EB0404521BFD
:10136000A3414FF0000348BF0A3200D530BD401CF6
:1013700041F1000130BD00002DE9F0411F46044657
:1013800003260168072A01F4006004DB08B116A5F2
:1013900005E016A503E008B115A500E015A521F0AC
:1013A00010002060A069C01EA0610FB1401EA061A6
:1013B0002046FFF723F84FB1D4E901213846904782
:1013C000206A401C2062C01C206206E0206AFAE706
:1013D000D4E9012115F8010B9047761EF8D220467A
:1013E000FFF722F8BDE8F0814E414E006E616E00BD
:1013F000494E4600696E660010B5436913B1AFF3FC
:10140000008001E0FFF744FE012010BD128800F1CA
:10141000240182840022C2840122EDE711684FF08A
:10142000FF32E9E72DE9F05F824615468B4600273B
:101430000AF10104B9460078302801D09DB113E0CB
:1014400014F8010B0127782803D0582801D045B1A2
:101450000AE00DB1102D07D1002714F8010B10255B
:1014600002E0082500E00A250026B0460EE005FB54
:10147000080005FB06F101271FFA80F801EB104672
:10148000B6F5803F00D3B94614F8010B294600F0A9
:10149000DBF80028EBDABBF1000F05D00FB1641EBA
:1014A00000E05446CBF80040B9F1000F06D0FFF73A
:1014B000B5FA02210160C81EBDE8F09F48EA064067
:1014C000FAE700002DE9F047814616468AB0354814
:1014D00078440DC88DE80D0032487844801C03AC78
:1014E0000DC884E80D0041F69B300844372190FB7D
:1014F000F1F290FBF1F5A5F1800501FB12041B3C14
:1015000002D56442012000E00020DFF898A0804668
:101510000027FA44AAF1BE0A0EE0E0070AD03246DC
:10152000684607EB470101230AEB810100F0BAFB93
:101530008DE8070064107F1C002CEED1194F7F440A
:10154000AE3F19E0E80715D007EB04100DF1180ABB
:1015500090E80E008AE80E00C068F04201D19819A8
:1015600008903246012306A903A800F09BFB03ABB9
:1015700083E807006D10641C002DE3D14FF00103D8
:1015800032466946B8F1000F03A802D000F075FB9F
:1015900001E000F087FBC9E90001C9F808200AB0A2
:1015A000BDE8F087A05B0000007B00F08000704782
:1015B00070B516460C460546FFF724FA036893F803
:1015C0000101012806D0FF2C0FD8185D68B1012059
:1015D0002C7070BDD3F807013246214603F2071381
:1015E00003442846BDE8704018474FF0FF3070BDF7
:1015F00010B500F045F8BDE8104000F03CB8754665
:10160000FFF752FEAE4605006946534620F007003C
:10161000854618B020B5FEF73FFEBDE820404FF0EC
:1016200000064FF000074FF000084FF0000B21F0CC
:101630000701AC46ACE8C009ACE8C009ACE8C00999
:10164000ACE8C0098D4670473A2800D2303820F007
:101650002002412A01D3A2F13700884201D34FF082
:10166000FF30704710B50446AFF300802046BDE858
:101670001040FEF7FCBD002801D003F001BA70470E
:1016800010B5012805D0002103A000F061F8012069
:1016900010BD09A1F8E7000053494752544D454D8C
:1016A0003A204F7574206F662068656170206D6503
:1016B0006D6F7279000000003A2048656170206DFE
:1016C000656D6F727920636F7272757074656400F6
:1016D0004FF0013C50F8042B51F8043B9A4221D1C1
:1016E000A2EB0C03934313EACC1317D150F8042B4D
:1016F00051F8043B9A4215D1A2EB0C03934313EA31
:10170000CC130BD150F8042B51F8043B9A4209D169
:10171000A2EB0C03934313EACC13DBD04FF0000091
:10172000704700BFD01A01BAB1FA81F101F0180177
:1017300022FA01F0CB40C1F12001DBB2C0B2C01AE5
:101740002CFA01F3D11A914311EAC311E6D1704783
:1017500070B505460C460A2000E06D1C03F092F9B6
:1017600035B128780028F8D102E0641C03F08AF92A
:1017700014B120780028F8D1BDE870400A2003F0A9
:1017800081B95FEA400C08BF91F0000F4FEA8C234B
:101790004FEAC12243EA51514FEA1C5018BF00F5ED
:1017A000F0404FEA300018BF41F000415FEA6C5C46
:1017B00000F02980BCF1FF3F08BF40F08040704737
:1017C000130C06BF12044FF0100C4FF0000C130E58
:1017D00004BF12020CF1080C130F04BF12010CF12C
:1017E000040C930F04BF92000CF1020CD30F04BF42
:1017F00052000CF1010C11464FF00002A0F11F0045
:10180000A0EB0C00704711F0004F08BF704731F09B
:1018100000413FF4D5AF0B0C06BF09044FF0100C8C
:101820004FF0000C0B0E04BF09020CF1080C0B0F5B
:1018300004BF09010CF1040C8B0F04BF89000CF1EB
:10184000020CCB0F04BF49000CF1010CCCF12003BA
:10185000A0EB0C0022FA03F302FA0CF241EA0301B6
:1018600000F10100704720F07F4C80EA030023F074
:101870007F47ACEB070303F57C5300F0004003F116
:10188000FF032DE980494FEA154B09B44FEA144391
:1018900025EA0B4E24EA03480FF2042606EB132731
:1018A00049083E785FEA320203FB0667C7F5000786
:1018B00007FB06F64FEA54374FEAD64606F1020612
:1018C00007FB066CCCF1005C4FEA1C472CEA074C86
:1018D00007FB06F40CFB06F504EB15464FEA9616DB
:1018E00034BF00204FF000404FEAD13706FB07FC21
:1018F0004FEA1C4C0CFB0BF7D21B03FB0CF761EB04
:1019000007010CFB0EF7B0EB074072EB17420CFB24
:1019100008F734BFA2EB0742B2EB074261EB174175
:101920004FEA0C444FEA910706FB07FC4FEA1C4CB8
:101930000CFB0BF7B0EBC74072EB573203FB0CF715
:1019400034BFA2EBC742B2EBC74261EB57310CFB8D
:101950000EF7B0EBC70072EB57720CFB08F734BF01
:10196000A2EBC702B2EBC70261EB5771039F4FEACC
:10197000816141EA921104EBCC044FEAD1374FEA7E
:10198000826206FB07FC42EA90124FEA80604FEA4F
:101990001C4C0CFB0BF7D21B03FB0CF761EB070194
:1019A0000CFB0EF7B0EB074072EB17420CFB08F78D
:1019B00034BFA2EB0742B2EB074261EB17414FEA9B
:1019C0008C554FEA910704EB9C2406FB07FC4FEA79
:1019D0001C4C0CFB0BF7B0EBC74072EB573203FB10
:1019E0000CF734BFA2EBC742B2EBC74261EB5731F1
:1019F0000CFB0EF7B0EBC70072EB57720CFB08F74D
:101A000034BFA2EBC702B2EBC70261EB577115EB13
:101A10004C254FEA816141EA92114FEA82624FEA16
:101A2000D13742EA901206FB07FC44F100044FEA6A
:101A300080604FEA1C4C0CFB0BF7D21B03FB0CF72E
:101A400061EB07010CFB0EF7B0EB074072EB17429E
:101A50000CFB08F734BFA2EB0742B2EB074261EB85
:101A6000174115EB1C154FEA813141EA92414FEACB
:101A7000823242EA90424FEA80304FEA0C7644F1DB
:101A8000000448EA03434EEA0B484FF0000EB2EB65
:101A9000080C71EB030724BF624639464EEB0E0E6D
:101AA0004FF0000B0018524149414BEB0B0BB2EBCE
:101AB000080C71EB03077BF1000B24BF624639462B
:101AC0004EEB0E0E4FF0000B0018524149414BEB0C
:101AD0000B0BB2EB080C71EB03077BF1000B24BF7F
:101AE000624639464EEB0E0E51EA020718BF46F029
:101AF000010616EB0E7655F1000254F1000103D5F4
:101B0000BDE88901BDE80088BDE88901BDE800485D
:101B1000B619524141EB0101A3F1010370478080E6
:101B20007F7E7D7C7B7A7978777676757473727137
:101B300071706F6E6E6D6C6C6B6A6A6968686766EF
:101B400066656464636362616160605F5F5E5E5D81
:101B50005D5C5C5B5B5A5A595958585757565655F5
:101B600055555454535352525251515050504F4F57
:101B70004F4E4E4D4D4D4C4C4C4B4B4B4A4A4A49A7
:101B800049494848484747474746464645454544EA
:101B90004444444343434342424242414141002B77
:101BA0009C4630D477002BD01CB54FEA370703B4DE
:101BB0004FF010004FF01001BAF1000F06D0BCF149
:101BC000000FDCBF40F0080040F008014FF00000BB
:101BD0000FBCBDE810400BF1010BBBF1010F08BFBA
:101BE0005FEA170722BF12F1010211F101014FF064
:101BF000004143F1000300F0004043EA0000704759
:101C0000F9D35708D0E746EA064613F1400F4FEAEA
:101C100016461FDD13F1200FDFBF16430A460021D1
:101C200020335B42BED0C3F1200746EA064602FAE3
:101C300007F74FEA164646EA0706C3F1200722FADD
:101C400003F201FA07F721FA03F14FF0000342EA29
:101C50000702A7E746EA020646EA06464FEA1646A4
:101C600046EA0106BCBF46EA0646360C4FF00003C2
:101C70004FF000024FF0000194E72DE9804C9A46A6
:101C8000934670B491E8380007C831EA400C48BF69
:101C900034EA430C03D5FFF7E6FDFFF780FFF0BC05
:101CA000BDE8008C2DE9804C9A46934670B491E8CB
:101CB000380007C810F0804F08BF13F0804F03D1E1
:101CC00000F005F8FFF76BFFF0BCBDE8008C20F0DA
:101CD0007F4780EA030023F07F4C07EB0C03A3F55A
:101CE0007C5300F00040A3F1FE0392F0000F00F0DF
:101CF000B38095F0000F00F077802DE901494FEA9D
:101D000011404FEA144621EA004800FB06FC24EA91
:101D1000064708FB06F607FB08F800FB07F718EB79
:101D200006484CEB164C4FEA124B18EB07484FEAAB
:101D300015464CEB174022EA0B4E0BFB06FC25EA3E
:101D400006470EFB06F607FB0EFE0BFB07F71EEB26
:101D5000064E4CEB164C4FF000061EEB074E4CEBBC
:101D6000174B18EB0B0840F1000018EB0E0B58EB6B
:101D7000000840F100008F1A4FF000013CBFC9433A
:101D8000661B14BFB5EB040C00213CBFC943F61B16
:101D90004FEA17444EEA8E0E27EA04454FEA1C47E5
:101DA00004FB07622CEA074C05FB07F70CFB05F662
:101DB00004FB0CFC16EB074642EB174216EB0C46F5
:101DC00042EB1C421BEB060658EB0202414146EA7D
:101DD0009E0601D5BDE80189B619524141EB0101CA
:101DE000A3F10103BDE801894FEA14454FEA114709
:101DF00024EA054621EA074C05FB07F406FB07F732
:101E00000CFB06F105FB0CFC11EB074144EB1744FE
:101E10004FEA124711EB0C4144EB1C4422EA074CF9
:101E200005FB07F206FB07F70CFB06F605FB0CFCAF
:101E300016EB074642EB174216EB0C4642EB1C45ED
:101E40006A1854F1000148BF7047B619524141EB7E
:101E50000101A3F10103704795F0000F37D04FEA5D
:101E600011424FEA144721EA024624EA074C02FBDA
:101E700007F106FB07F70CFB06F402FB0CFC14EB66
:101E8000074441EB17414FEA154714EB0C4441EB73
:101E90001C4125EA074C02FB07F506FB07F70CFB84
:101EA00006F602FB0CFC16EB074645EB174516EB56
:101EB0000C4645EB1C42121951F1000148BF704716
:101EC000B619524141EB0101A3F1010370474FEAFA
:101ED00014454FEA114724EA054621EA074C05FB61
:101EE00007F106FB07F70CFB06F24FF0000605FBB7
:101EF0000CFC12EB074241EB174112EB0C4251EB89
:101F00001C4148BF7047921841EB0101A3F1010346
:101F1000704700002DE9F04788B04FF0000A0BE051
:101F20000AF10A005049085CCAF103014F4A5054B3
:101F30000AF1010000F0FF0ABAF1040FF0DB4B4890
:101F400000684B4908600846006804F057FE0446E4
:101F500022460B4647A0FEF72FFA4FF0000A0BE08F
:101F60000AF112004049085CCAF103013F4A50548B
:101F70000AF1010000F0FF0ABAF1040FF0DB3B4860
:101F80000068404908600846006804F037FE0446CF
:101F900022460B463CA0FEF70FFA4FF0000A0BE07A
:101FA0000AF11A003049085CCAF103012F4A505463
:101FB0000AF1010000F0FF0ABAF1040FF0DB2B4830
:101FC0000068374908600846006804F017FE0446B8
:101FD00022460B4633A0FEF7EFF94FF0000A0BE064
:101FE0000AF122002049085CCAF103011F4A50543B
:101FF0000AF1010000F0FF0ABAF1040FF0DB1B4800
:1020000000682F4908600846006804F0F7FD0446A0
:1020100022460B462BA0FEF7CFF92948006804F0B2
:10202000EDFD04460D461E48006804F0E7FD064637
:102030000F461448006804F0E1FD804689460C48CC
:10204000006804F0DBFD02460B46CDE90089CDE9CE
:102050000267CDE90445CDE906011F491F48FEF797
:10206000B7F908B0BDE8F087920B002054000020BB
:102070006C00002044435F76616C75653A202566EC
:102080000D0A0000740000206C6174697475646549
:102090005F76616C75653A2025302E39660D0A0031
:1020A000780000206C6F6E6769747564655F766197
:1020B0006C75653A2025302E39660D0A0000000047
:1020C0007C000020616C7469747564655F76616C76
:1020D00075653A25660D0A00A0700008310E0020D3
:1020E0002DE9F04788B04FF0000A0BE00AF10A0032
:1020F0005049085CCAF103014F4A50540AF10100EB
:1021000000F0FF0ABAF1040FF0DB4B4800684B49BE
:1021100008600846006804F071FD044622460B463C
:1021200047A0FEF749F94FF0000A0BE00AF1120050
:102130004049085CCAF103013F4A50540AF10100CA
:1021400000F0FF0ABAF1040FF0DB3B480068414998
:1021500008600846006804F051FD044622460B461C
:102160003DA0FEF729F94FF0000A0BE00AF11A0032
:102170003049085CCAF103012F4A50540AF10100AA
:1021800000F0FF0ABAF1040FF0DB2B480068364973
:1021900008600846006804F031FD044622460B46FC
:1021A00032A0FEF709F94FF0000A0BE00AF1220015
:1021B0002049085CCAF103011F4A50540AF101008A
:1021C00000F0FF0ABAF1040FF0DB1B4800682B494E
:1021D00008600846006804F011FD044622460B46DC
:1021E00027A0FEF7E9F82548006804F007FD04463B
:1021F0000D461D48006804F001FD06460F461548CF
:10220000006804F0FBFC804689460C48006804F036
:10221000F5FC02460B46CDE90089CDE90267CDE920
:102220000445CDE906011AA12648FEF7D1F808B009
:10223000BDE8F087600B0020540000205C00002007
:1022400054656D705F76616C75653A25302E326627
:102250000D0A00006000002048756D5F76616C75A6
:10226000653A25660D0A0000680000204C545F7630
:10227000616C75653A25660D0A0000006400002057
:10228000434F325F76616C75653A25660D0A000032
:102290007B2254656D70223A25302E32662C2248FE
:1022A000756D223A25302E32662C224C54223A2566
:1022B000302E32662C22434F32223A25302E32669F
:1022C0007D000000E10D002000BFFEE77047000028
:1022D00010B580210348FEF747FB00200249088023
:1022E00010BD0000E00A00200E00002070B5054679
:1022F000002400BF00F088F980B90DA10E48FEF758
:1023000040FA044654B13A212046FEF71EFA04462C
:1023100014B1641C204670BD0020FCE7052002F0CB
:1023200051FD681E85B2002DE4DC0020F3E70000BB
:102330004950442C00000000E00A002008B50121AB
:10234000042001F0F3FD10208DF803008002ADF8A9
:10235000000003208DF802006946404800F06EF945
:1023600000224FF480413D4800F0F3F9FA2002F0DA
:1023700029FD01229103394800F0EBF94FF4FA707E
:1023800002F020FDFFF7A4FF35A1374802F0A8FABC
:1023900003E04FF4FA7002F015FD34A134A000F010
:1023A000E5F80028F5D134A12F4802F099FA03E0AE
:1023B0004FF4FA7002F006FD2EA132A000F0D6F81C
:1023C0000028F5D103E04FF4FA7002F0FBFC29A1DC
:1023D0002FA000F0CBF80028F5D131A1224802F05F
:1023E0007FFA03E04FF4FA7002F0ECFC1FA12FA07B
:1023F00000F0BCF80028F5D130A11B4802F070FABB
:1024000003E04FF4FA7002F0DDFC18A12FA000F0F9
:10241000ADF80028F5D131A1134802F061FA03E0CC
:102420004FF4FA7002F0CEFC2FA131A000F09EF81C
:102430000028F5D136A10C4802F052FA03E04FF41F
:10244000FA7002F0BFFC36A137A000F08FF8002828
:10245000F5D140A1044802F043FA08BD0010014044
:10246000302E2041540D0A00003801404F4B00002F
:1024700041540D0A00000000312E205253540D0A21
:102480000000000041542B5253540D0A000000007C
:1024900041542B544350434C4F53450D0A00000008
:1024A000322E2043574D4F44450D0A0041542B43D3
:1024B000574D4F44453D310D0A000000332E204159
:1024C000542B4357444843500D0A000041542B43BA
:1024D00057444843503D312C310D0A00342E2043DF
:1024E000574A41500D0A0000474F54204950000000
:1024F00041542B43574A41503D2237303731222C2B
:10250000223230323230383331220D0A00000000DE
:10251000352E2043495053544152540D0A000000B7
:10252000434F4E4E4543540041542B43495053545E
:102530004152543D22544350222C2262726F6B65EB
:10254000722E656D71782E696F222C313838330DFB
:102550000A000000362E20455350383236362049C6
:102560006E6974204F4B0D0A000000002DE9F04108
:1025700004460D46C8262046FEF715F987B23A46AE
:1025800021460D4802F0D0F90FE000F03DF848B9BF
:1025900029460A48FEF7F5F820B1FFF799FE00201A
:1025A000BDE8F0810A2002F00DFC301EA6F1010109
:1025B000CEB2EAD10120F3E700440040E00A002057
:1025C00030B589B004460D46FFF782FE2A4608A1C1
:1025D00001A8FDF7FDFE0AA101A8FFF7C7FF20B97A
:1025E0002A462146074802F09FF909B030BD000095
:1025F00041542B43495053454E443D25640D0A0038
:102600003E000000004400400A48008808B901204C
:1026100070470848008808490988884203D100208B
:1026200004490880F4E70348008803490880012032
:10263000EEE700000E000020100000202DE9F04120
:10264000024600250026002000230024002791F8E0
:1026500003C00CF00F0591F803C00CF0100CBCF196
:10266000000F03D091F802C04CEA050591F800C0B4
:10267000BCF1000F31D0146800202BE04FF0010CAA
:102680000CFA00F3B1F800C00CEA03069E4220D118
:1026900083004FF00F0C0CFA03F7BC4305FA03FC60
:1026A0004CEA040491F803C0BCF1280F06D14FF0A6
:1026B000010C0CFA00FCC2F814C00AE091F803C047
:1026C000BCF1480F05D14FF0010C0CFA00FCC2F828
:1026D00010C0401C0828D1D31460B1F800C0BCF170
:1026E000FF0F34DD546800202EE000F1080C4FF09D
:1026F000010808FA0CF3B1F800C00CEA03069E4288
:1027000021D183004FF00F0C0CFA03F7BC4305FAFC
:1027100003FC4CEA040491F803C0BCF1280F05D176
:1027200000F1080C08FA0CF8C2F8148091F803C004
:10273000BCF1480F07D100F1080C4FF0010808FA6E
:102740000CF8C2F81080401C0828CED35460BDE8B5
:10275000F0810AB1016100E0416170470EE0084973
:10276000C96881F40061064AD160002001E0411C83
:1027700088B242F210718842F9DB00BFEFE7000037
:102780000020014038B56F48092302221021009033
:10279000002000F0C5FF6B481230092302221921E6
:1027A0000090002000F0BCFF664824380923022274
:1027B00022210090002000F0B3FF6248243009235A
:1027C00002222B210090002000F0AAFF5E48112376
:1027D000022234210090002000F0A2FF5A4820304D
:1027E0001123022246210090002000F099FF574853
:1027F0001123022200210090032000F091FF534892
:1028000022301123022212210090032000F088FFC1
:102810004E4844301123022226210090032000F06C
:102820007FFF4848483809230222402100900320B6
:1028300000F076FF4548AA30112302225221009071
:10284000032000F06DFF4148663011230222002171
:102850000090052000F064FF3C48883011230222DC
:1028600012210090052000F05BFF3848443011230E
:10287000022226210090052000F052FF31484838FE
:102880000923022240210090052000F049FF2D4835
:1028900036380923022252210090052000F040FF23
:1028A00028482438092302225A210090052000F0EC
:1028B00037FF2448123809230222632100900520A3
:1028C00000F02EFF2248006804F0C4F90A2190FBB2
:1028D000F1F0C4B222463021032000F04BFF1C4827
:1028E000006804F0B7F90A2190FBF1F201FB120035
:1028F000C4B222463821032000F03CFF1549144899
:10290000006804F0C3F9054604F0A4F90A2190FB1D
:10291000F1F201FB1200C4B222464821032000F06C
:1029200029FF06223021052000F024FF062238214D
:10293000052000F01FFF06224821052000F01AFFA5
:1029400038BD00005C09002020070020C0070020DF
:102950005C0000200000204110B50446207B0128C7
:1029600002D12068FDF7DAFC002020606060A060E2
:10297000207310BD0246002301230DE002F07F000A
:102980000870D2092AB1087840F080000870491C0C
:1029900001E0184670475B1C042BEFDD4FF0FF3061
:1029A000F8E770B504460E460025206898B9012066
:1029B00020733046FDF783FC20602068E0B10020E2
:1029C0006060A66003E00020216848556D1CA06887
:1029D000A842F8D810E00220207303E0002021680C
:1029E00048556D1CA068A842F8D800206060A06817
:1029F000B04201D20020206070BD00002DE9FF5FD1
:102A000007460D4690463846FDF7CDFE86B228466D
:102A1000FDF7C9FE1FFA80FA4FF00009F01DFDF71F
:102A20004EFC04461CB9012004B0BDE8F09FF11D26
:102A30002046FDF799FF12A0016821608088A080E0
:102A4000324639462046FDF78AFE2846FDF7ABFEA2
:102A500083460120002100915B462A46CDE9020809
:102A6000019121460A2000F05FF910B94FF00009EA
:102A700001E04FF001092046FDF750FC4846D3E73E
:102A800024637273702F00002DE9FF4F83B08246DC
:102A90008B469146159C0025002002900F2701903F
:102AA0004846FDF780FE0FFA80F8B9F1000F03D118
:102AB000012007B0BDE8F08F08F10200384487B26A
:102AC000109808B145F00205129878B145F0040558
:102AD0001298FDF768FEC0B202901398FDF763FEEE
:102AE00001460298001D0844384487B2119820B16D
:102AF000012804D0022808D104E000BF07E045F017
:102B00000C0504E045F0140501E00220D1E700BF08
:102B1000149808B145F02405BAF1000F02D0BBF1BA
:102B2000000F01D10320C4E745F0C0055046FDF772
:102B30003AFE06465846FDF736FE3044001D38443E
:102B400087B239462046FFF72CFF206808B90420D9
:102B5000AFE739462068FDF707FF10216268501C77
:102B6000606020688154D4E90023D118781FFFF7F2
:102B700001FF00B201900198002804DA2046FFF717
:102B8000EBFE052095E7616801980844606000212C
:102B90006268501C60602068815404216268501C87
:102BA0006060206881544D216268501C606020681C
:102BB000815451216268501C606020688154542106
:102BC0006268501C6060206881546268501C6060BC
:102BD0002068815404216268501C60602068815420
:102BE0006168481C6060206845540698010A626864
:102BF000501C6060206881540698C1B26268501C05
:102C0000606020688154C8F307216268501C6060CE
:102C1000206881546268501C6060206800F802805F
:102C2000D4E90012881842464946FDF798FD6068CD
:102C30004044606005F00400B8B30026139808B95A
:102C400038A013901298FDF7AEFD86B2310A626883
:102C5000501C6060206881546268501C606020686D
:102C60008654D4E90012881832461299FDF777FD90
:102C70006068304460601398FDF795FD86B2310AB4
:102C80006268501C6060206881546268501C6060FB
:102C900020688654D4E90012881832461399FDF74B
:102CA0005EFD60683044606000BF05F08000C8B120
:102CB0005046FDF778FD86B2310A6268501C6060AC
:102CC000206881546268501C606020688654D4E992
:102CD0000012881832465146FDF741FD60683044C5
:102CE000606000BF05F04000C8B15846FDF75BFDCD
:102CF00086B2310A6268501C606020688154626844
:102D0000501C606020688654D4E90012881832464E
:102D10005946FDF724FD60683044606000BF002024
:102D2000C7E60000000000002DE9FF4F83B0834696
:102D300017469946139C002500260020029001901A
:102D40008046BBF1000F03D1012007B0BDE8F08F32
:102D500000260AE00498805D232803D00498805D53
:102D60002B2801D10220F0E7761C0498805D002812
:102D7000F0D148F03008119808B148F0010806EB8E
:102D80000900851C109820B1012804D002280AD11E
:102D900005E000BF09E048F00208AD1C05E048F07E
:102DA0000408AD1C01E00320CFE700BF8FB33878E3
:102DB000022821D14FF0000A00BF50460AF1010A53
:102DC000385C7D28F9D1AAF1030A0AF107000290C4
:102DD0000298A9EB000AE81CA0EB0A012046FFF7C5
:102DE000E0FD206808B90420AFE7EA1CA2EB0A0165
:102DF0002068FDF7B9FD19E0691D2046FFF7D1FDF8
:102E0000206808B90420A0E7691D2068FDF7ACFD23
:102E10000CE0FFE7691D2046FFF7C3FD206808B9F5
:102E2000042092E7691D2068FDF79EFD6168481C3B
:102E30006060206800F80180D4E90002811828460B
:102E4000FFF798FD01900198002804DA2046FFF76B
:102E500083FD052079E76168019808446060C6F346
:102E600007216268501C6060206881546268501CB1
:102E7000606020688654D4E90012881832460499AC
:102E8000FDF76DFC606830446060109860B14FEAF7
:102E90001B216268501C6060206881546268501C6D
:102EA0006060206800F802B0C7B1387802280BD102
:102EB000D4E9001288183946029AFDF7DEFC6168F1
:102EC00002980844606009E0D4E9001288184A4674
:102ED0003946FDF7D2FC606848446060002034E762
:102EE00070B505460C4604212046FFF75AFD2068C0
:102EF00008B9012070BD70216268501C60602068B4
:102F0000815402216268501C60602068815429123B
:102F10006268501C6060206881546268501C606068
:102F2000206885540020E5E770B505460C4604216D
:102F30002046FFF736FD206808B9012070BD6221E8
:102F40006268501C60602068815402216268501CD5
:102F500060602068815429126268501C606020689B
:102F600081546268501C6060206885540020E5E749
:102F70002DE9FF5F8046174699460E9C0026B24613
:102F8000B3460025B8F1000F03D1012004B0BDE81D
:102F9000F09F0BE057F8250008B90220F6E757F834
:102FA0002500FDF700FC0644681CC5B24D45F1DB69
:102FB00009EB4900801C00EB060A0AF105012046D6
:102FC000FFF7EFFC206808B90320DFE78221626881
:102FD000501C606020688154D4E90002811850467A
:102FE000FFF7C8FC0FFA80FBBBF1000F04DA2046A4
:102FF000FFF7B2FC0420C9E76068584460604FEAFC
:1030000018216268501C6060206881546268501CFE
:103010006060206800F80280002524E057F8250051
:10302000FDF7C1FB0646C6F307216268501C6060CD
:10303000206881546268501C606020688654D4E91E
:103040000023D01857F825103246FDF788FB60683A
:10305000304460600198C1B26268501C60602068B2
:103060008154681CC5B24D45D8DB00208EE7F0B511
:1030700004460D462646012300201060002114E07E
:10308000775C07F07F07106807FB03001060705C37
:1030900000F0800008B9481CF0BDDB01B3F5001F4B
:1030A00002D36FF00100F7E7491CA942E8DB4FF0BB
:1030B000FF30F1E72DE9F84380460C4615461E46E1
:1030C0002F2108F10600FDF740FB07460020009085
:1030D00017B90120BDE8F8837F1C6A46042108F176
:1030E0000100FFF7C4FF2520FDF7E9F82060206804
:1030F00008B90220EEE725212068FDF735FC2422DF
:1031000039462068FDF7B9FB243700982C38308009
:103110003188481CFDF7D3F82860286820B920685A
:10312000FDF7FCF80320D5E73288511C2868FDF72D
:103130001BFC328839462868FDF79FFB0020C9E751
:1031400001464878022801D001207047887810B1E4
:103150008878012801D1C878F7E7FF20F5E700005B
:103160002DE9FC5F81460D4614461E46DDE90C8BB9
:1031700099F8000000F00F0A002001900AF0080002
:103180000090CAF341008BF8000001AA042109F164
:103190000100FFF76CFF4844471C0198022802D346
:1031A0000AF0010010B1FF20BDE8FC9F7878397863
:1031B00040EA012020802088801C0199884201D9A2
:1031C000FF20F1E754A1B81CFDF7DBFA08B10F208E
:1031D000EAE79BF8000020B101283DD0022877D112
:1031E0003BE0009808B1FF20DEE72188481CFDF78E
:1031F00066F82860286808B9FF20D5E72288511CA6
:103200002868FDF7B1FB2288B91C2868FDF735FB5B
:103210000198801E2188401AA8F80000B8F8001014
:10322000481CFDF74CF83060306820B92868FDF77D
:1032300075F8FF20B8E7B8F80020511C3068FDF79A
:1032400093FBB8F80020B4F800C0BB1C0CEB0301E2
:103250003068FDF712FB4FE000BF2088801C019909
:10326000884201D9FF209FE72088C01C395C208854
:10327000801C385C41EA00210E9801800E9808B944
:10328000FF2091E72188481CFDF719F8286028687D
:1032900008B9FF2088E72288511C2868FDF764FBE5
:1032A0002288B91C2868FDF7E8FA0198001F2188D8
:1032B000401AA8F80000B8F80010481CFCF7FFFFFF
:1032C0003060306828B92868FDF728F8FF206BE7E0
:1032D00010E0B8F80020511C3068FDF745FBB8F845
:1032E0000020B4F800C03B1D0CEB03013068FDF773
:1032F000C4FA01E0FF2057E700BF2B212846FDF765
:1033000024FA20B923212846FDF71FFA08B1FF202F
:103310004AE7002048E7000024637265710000005E
:1033200001464878022801D001207047887820B9EA
:10333000C8780A2801D10020F7E70120F5E7014607
:103340004878022801D001207047887820B9C878D1
:103350000A2801D10020F7E70120F5E70146487867
:10336000022801D001207047887820B9C8780A283F
:1033700001D10020F7E70120F5E702465078022846
:1033800001D0012070479078B0EB112F05D1D07893
:10339000CBB2984201D10020F4E70120F2E700000F
:1033A000F8B50446FF2720780511012D01DB0E2D0D
:1033B00001DD3846F8BD032D24D1002000906A4677
:1033C0000421601CFFF753FE2044461C009802288D
:1033D00003D3207800F0010008B1FF20EAE77078FD
:1033E000317840EA0120801C0099884201D9FF20F1
:1033F000E0E706A1B01CFDF7C4F908B10F2700E013
:10340000032700E02F463846D4E7000024637265A6
:10341000710000000146FF208A78A2B9CA78142AF8
:1034200011D10A7932B1012A05D0022A04D0802AAA
:1034300006D103E000BF00BF002003E0012001E04F
:10344000022000BF00BF7047014601208A781AB9E8
:10345000CA781E2A00D10020704700BFFEE77047DF
:1034600070B5002100230F22C47804B3154C2468E2
:1034700004F4E064C4F5E064210AC1F10403CA4025
:10348000447804FA03F184781440214309010E4C76
:103490000678A155047804F01F050124AC40057896
:1034A0006D11AD0005F1E025C5F8004109E0047893
:1034B00004F01F050124AC40044D0678761145F850
:1034C000264070BD0CED00E000E400E080E100E08B
:1034D00002490143024A1160704700000000FA05EA
:1034E0000CED00E070B500240EE00021204600F055
:1034F000E6F8002504E0002000F002F9681CC5B2DF
:10350000802DF8DB601CC4B2082CEEDB70BD00001F
:1035100008B50121082000F009FD14208DF80300F2
:1035200003208DF802004FF48070ADF8000069466A
:103530000A48FFF783F84FF40070ADF800006946C1
:103540000648FFF77BF8012251020448FFF701F912
:10355000012211020148FFF7FCF808BD000C0140F0
:1035600070B50546002415E08020204100EA0502E0
:103570004FF480710E48FFF7ECF8012251020C481D
:10358000FFF7E7F800224FF400710948FFF7E1F870
:10359000601CC4B2082CE7DB012251020448FFF78B
:1035A000D8F800224FF400710148FFF7D2F870BD3F
:1035B000000C014010B5012211020A48FFF7C9F8BA
:1035C000012251020748FFF7C4F800224FF480712E
:1035D0000448FFF7BEF800224FF400710148FFF7DE
:1035E000B8F810BD000C014010B500224FF48071F6
:1035F0000648FFF7AEF8012251020448FFF7A9F888
:10360000012211020148FFF7A4F810BD000C01408F
:1036100070B5002406E0002500E06D1CB5F57A7F4A
:10362000FBD3641CB4F57A7FF5D3FFF771FFAE20AE
:1036300000F056F8D52000F053F8802000F050F844
:10364000A82000F04DF83F2000F04AF8D32000F009
:1036500047F8002000F044F8402000F041F8A12095
:1036600000F03EF8C82000F03BF8DA2000F038F80F
:10367000122000F035F8812000F032F8CF2000F061
:103680002FF8D92000F02CF8F12000F029F8DB20E9
:1036900000F026F8302000F023F8A42000F020F8F5
:1036A000A62000F01DF88D2000F01AF8142000F07C
:1036B00017F8AF2000F014F8FFF714FF70BD70B5D5
:1036C00005460C4645F0B00000F00AF8102141EA2A
:1036D000141000F005F804F00F0000F001F870BDC0
:1036E00010B50446FFF766FF7820FFF739FF00208A
:1036F000FFF736FF2046FFF733FFFFF775FF10BDDA
:1037000010B50446FFF756FF7820FFF729FF402049
:10371000FFF726FF2046FFF723FFFFF765FF10BDE9
:103720002DE9F04706460C4617469846DDF82090EE
:1037300000251AE045F0B0013144C8B2FFF7D0FFD0
:10374000102101EB1410FFF7CBFF04F00F00FFF77F
:10375000C7FF4FF0000A05E019F8010BFFF7D0FF93
:103760000AF1010AC245F7DB6D1CBD42E2DBBDE890
:10377000F0870000F8B505460E46144604EBC40079
:10378000054901EB400009230222314600902846FA
:10379000FFF7C6FFF8BD0000C809002030B58BB0A8
:1037A00000200790089009900A90012530A034A3CA
:1037B00037A239A10090444801F092F807A80021EF
:1037C00002910391CDE9041000912B0228A20191EE
:1037D0002BA12FA0FFF758F9002842D1089A91B2E7
:1037E0000798FEF7EDFEFA20FEF780FD0446002C58
:1037F00033D02046FFF7D4FD02282ED12046FFF714
:103800009FFC062823D2DFE800F003090E13181DE1
:103810002EA12D4801F064F800251DE030A12A48B2
:1038200001F05EF818E035A1274801F059F813E0DF
:103830003BA1254801F054F80EE041A1224801F0D7
:103840004FF809E047A1204801F04AF804E050A1F0
:103850001D4801F045F800BF00BF07A8FFF77CF83E
:1038600003E052A1184801F03BF828460BB030BDE8
:10387000746573745F303030303030303031000078
:103880004C425F486F6D655F7465737400000000A3
:103890004C425F486F6D65004F6E654E65745F44C6
:1038A00065764C696E6B0D0A50524F49443A20259B
:1038B000732C09415549463A2025732C0944455635
:1038C00049443A25730D0A00003801405469707369
:1038D0003A09C1ACBDD3B3C9B9A60D0A00000000B6
:1038E0005741524E3A09C1ACBDD3CAA7B0DCA3BA06
:1038F000D0ADD2E9B4EDCEF30D0A00005741524EDF
:103900003A09C1ACBDD3CAA7B0DCA3BAB7C7B7A840
:10391000B5C4636C69656E7469640D0A00000000CB
:103920005741524E3A09C1ACBDD3CAA7B0DCA3BAC5
:10393000B7FECEF1C6F7CAA7B0DC0D0A0000000042
:103940005741524E3A09C1ACBDD3CAA7B0DCA3BAA5
:10395000D3C3BBA7C3FBBBF2C3DCC2EBB4EDCEF356
:103960000D0A00005741524E3A09C1ACBDD3CAA757
:10397000B0DCA3BAB7C7B7A8C1B4BDD328B1C8C813
:10398000E7746F6B656EB7C7B7A8290D0A00000012
:103990004552523A09C1ACBDD3CAA7B0DCA3BACED6
:1039A000B4D6AAB4EDCEF30D0A0000005741524E32
:1039B0003A094D5154545F5061636B6574436F6EA7
:1039C0006E656374204661696C65640D0A000000D1
:1039D00070B588B005460C4600200490059006900E
:1039E000079023462A4610A1174800F079FF204689
:1039F000FCF7D9FE064604A80121002200923346B6
:103A0000CDE901210390224629460A20FFF78CF9CF
:103A100038B9059A91B20498FEF7D2FD04A8FEF7D2
:103A20009BFF08B070BD00005075626C6973682020
:103A3000546F7069633A2025732C204D73673A20C8
:103A400025730D0A00000000003801402DE9F04FF9
:103A50008FB0814600200B900C900D900E900A9034
:103A600009900890079000270690002600248246BF
:103A70004846FFF795FC0746F81E0D2876D2DFE88A
:103A800000F02B8C95AFCBF0D4F0E2F0F0F0070013
:103A900007AB0AAA09A94846FFF70CFB0646D6B9A8
:103AA000BDF81C00009088A19048DDE9092300F0D2
:103AB00017FF0BAADDE90901FEF7A0FF58B98CA199
:103AC0008A4800F00DFF0C9A91B20B98FEF778FD32
:103AD0000BA8FEF741FFC7E08B4806A907AA0AAB6F
:103AE000CDE90021029008AA09A94846FFF738FB52
:103AF0000646002E50D1BDF81C000A99CDE90010F1
:103B0000BDF8203081A17948099A00F0E9FE0A98B1
:103B100001F0BCF88046B8F1000F08D101F090F830
:103B200083465A4688A1714800F0DAFE31E08BA145
:103B3000404601F08BF805468AA16C482A6A00F0DD
:103B4000CFFE88A169482A6900F0CAFE8AA12869C7
:103B5000FCF717FE78B189A1404601F077F80546D9
:103B6000686920B101208749086012E079E00020EF
:103B7000844908600DE081A1404601F067F80546E0
:103B8000686918B100208049086002E001207E4980
:103B90000860404601F028F866E04846FFF7C0FBA1
:103BA00018B97AA1514800F09BFE5DE04846FFF746
:103BB000D5FBA0B97DA14D4800F092FE0BA90A20CB
:103BC000FFF7B2F958B97FA1484800F089FE0C9A76
:103BD00091B20B98FEF7F4FC0BA8FEF7BDFE43E094
:103BE000494801884846FFF7C8FBA0B97BA13F4878
:103BF00000F076FE0BA90A20FFF772F958B97DA1F3
:103C00003A4800F06DFE0C9A91B20B98FEF7D8FC82
:103C10000BA8FEF7A1FE27E04846FFF790FB18B976
:103C20007BA1324800F05CFE1EE04846FFF7F2FB45
:103C300020B97DA12D4800F053FE03E081A12B485F
:103C400000F04EFE10E04846FFF7FEFB20B984A1CD
:103C5000264800F045FE03E088A1244800F040FE1D
:103C600002E04FF0FF3600BF00BFFEF731FB701CD3
:103C700010B90FB0BDE8F08F7D210A98FCF765FD03
:103C80000446A4B1701C90B1641C06E014F8012B2A
:103C900050460AF1010A03A90A542078302802DBB1
:103CA00020783928F2DD03A8FCF742FD82460F2F69
:103CB00001D0032F05D10998FCF730FB0A98FCF7D7
:103CC0002DFB00BFD5E70000636D6469643A2025D1
:103CD000732C207265713A2025732C207265715FF8
:103CE0006C656E3A2025640D0A0000000038014022
:103CF000546970733A0953656E6420436D6452656C
:103D000073700D0A0000000012000020746F7069CB
:103D1000633A2025732C20746F7069635F6C656E45
:103D20003A2025642C207061796C6F61643A2025FB
:103D3000732C207061796C6F61645F6C656E3A20E2
:103D400025640D0A000000004572726F72206265E2
:103D5000666F72653A205B25735D0A007461726755
:103D6000657400006A736F6E5F76616C7565203DE7
:103D7000205B25735D0A00004C45440076616C753C
:103D800065000000A4812142A001214254697073A2
:103D90003A094D515454205075626C697368205330
:103DA000656E64204F4B0D0A00000000546970736B
:103DB0003A09526576205075626C69736852656382
:103DC0000D0A0000546970733A0953656E642050FF
:103DD00075626C69736852656C0D0A005469707382
:103DE0003A09526576205075626C69736852656C49
:103DF0000D0A0000546970733A0953656E642050CF
:103E000075626C697368436F6D700D0A0000000085
:103E1000546970733A09526576205075626C697303
:103E200068436F6D700D0A00546970733A094D5103
:103E3000545420537562736372696265204F4B0D51
:103E40000A000000546970733A094D5154542053CC
:103E50007562736372696265204572720D0A0000B3
:103E6000546970733A094D51545420556E5375621C
:103E7000736372696265204F4B0D0A005469707359
:103E80003A094D51545420556E53756273637269EB
:103E90006265204572720D0A0000000070B586B0A0
:103EA00004460D46002600200290039004900590E1
:103EB00007E054F826200DA1124800F011FD701CF7
:103EC000C6B2AE42F5DB02A82B4622460021009086
:103ED0001420FFF74DF838B9039A91B20298FEF713
:103EE0006FFB02A8FEF738FD06B070BD5375627314
:103EF000637269626520546F7069633A2025730D9F
:103F00000A000000003801407047000029B1064A4D
:103F1000D2690243044BDA6104E0034AD269824366
:103F2000014BDA61704700000010024029B1064AD7
:103F300092690243044B9A6104E0034A9269824306
:103F4000014B9A61704700000010024030B500211B
:103F50000022002400232D4D6D6805F00C0121B1D5
:103F6000042905D0082923D105E0294D056022E068
:103F7000274D05601FE0254D6D6805F47012234D37
:103F80006D6805F48034022505EB92421CB9214D81
:103F9000554305600BE01D4D6D6805F400351DB1FE
:103FA0001C4D5543056002E0194D5543056002E084
:103FB000174D056000BF00BF144D6D6805F0F0019E
:103FC0000909154D6B5C0568DD4045600F4D6D6856
:103FD00005F4E061090A104D6B5C4568DD408560C1
:103FE0000A4D6D6805F46051C90A0B4D6B5C45685C
:103FF000DD40C560054D6D6805F44041890B074DF6
:104000006B5CC568B5FBF3F5056130BD001002407F
:1040100000127A0000093D00900A0020A00A00204A
:10402000704710B500F002F810BD00000CB500207C
:10403000019000903348006840F4803031490860B6
:1040400000BF3048006800F4003000900198401C28
:104050000190009818B90198B0F5A06FF1D12948E6
:10406000006800F4003010B10120009001E0002051
:1040700000900098012843D12348006840F01000C8
:10408000214908600846006820F0030008600846DF
:10409000006840F0020008601A484068194948600A
:1040A0000846406848600846406840F480604860C0
:1040B0000846406820F47C1048600846406840F498
:1040C000E81048600846006840F08070086000BF53
:1040D0000C48006800F000700028F9D009484068DA
:1040E00020F00300074948600846406840F002009D
:1040F000486000BF0348406800F00C000828F9D170
:104100000CBD0000001002400020024010B500F07D
:1041100001F810BD10B51B48006840B1194800688F
:10412000401E1849086010B9012017490870002482
:1041300008E004EB4401154A02EB810000F046FD63
:10414000601CC4B2042CF4DB11480068401C104908
:104150000860084600686FF00041884202D10020E4
:104160000B49086000F031FD0A480078401CC0B2DD
:10417000084908700A2803DB0020087000F024FDBD
:1041800010BD00000000002004000020B00A002044
:10419000080000200C00002010B51348006840F013
:1041A00001001149086008464068104908400E495E
:1041B0004860084600680E4908400B4908600846F8
:1041C000006820F4802008600846406820F4FE0063
:1041D00048604FF41F008860FFF723FF4FF0006036
:1041E0000449086010BD0000001002400000FFF804
:1041F000FFFFF6FE08ED00E010B540F2255104483F
:1042000000F0A1F918B12021014800F06BF910BDB0
:104210000038014010B540F225510E4800F093F9E6
:10422000B0B10D480088802802D300200A490880D8
:104230000848001D0088C1B2074802880088401C59
:10424000054B1880054881542021024800F04AF9A6
:1042500010BD0000004400400E000020E00A0020D5
:1042600010B540F22551944800F06DF9002878D03F
:10427000914800F023FAC4B2904800780A2871D21D
:10428000DFE800F0052B3C4D51627579B7DA4C2C14
:1042900010D1012089490870002089490870894897
:1042A0008949086086490878411C854A117085490A
:1042B0000C5411E0532C0FD10420804908700020C9
:1042C0008249087082488049086080490878411C0A
:1042D0007E4A11707E490C54E5E0302C0AD1022050
:1042E0007649087076490878411C754A11707549FD
:1042F0000C5402E0002071490870D4E0312C0AD13E
:1043000003206E4908706E490878411C6C4A117090
:104310006C490C5402E0002068490870C3E0072093
:1043200066490870BFE0302C0AD105206349087047
:1043300066490878411C654A117065490C5402E0D1
:1043400000205E490870AEE0312C0CD106205B499C
:1043500008705E490878411C5C4A11705C490C5435
:1043600004E0A2E09BE00020544908709BE0072095
:104370005249087097E0544800685249884217D162
:104380004F4800782F2813DA4D490878411C4C4AD1
:1043900011704D4909680C54112C29D10820474946
:1043A000087011460878411C117046490C541FE0F2
:1043B000454800684649884217D1444800782F286C
:1043C00013DA42490878411C404A11703E49096895
:1043D0000C54112C0CD1082038490870114608786B
:1043E000411C11703A490C5402E000203349087016
:1043F00059E0112C1CD1092030490870324800685E
:104400003049884207D12E490878411C2C4A117046
:104410002C490C540FE02C4800682D4988420AD1E1
:104420002A490878411C294A117029490C5402E094
:1044300000202249087036E0112C2CD12248006857
:10444000204988420ED132212248FCF78DFA1C48BF
:104450000278214801681F48FCF70FFA01201F4924
:10446000087014E018480068194988420FD13221B9
:1044700018483230FCF778FA144802781848016876
:1044800014483230FCF7F9F9022014490870002072
:104490000A49087002E000200849087003E0002083
:1044A0000649087000BF00BF00BF40F22551024816
:1044B00000F021F810BD00000048004080000020FE
:1044C00081000020BD0E002084000020820000201A
:1044D000F40E0020600B0020880000205000002017
:1044E0008C00002001F40072B2F5007F00D100BF03
:1044F000CA430280704710B50022002340F66A14B8
:10450000A14200D100BF0A1201249440A3B2DC43AF
:10451000048010BD21B1828942F40052828104E0FE
:1045200082894DF6FF731A4082817047024600204F
:10453000B1F5007F00D100BF13880B400BB1012003
:1045400000E00020704770B50246002400230025DB
:10455000002040F66A16B14200D100BFC1F34215F7
:1045600001F01F03012606FA03F3012D02D19689FB
:10457000334006E0022D02D1168A334001E0968ACC
:1045800033400C12012606FA04F41688344013B1A5
:104590000CB1012000E0002070BDF0B503460024FE
:1045A00000260025002040F66A17B94200D100BF5E
:1045B0001846C1F3421401F01F06012707FA06F559
:1045C000012C01D10C3004E0022C01D1103000E0AC
:1045D00014301AB107682F43076002E00768AF4341
:1045E0000760F0BD2DE9F04786B005460E46002471
:1045F000A24600BFA1460027B08900B100BF2F46E8
:104600002C8A4CF6FF700440F08804432C82AC895D
:104610004EF6F3100440B08831890843718908438D
:104620000443AC81AC8A4FF6FF400440B089044398
:10463000AC8201A8FFF78AFC1F48874202D1DDF84F
:1046400010A001E0DDF80CA0A88900F4004040B102
:104650000AEBCA0000EB0A1031684900B0FBF1F820
:1046600007E00AEBCA0000EB0A1031688900B0FBD2
:10467000F1F86420B8FBF0F004012009642101FB8B
:104680001089A88900F4004040B1322000EBC90035
:10469000B0FBF1F000F00700044308E0322000EB2B
:1046A00009106421B0FBF1F000F00F0004432C81ED
:1046B00006B0BDE8F0870000003801400146888858
:1046C000C0F308007047C1F308028280704700BF42
:1046D000FEE7000010B586B0044601210420FFF774
:1046E00025FC01218803FFF721FC18208DF8170015
:1046F0004FF40070ADF8140003208DF8160005A9E2
:104700001E48FDF79BFF04208DF817000002ADF84E
:10471000140003208DF8160005A91848FDF78EFF38
:1047200001940020ADF810000C20ADF80E00002020
:10473000ADF80C00ADF80A00ADF8080001A910486A
:10474000FFF750FF01210E48FFF7E4FE012240F27F
:1047500025510B48FFF721FF25208DF8000001208F
:104760008DF8030003208DF8010002208DF802006F
:104770006846FEF775FE06B010BD00000008014057
:104780000038014010B586B0044601210420FFF72F
:10479000CDFB01214804FFF7B9FB18208DF8170065
:1047A0000420ADF8140003208DF8160005A91E485A
:1047B000FDF744FF04208DF817000820ADF8140021
:1047C00003208DF8160005A91748FDF737FF01945F
:1047D0000020ADF810000C20ADF80E000020ADF860
:1047E0000C00ADF80A00ADF8080001A90F48FFF76A
:1047F000F9FE01210D48FFF78DFE012240F22551FF
:104800000A48FFF7CAFE26208DF8000001208DF827
:10481000030000208DF8010003208DF80200684697
:10482000FEF71EFE06B010BD000801400044004027
:1048300010B586B0044601210920FFF777FB01215E
:104840008804FFF763FB18208DF817004FF4806091
:10485000ADF8140003208DF8160005A91E48FDF7D9
:10486000EDFE04208DF817004002ADF8140003207F
:104870008DF8160005A91848FDF7E0FE0194002008
:10488000ADF810000C20ADF80E000020ADF80C00C3
:10489000ADF80A00ADF8080001A91048FFF7A2FE24
:1048A00001210E48FFF736FE012240F225510B4848
:1048B000FFF773FE27208DF8000001208DF803001C
:1048C00000208DF8010002208DF802006846FEF7F6
:1048D000C7FD06B010BD0000000C014000480040BC
:1048E0000FB430B5CBB0054601AC50A800904FF4E2
:1048F000947101A8009B4F9AFBF744FD00200090A3
:104900000BE014F8011B2846FFF7DDFE00BF402135
:104910002846FFF70BFE0028F9D020780028F0D1B8
:104920004BB030BC5DF814FB2DE9F04107460C4656
:10493000154600260DE014F8011B3846FFF7C3FEAC
:1049400000BF40213846FFF7F1FD0028F9D0701C68
:1049500086B2AE42EFDBBDE8F081490050EAC120EB
:1049600018BF04204A0D18BF40F0010040F2FF724A
:10497000B2EB515F08BF40F00200012808BF0520DC
:1049800070472DE9F0414F1E00EBC7010446D1E905
:10499000000115461E4637F006020DD02A46334662
:1049A00001F01CFE7F1E04EBC703D3E9002301F0D6
:1049B0007FFB37F00602F1D1022F25D0042F13D050
:1049C000062F18BFBDE8F0812A46334601F006FEE7
:1049D000D4E90A2301F06CFB2A46334601F0FEFDC0
:1049E000D4E9082301F064FB2A46334601F0F6FDC2
:1049F000D4E9062301F05CFB2A46334601F0EEFDC4
:104A0000D4E9042301F054FB2A46334601F0E6FDC5
:104A1000D4E9022301F04CFB2A46334601F0DEFDC7
:104A2000D4E90023BDE8F04101F042BB0022134667
:104A30001046014901F0F8BB0000F03F01F038BB1F
:104A4000002213461046114601F0EEBB40F201323F
:104A500000204FF0E04102F019BA0000024A0020A5
:104A6000110702F013BA000001FDFFFF80F3108868
:104A7000704730380A2801D2012070470020704763
:104A800000BF704700BF70470120014908607047B0
:104A9000A00121420020014908607047A001214285
:104AA00010B5044604B910BD012C00D10224012028
:104AB000FFF7DCFF09480460002009490870FFF790
:104AC000D5FF06E000F00EF805480078012800D177
:104AD00000E0F7E700BF00BFE5E7000000000020AE
:104AE00004000020704710B54FF4A060FEF7F0FC02
:104AF00000F006F8FEF78CFD00F018F810BD00007D
:104B000008B501210C20FFF711FA4FF49050ADF8D1
:104B1000000010208DF8030003208DF80200694684
:104B20000148FDF78BFD08BD000C014070B5002069
:104B300016E0002100EB40021F4B03EB82025160A4
:104B400000EB400203EB8202916000EB400203EBBA
:104B50008202517000EB400203F82210411CC8B2DF
:104B60000428E6DB154909684FF47A73B1FBF3F2C8
:104B7000B2F1807F00D31DE022F07F41491E4FF04B
:104B8000E023596159170F23002907DA1C07260E65
:104B90000B4C01F00F052D1F665503E01C07250E79
:104BA000084C655400BF00214FF0E02399610721B4
:104BB000196100BF70BD0000B00A00207C0A00200F
:104BC00018ED00E000E400E070477047416851B123
:104BD0004168491E416031B90121417001780129C4
:104BE00001D181684160704770B5044622E02568B4
:104BF000A08900F4807020B9A06810B1A068FFF708
:104C0000F3FFA08900F4807028B9206918B10B491E
:104C1000206909688847A08900F4007028B9206AD3
:104C200018B10649206A096888472046034909687F
:104C300088472C46002CDAD170BD0000AC0A002059
:104C40000148006870470000A40A002070B50546BE
:104C50000E46AC6800E024682CB13146206A00F0B2
:104C60004FF80028F7D1204670BD000010B528206D
:104C700005490968884704461CB128212046FBF7EE
:104C800095FE204610BD0000A80A002010B504467D
:104C900000221146204600F001F810BD2DE9F04732
:104CA00080460D4616460024FFF7E0FF0746002029
:104CB000124908600FB9BDE8F087404601F09CF941
:104CC00081464946384600F04DFC044624B9384632
:104CD000FFF78AFF0020EEE766B1204601F08CF96D
:104CE0000446207830B13846FFF77EFF0348046061
:104CF0000020E0E705B12C603846DCE7A40A00207C
:104D000070B504460D462CB9AC4201D0012070BDEF
:104D10000020FCE70DB90120F9E705E0207808B98B
:104D20000020F4E7641C6D1C2078FBF71EFB064690
:104D30002878FBF71AFB8642F0D02078FBF715FBAA
:104D400006462878FBF711FB301AE0E710B5322150
:104D50001A48FBF709FE322118483230FBF704FEEF
:104D60001E211748FBF700FE1E2115481E30FBF7D9
:104D7000FBFD1E2112481E30FBF7F6FD1E211048D8
:104D80003C30FBF7F1FD1E210D485A30FBF7ECFDDE
:104D90001E210B487830FBF7E7FD1E2108489630AE
:104DA000FBF7E2FD1E210648B430FBF7DDFD1E21B6
:104DB0000348D230FBF7D8FD10BD0000600B002087
:104DC0008C0C002010B504462046FFF769FE10BD8C
:104DD00000BF054A128802F04002002AF9D0C2B290
:104DE000014B1B1D1A8070470038014086B03748C0
:104DF00000680590142236A16846FBF783FD002564
:104E00000024FFF770FE4FF4A060FEF761FB4FF443
:104E10001650FFF75FFC4FF4E130FFF7B3FC4FF49F
:104E20001650FFF705FD2FA13348FFF759FDFDF799
:104E3000A9FCFDF783FA03E04FF4FA70FFF7C2FF15
:104E4000FEF7ACFC0028F7D1FFF724FE4FF47A7090
:104E5000FFF7B8FFFFF718FE012105A8FFF71EF8BE
:104E6000FFF774FFC820FFF7ADFF2DE0681C80B28C
:104E70000546C8281DDB21480078012809D1FDF727
:104E80002FF91F496846FEF7A3FD00201B49087053
:104E90000CE01A480078022808D1FDF73BF81949C0
:104EA0006846FEF795FD0020144908700025FDF7BF
:104EB0000FFA0320FDF71AFA044614B12046FEF754
:104EC000C5FD0A20FFF77EFFD0E70000186F00083D
:104ED0002F6C62736D617274686F6D652F7075628F
:104EE0000000000020486172647761726520696E7D
:104EF0006974204F4B0D0A0000380140500000201B
:104F0000E10D0020310E00202DE9F04705460C464A
:104F100020785B2804D0264804600020BDE8F08794
:104F20000520E860601C01F067F8044620785D28E1
:104F300001D1601CF2E7FFF799FE0646A860A86859
:104F400008B90020EAE7204601F056F880464146BD
:104F5000304600F007FB074601F04EF804460CB956
:104F60000020DBE717E0FFF781FE071E00D1D5E741
:104F700037607E603E46601C01F03EF8814649463F
:104F8000304600F0EFFA804601F036F804460CB9DE
:104F90000020C3E700BF20782C28E4D020785D28CB
:104FA00001D1601CBAE7024804600020B6E70000A7
:104FB000A40A0020014600220878302806DB087881
:104FC000392803DC08783038024415E00878412895
:104FD00006DB0878462803DC0878373802440BE003
:104FE0000878612806DB0878662803DC08785738DB
:104FF000024401E0002070471201491C0878302863
:1050000006DB0878392803DC08783038024415E0DC
:105010000878412806DB0878462803DC087837380A
:1050200002440BE00878612806DB0878662803DC78
:1050300008785738024401E00020DCE71201491CDF
:105040000878302806DB0878392803DC08783038FF
:10505000024415E00878412806DB0878462803DC7E
:105060000878373802440BE00878612806DB0878B6
:10507000662803DC08785738024401E00020BAE7CC
:105080001201491C0878302806DB0878392803DC2F
:1050900008783038024415E00878412806DB0878A3
:1050A000462803DC0878373802440BE0087861288A
:1050B00006DB0878662803DC08785738024401E0EC
:1050C000002098E7104696E72DE9F04F8BB0834615
:1050D0008A460020044605460026674F0021884680
:1050E00089460990012008909AF800002D2802D1E5
:1050F000624F0AF1010A9AF80000302801D10AF142
:10510000010A9AF80000312822DB9AF800003928B9
:105110001EDC00BF1AF8011BA1F1300001F00BFAF0
:105120000022574BCDE906012046294601F056FAE8
:10513000CDE90401DDE9062300F0BAFF04460D467F
:105140009AF80000302803DB9AF800003928E1DDE6
:105150009AF800002E2830D19AF8010030282CDB74
:105160009AF80100392828DC0AF1010A00BF1AF870
:10517000011BA1F1300001F0DEF90022404BCDE926
:1051800006012046294601F029FACDE90401DDE9AE
:10519000062300F08DFF04460D460022364B4046A4
:1051A000494601F041FC804689469AF800003028C3
:1051B00003DB9AF800003928D9DD9AF80000652849
:1051C00003D09AF80000452823D10AF1010A9AF881
:1051D00000002B2802D10AF1010A08E09AF8000029
:1051E0002D2804D14FF0FF3008900AF1010A08E0A1
:1051F0001AF8010B3038099901EB810100EB4100ED
:1052000009909AF80000302803DB9AF8000039284A
:10521000EEDDDDE9082101FB02F001F08CF94246E8
:105220004B46CDE9000100F043FF02460B46CDE9B5
:1052300002010020124900F0F3F922462B46CDE985
:1052400006013046394601F0C9F9CDE90401DDE92E
:10525000062301F0C3F904460D46CBE90645204676
:10526000294601F039F9CBF814000320CBF80C00E3
:1052700050460BB0BDE8F08F0000F03F0000F0BFDB
:10528000000024402DE9F04706460C4620787B2894
:1052900004D0404804600020BDE8F0870620F0609C
:1052A000601C00F0A9FE044620787D2801D1601C16
:1052B000F2E7FFF7DBFC0546B060B06808B90020F4
:1052C000EAE7204600F098FE80464146284600F076
:1052D00063F8074600F090FE04460CB90020DBE7B7
:1052E000286928620020286120783A2803D02948BC
:1052F00004600020D0E7601C00F07EFE804641463E
:10530000284600F02FF9074600F076FE04460CB957
:105310000020C1E731E0FFF7A9FC071E00D1BBE781
:105320002F607D603D46601C00F066FE8146494668
:10533000284600F031F8804600F05EFE04460CB9C5
:105340000020A9E7286928620020286120783A28EF
:1053500003D01048046000209EE7601C00F04CFE63
:1053600081464946284600F0FDF8804600F044FE9C
:1053700004460CB900208FE700BF20782C28CAD043
:1053800020787D2801D1601C86E702480460002057
:1053900082E70000A40A00202DE9F05F83468846DA
:1053A00008F10104002798F80000222805D06A4877
:1053B000C0F800800020BDE8F09F04E014F8011B55
:1053C0005C2900D1641C2078222804D0207810B1F8
:1053D000781C071EF2D1781C60490968884781460D
:1053E000B9F1000F01D10020E5E708F101044D46B5
:1053F0009EE020785C2804D014F8010B05F8010B1E
:1054000096E0641C2078722818D006DC622809D047
:1054100066280BD06E287DD10CE0742812D0752838
:10542000F9D113E0082005F8010B7FE00C2005F806
:10543000010B7BE00A2005F8010B77E00D2005F851
:10544000010B73E0092005F8010B6FE0601CFFF70A
:10545000B1FD0646241DB6F55C4F02D3B6F5604F8C
:1054600000D306B962E0B6F5584F1CD3B6F55C4FD1
:1054700019D260785C2802D1A078752800D055E058
:10548000E01CFFF797FD8246A41DBAF55C4F02D3DE
:10549000BAF5604F00D349E0C6F30901504661F305
:1054A0009F2000F580360427802E01D2012708E0D6
:1054B000B6F5006F01D2022703E0B6F5803F00D2B7
:1054C00003273D44012F20D0022F15D0032F0AD0EF
:1054D000042F24D106F0BF0040F08001681E05466D
:1054E0000170B60900BF06F0BF0040F08001681EE1
:1054F00005460170B60900BF06F0BF0040F080010C
:10550000681E05460170B60900BF1548C05D3043EE
:10551000C1B200E006E0681E0546017000BF00BF92
:105520003D4403E0207805F8010B00BF00BF641C78
:105530002078222803D0207800287FF45AAF00205A
:1055400028702078222800D1641CCBF81090042009
:10555000CBF80C0020462EE7A40A0020A80A002061
:105560001C6F000870B505460C460CB9002070BDD4
:10557000042224A12046FBF735F918B90220E8607F
:10558000201DF4E7052221A12046FBF72BF918B9CD
:105590000020E860601DEAE704221EA12046FBF718
:1055A00021F920B90120E8606861201DDFE720783B
:1055B000222804D121462846FFF7EEFED7E72078BF
:1055C0002D2805D02078302807DB2078392804DC06
:1055D00021462846FFF778FDC9E720785B2804D1EB
:1055E00021462846FFF790FCC1E720787B2804D1AC
:1055F00021462846FFF746FEB9E708480460002028
:10560000B5E700006E756C6C0000000066616C739D
:10561000650000007472756500000000A40A002097
:105620002DE9F04D1D460C4698B0174621F000417B
:1056300023F00043002814BF4FF0010C4FF0000C82
:105640000CEB440CFE4A0CEB02064FEA620C66457A
:105650002BD33E0018BF012606EB45061644F94A37
:10566000964222D3F84A53EA070C02D0944205D15D
:1056700048B918B000201146BDE8F08D002808BFD9
:105680004FF0000C01D04FF0010C0CEB440212F56E
:10569000001F0AD8002F14BF4FF0010C4FF0000C70
:1056A0000CEB450212F5001F07D918B03A462B46FD
:1056B0002146BDE8F04DFFF7C1B90022DFF88CA309
:1056C000002CB8BF534526DADFF884C36345A8BF72
:1056D000022220DADFF870C39C451CDCDFF874C3BB
:1056E0000CEB235CBCF1140F08DDCCF1340627FA77
:1056F00006FC0CFA06F6BE420DD108E05FB9CCF10B
:10570000140623FA06FC0CFA06F69E4203D10CF0AE
:105710000102C2F1020251EA000C19D1002D17DA80
:10572000002C18BF022A01D0012A07D00220FBF763
:10573000CCF918B0BDE8F04DFFF778B90220FBF7BF
:10574000C4F9FFF773F918B081F00041BDE8F08D9E
:10575000B7F1000C6CD1534525D104F1804212F50C
:10576000801201BF00280020B74918B008BFBDE86B
:10577000F08DB548884207DC002DA1BF6046294660
:1057800018B0BDE8F08D07E0281E05DA80F0004172
:1057900018B06046BDE8F08DAF497944D1E9000109
:1057A00018B0BDE8F08DDFF8A0C2634525D1002D0B
:1057B0001FDA19B1514512D1D8B909E0002840F0DB
:1057C000EC82A24A214618B062F31E01BDE8F08DBA
:1057D0000020214618B060F31E01BDE8F08D08DA04
:1057E00018B02346BDE8F04D02460020614600F0A7
:1057F0001BBD18B02146BDE8F08D514518DAB5F152
:10580000804F0DD0A5F1005CBCF1FF5C10D1B4F16C
:10581000000C0DDB18B06146BDE8F04D00F0F5BBA3
:10582000234618B00246BDE8F04D194600F0D6BE3A
:10583000060024F0004C3BD1D9B1514533D1002CA6
:1058400006DD002DA1BF0020514618B0BDE8F08D47
:10585000002C01DD002D1BDB002C13DA002D11DBE9
:10586000012A4FF0000014BF78497C4918B0BDE808
:10587000F08D022A18BF002C0AD0012A08D1002C72
:1058800006DA0AE0002CB8BF002D11DA012A04D094
:10589000002018B00146BDE8F08D18B000204FF090
:1058A0000041BDE8F08DA1F14050B0F17F601AD009
:1058B000012000EBE47050EA020421D0624C521E39
:1058C0004FF0000B104304BF4FF0000B644C6548D1
:1058D00083427CDD644A654893421FDD884217DBC2
:1058E000002D25DB37E0002C00DA4AB1022A0CBF7C
:1058F00001204FF0FF3018B0BDE8F04D00F01BBEA6
:105900000120FBF7E2F818B0BDE8F04DFFF798B8BA
:105910004D4A8A4202DC002D0ADC1CE0814202DA98
:10592000002D18DA04E0484B994220DD002D12DDED
:105930000220FBF7CAF8FFF789F805460E46002259
:1059400053465846214600F049FE18B066F31E0142
:105950002846BDE8F08D0220FBF7B7F8FFF77EF888
:105960000A46214618B062F31E01BDE8F08D002200
:105970003046614601F058F880460E466FF001024D
:1059800001F084FA4FF05532394B00F05BFF42468C
:10599000334600F023FE0022364B00F053FF8246D0
:1059A0004246334604911046194600F017FE52460F
:1059B000049B00F013FE8A4600904FF0C0422E4B2D
:1059C0004046314600F00AFE2C4A2B4B00E027E00F
:1059D000CDE906015146009800F000FE8246019193
:1059E000274A284B4046314600F0F8FD5246019BBD
:1059F00001F01AF882460B4602460591DDE90601E0
:105A000000F056FBDDE9062300268846304601F00B
:105A10000BF85246059B00F015FF024600F07EB9D8
:105A20000020B1F5801F07DA35223046614601F0CB
:105A30002DFA06466FF0340000EB215024E0000000
:105A4000FFFF1F00FFFF0F000000F03F0000F07F8E
:105A50000000404301FCFFFF521800000000F0FF6F
:105A60000000F0BF0000E0410000F043FFFFEF3F07
:105A70005555D53F0000E03F4715F73FFE822B65A7
:105A800044DF5DF80BAE543EA0F2FF300190C1F34D
:105A9000130040F07F6141F040510291FE4988427D
:105AA000D8BF002004DDFD498142C8BF012001DDCF
:105AB0000D9008E000200D900198401C0190029884
:105AC000A0F5801002900299F54878440B910D9949
:105AD00000EBC100D0E900230F9330460A920B99E6
